:020000040020DA
:10000000004C0020511B2100351B2100411B210009
:10001000491B2100491B2100491B21000000000051
:10002000000000000000000000000000491B21004B
:10003000491B210000000000491B2100491B210031
:10004000491B2100491B2100491B2100491B21009C
:1000500000000000491B2100491B2100491B210011
:10006000491B21000000000000000000000000000B
:100070000000000000000000491B210000000000FB
:100080000000000000000000491B2100491B210066
:10009000491B2100491B2100491B2100491B21004C
:1000A000491B2100491B2100491B2100491B21003C
:1000B000491B2100491B2100491B2100491B21002C
:1000C000491B2100491B2100491B2100491B21001C
:1000D000491B21000000000000000000000000009B
:1000E0000000000000000000000000000000000010
:1000F000491B210000000000491B2100491B210071
:1001000000000000000000000000000000000000EF
:1001100000000000000000000000000000000000DF
:1001200000000000000000000000000000000000CF
:1001300000000000000000000000000000000000BF
:1001400000000000000000000000000000000000AF
:10015000000000000000000000000000000000009F
:10016000000000000000000000000000000000008F
:10017000000000000000000000000000000000007F
:10018000000000000000000000000000000000006F
:10019000000000000000000000000000000000005F
:1001A000000000000000000000000000000000004F
:1001B000000000000000000000000000000000003F
:1001C000000000000000000000000000000000002F
:1001D000000000000000000000000000000000001F
:1001E000000000000000000000000000000000000F
:1001F00000000000000000000000000000000000FF
:1002000000000000000000000000000000000000EE
:1002100000000000000000000000000000000000DE
:1002200000000000000000000000000000000000CE
:1002300000000000000000000000000000000000BE
:1002400000000000000000000000000000000000AE
:10025000000000000000000000000000000000009E
:10026000000000000000000000000000000000008E
:10027000491B2100491B2100491B2100491B21006A
:10028000491B2100491B2100491B210080B500AFFB
:100290000FF046FE0DF0E4FF00F006F80DF0F8FF59
:1002A0004FF00003184680BD80B500AF0EF09CF8FB
:1002B0000BF004FC0BF072FE0CF09AFA0EF014FF37
:1002C00002F086FF00F026F805F0B0F905F016FF01
:1002D00003F09CFA08F042F807F07CF908F030F9D6
:1002E00008F0CEFC08F04CFD08F0EAFE09F0BAFF79
:1002F0000BF072FA09F0C8FB0DF094FB4FF001000F
:100300004FF035014FF000024FF000030EF00CFAF1
:1003100080BD00BF80B500AF44F60040C2F20000CF
:100320004FF000014FF04C0214F0E6FF44F65C4041
:10033000C2F200004FF000014FF0140214F0DCFF95
:100340000BF00CFC0346002B04D04FF0010002F030
:100350007FFA03E04FF0000002F07AFA02F0E4FACC
:1003600044F64C43C2F200034FF000029A7144F687
:100370000043C2F200034FF0000283F8452044F628
:100380000043C2F200034FF0000283F8442010F053
:1003900097FE40F2CD30C0F2200010F0CBFD40F2CD
:1003A0003140C0F2200010F0D1FD40F28160C0F277
:1003B000200010F0D7FD40F2B970C0F2200010F01C
:1003C000E1FD41F69A1010F027FE80BD80B500AF28
:1003D00041F69A1010F034FE44F60043C2F20003D6
:1003E00093F84530002B02D101F05AF812E044F6A0
:1003F0000043C2F2000393F845301A4644F65C43CA
:10040000C2F200031B699BB24FF009004FF040019C
:100410000EF08AF944F65C43C2F200031B6903F153
:10042000010244F65C43C2F200031A6180BD00BFC2
:1004300080B500AF44F60043C2F2000393F84530A4
:10044000012B71D144F60043C2F200035B7CA3F19F
:100450002A030F2B53D801A252F823F09D04200049
:10046000A3042000A9042000AF042000B50420004C
:10047000BB042000C1042000C7042000CD042000DC
:10048000D3042000D9042000DF042000E50420006C
:10049000EB042000F1042000F704200001F038F8FC
:1004A000E1E001F05DF8DEE001F072F8DBE001F080
:1004B00083F8D8E001F0AAF8D5E001F0BFF8D2E067
:1004C00001F062FACFE001F087FACCE001F09CFA8B
:1004D000C9E001F0ADFAC6E001F0D4FAC3E001F0E2
:1004E0006BFCC0E001F076FDBDE001F08BFDBAE0F1
:1004F00001F09CFDB7E001F0CFFD00BFB3E044F692
:100500000043C2F200035B7C1A4644F65C43C2F22D
:1005100000031B699BB24FF009004FF03B010EF046
:1005200019F902F055FB9EE044F60043C2F20003C5
:1005300093F84530022B40F0968044F60043C2F217
:1005400000035B7CA3F11A03212B77D801A252F898
:1005500023F000BFDD052000E3052000E9052000B1
:10056000EF052000F5052000010620000706200009
:100570000D06200013062000190620001F0620008B
:10058000250620002B06200031062000370620001B
:100590003D0620003D0620003D0620003D062000CF
:1005A0003D0620003D0620003D0620003D062000BF
:1005B0003D0620003D0620003D0620003D062000AF
:1005C0003D0620003D0620003D0620003D0620009F
:1005D0003D0620003D062000FB05200000F0B2FA99
:1005E00041E000F0ABFB3EE000F0BEFB3BE000F082
:1005F000CFFB38E000F000FC35E000F02FFC32E0EB
:1006000000F03EFC2FE000F073FC2CE000F086FCD4
:1006100029E000F097FC26E000F0C2FC23E000F0A7
:1006200045FD20E000F06AFD1DE000F07DFD1AE0D0
:1006300000F08EFD17E000F0D5FD14E044F6004315
:10064000C2F200035B7C1A4644F65C43C2F200032C
:100650001B699BB24FF009004FF03B010EF07AF896
:1006600002F0B6FA00BF44F65C43C2F200035B68D6
:1006700003F1010244F65C43C2F200035A6080BDFC
:1006800080B582B000AF786044F60043C2F2000348
:1006900093F84530012B33D144F60043C2F20003F6
:1006A0005B7CA3F12D030B2B27D801A252F823F07A
:1006B000E1062000E1062000FB062000FB062000EA
:1006C000FB062000E9062000E9062000FB062000CA
:1006D000FB062000FB062000FB062000F1062000A0
:1006E000786800F06FFF56E0786801F0A7F952E0F3
:1006F000786801F0B3FC00BF4DE002F069FA4AE00F
:1007000044F60043C2F2000393F84530022B42D175
:1007100044F60043C2F200035B7CA3F11D030A2BE5
:1007200024D801A252F823F05D0720006D072000B5
:100730006D0720006D0720006D0720006507200071
:100740006D0720006D0720006D0720005507200071
:1007500055072000786800F02DFD1CE0786800F057
:100760002DFB18E0786800F003FC14E044F6004329
:10077000C2F200035B7C1A4644F65C43C2F20003FB
:100780001B699BB24FF009004FF03E010DF0E2FFF4
:1007900002F01EFA00BF44F65C43C2F200039B68FD
:1007A00003F1010244F65C43C2F200039A6007F1D0
:1007B0000807BD4680BD00BF80B582B000AF78603D
:1007C00044F60043C2F2000393F84530012B2CD1CC
:1007D00044F60043C2F200035B7C342B07D0392B74
:1007E00009D02E2B0CD1786800F03CFF51E07868DE
:1007F00001F060F94DE0786801F066FC00BF48E068
:1008000044F60043C2F200035B7C1A4644F65C43A4
:10081000C2F200031B699BB24FF009004FF03F0189
:100820000DF098FF02F0D4F933E044F60043C2F231
:10083000000393F84530022B2BD144F60043C2F25B
:1008400000035B7C232B07D0282B09D01E2B0BD158
:10085000786800F0E7FA1CE0786800F0B7FB18E071
:10086000786800F0C5FC14E044F60043C2F20003CF
:100870005B7C1A4644F65C43C2F200031B699BB2E0
:100880004FF009004FF03F010DF064FF02F0A0F9B6
:1008900000BF44F65C43C2F20003DB6803F10102CF
:1008A00044F65C43C2F20003DA6007F10807BD4674
:1008B00080BD00BF80B500AF44F60043C2F2000324
:1008C00093F84530002B02D100F0B2F812E044F664
:1008D0000043C2F2000393F845301A4644F65C43E5
:1008E000C2F200031B699BB24FF009004FF04001B8
:1008F0000DF01AFF80BD00BFB0B58AB004AF4FF055
:1009000000037B704FF01103BB704FF02203FB70AC
:100910004FF033033B714FF044037B714FF05503AD
:10092000BB714FF06603FB714FF077033B724FF0E2
:1009300002033B7010F06AF93B4618460BF05AFD73
:100940000346002B6FD14FF009000BF091FB78614B
:100950007B69002B0CD14FF009004FF02C014FF0B8
:1009600000024FF000030DF0F5FE02F031F95AE0FD
:100970007B694FF00A021A707B694FF00A025A70C5
:100980007B694FF0010283F849207B694FF07B02BD
:1009900083F8ED207B6903F138031D463C460FCCFC
:1009A00028606960AA60EB6023782B747B694FF044
:1009B000030283F84B2044F60043C2F2000393F88D
:1009C00044307A69194682F84A1003F10103DAB219
:1009D00044F60043C2F2000383F844207B694FF0E1
:1009E000000283F84C207B694FF01F0283F86720D8
:1009F0007B6993F849307A6992F84A107A6902F172
:100A000038024FF000000090019102927869194677
:100A10004FF000024FF002030CF008FD78694FF030
:100A200002010CF0A9FA07F11807BD46B0BD00BFDE
:100A300080B586B000AF44F60043C2F200034FF029
:100A4000020283F8452001F0EDFD0FF08FFD44F622
:100A50000043C2F20003DB88002B01D10FF05EFDE2
:100A600044F60043C2F200035B7C002B14D044F632
:100A70000043C2F200035B7C1A4644F65C43C2F2B8
:100A800000031B699BB24FF009004FF01E010DF0EF
:100A900061FE02F09DF851E005F038F90EF014F80F
:100AA00005F072F90346FB7505F0B4F90346002B17
:100AB00010D007F10403184605F07CF907F1040390
:100AC00018460BF097FC024644F60043C2F20003BE
:100AD0005A6106E044F60043C2F200034FF0000200
:100AE0005A6144F60043C2F200035B69002B1DD03B
:100AF000FB7D022B1AD14FF01A0001F077FF44F66C
:100B00000043C2F200035B6993F84C2002F101023A
:100B1000D2B283F84C2044F60043C2F200035B6A71
:100B200003F13A03184610F0D9FE07E044F60043FB
:100B3000C2F200034FF0000283F8452007F11807C6
:100B4000BD4680BD80B586B000AF44F60043C2F21A
:100B500000035B6A9BB2C3F5CC5303F11A039AB24C
:100B600044F60043C2F20003A3F8482044F60043D1
:100B7000C2F20003B3F8482040F241139A4240F217
:100B8000CB804FF01B0001F031FF44F60043C2F26E
:100B90000003DB6B002B7FD14FF009000BF068FAEC
:100BA000024644F60043C2F20003DA6344F600430F
:100BB000C2F20003DB6B002B0CD14FF009004FF0A9
:100BC0002C014FF000024FF000030DF0C3FD01F0C7
:100BD000FFFFAEE044F60043C2F20003DB6B4FF0D0
:100BE00009021A7044F60043C2F20003DB6B4FF0B7
:100BF00009025A7044F60043C2F20003DB6B4FF067
:100C0000050283F8492044F60043C2F20003DA6B80
:100C100044F60043C2F2000393F84430194682F8C8
:100C20004A1003F10103DAB244F60043C2F20003B2
:100C300083F8442007F10403184605F0BBF83B791C
:100C4000012B08D03B794FF008004FF019014FF00D
:100C500001020DF069FD44F60043C2F20003D86BB7
:100C600044F60043C2F20003DB6B93F84A1044F6EB
:100C70000043C2F20003B3F8483007F1040201F068
:100C800059FA44F60043C2F20003DB6B18464FF0FA
:100C900002010CF071F90EE044F60043C2F20003C9
:100CA000DB6B5B6803F1080244F60043C2F2000309
:100CB000B3F84830138044F60043C2F20003DB6B04
:100CC0005A6844F60043C2F20003DB6B1B7A1046FD
:100CD000194610F015FA10F063FA10F0A9F902465F
:100CE00044F60043C2F200031A6344F60043C2F222
:100CF00000034FF0010283F8382044F60043C2F2AB
:100D000000035B6A03F17C03184610F0E7FD4FF027
:100D10001C0001F06BFE0CE04FF03B0001F066FEA2
:100D200044F60043C2F20003B3F84830184610F00E
:100D3000D5FD07F11807BD4680BD00BF80B500AFE7
:100D400044F60043C2F200035B7C1A4644F60043BB
:100D5000C2F20003DB884FF009004FF022010DF0D2
:100D6000F9FC01F035FF80BD80B500AF4FF01D00EC
:100D700001F03CFE44F60043C2F200035B6A03F15B
:100D80009D03184610F0AAFD10F020FA80BD00BFA8
:100D900080B500AF44F60043C2F200035B7C1A4604
:100DA00044F60043C2F20003DB884FF009004FF025
:100DB00027010DF0CFFC01F00BFF80BD80B582B0A4
:100DC00000AF786010F0CAFD44F60043C2F20003A1
:100DD0007A685A624FF01E0001F008FE44F60043A4
:100DE000C2F200035B6A03F1A403184610F076FD1B
:100DF00007F10807BD4680BD80B500AF44F600434B
:100E0000C2F200035B7C1A4644F60043C2F20003C0
:100E1000DB884FF009004FF026010DF09BFC01F03C
:100E2000D7FE80BD80B582B000AF786044F6004345
:100E3000C2F200037A685A624FF01A0001F0D6FD40
:100E400044F60043C2F200035B6A03F13A0318461A
:100E500010F044FD07F10807BD4680BD80B500AF26
:100E60004FF01F0001F0C2FD44F60043C2F2000340
:100E70005B6A03F13A03184610F030FD80BD00BFF5
:100E800080B500AF4FF0200001F0B0FD44F6004304
:100E9000C2F200035B695A6844F60043C2F20003E1
:100EA0005B691B7A1046194610F02AF910F078F9A0
:100EB00010F0BEF8024644F60043C2F200031A6383
:100EC00044F60043C2F200034FF0010283F83820D9
:100ED00044F60043C2F200035B6A03F17C03184648
:100EE00010F0FCFC4FF0210001F080FD80BD00BF40
:100EF00080B500AF44F60043C2F200035B7C1A46A3
:100F000044F60043C2F20003DB884FF009004FF0C3
:100F100022010DF01FFC01F05BFE80BD80B500AF2B
:100F20004FF0220001F062FD44F60043C2F20003DC
:100F30005B6A03F19D03184610F0D0FC10F046F9EF
:100F400080BD00BF80B500AF44F60043C2F200038D
:100F50005B7C1A4644F60043C2F20003DB884FF084
:100F600009004FF027010DF0F5FB01F031FE80BDC7
:100F700080B582B000AF78604FF0230001F036FDFD
:100F800010F0ECFC44F60043C2F200035B6A03F18C
:100F9000A403184610F0A2FC07F10807BD4680BD67
:100FA00080B500AF44F60043C2F200035B7C1A46F2
:100FB00044F60043C2F20003DB884FF009004FF013
:100FC00026010DF0C7FB01F003FE80BD90B585B092
:100FD00000AF78604FF0240001F008FD10F0BEFC77
:100FE00010F074F844F60043C2F200035C6B10F09A
:100FF0001FF8024644F60043C2F200031B6BD31AEB
:10100000E21844F60043C2F200035A6344F6004378
:10101000C2F200035B6903F1380318460BF04CFD84
:101020000346002B03D04FF00003FB7302E04FF0A8
:101030000103FB7344F60043C2F200035B6993F8BB
:101040004930012B15D144F60043C2F200035B691D
:101050005B780A2B0DD144F60043C2F200035B69B2
:1010600093F8ED307B2B04D10FF036FD4FF00003E9
:10107000FB73FB7B002B0AD044F60043C2F2000353
:101080005B6A03F17D03184610F028FC09E044F682
:101090000040C2F200004FF0010104F03DFF01F0FA
:1010A00097FD07F11407BD4690BD00BF80B500AFA6
:1010B0004FF0250001F09AFC10F0BAF80FF0B8FFDD
:1010C000024644F60043C2F200031A6344F60043AA
:1010D000C2F200034FF0010283F8382044F60043C7
:1010E000C2F200035B6A03F18703184610F0F6FBB7
:1010F0004FF0260001F07AFC80BD00BF80B500AF44
:1011000044F60043C2F200035B7C1A4644F60043F7
:10111000C2F20003DB884FF009004FF023010DF00D
:1011200019FB01F055FD80BD80B500AF4FF02700E1
:1011300001F05CFC10F092F844F60043C2F20003A8
:101140005B6A03F1A703184610F0C8FB80BD00BF1F
:1011500080B500AF44F60040C2F200004FF000013D
:1011600004F0DAFE44F60043C2F200035B6993F830
:101170004B2002F1FF32D2B283F84B2044F60043F9
:10118000C2F200035B6993F84B30002B07D044F6A2
:101190000043C2F200035B694FF00A025A7044F642
:1011A0000043C2F200034FF000025A6101F010FD4B
:1011B00080BD00BF80B582B000AF78604FF02800DE
:1011C00001F014FC10F0CAFB44F60043C2F2000325
:1011D0005B6A03F16203184610F080FB07F1080711
:1011E000BD4680BD80B500AF01F0F2FC80BD00BF00
:1011F000B0B596B002AF78604FF0290001F0F6FB71
:1012000010F0ACFB0FF062FF44F60043C2F20003A3
:101210005C6B0FF00DFF024644F60043C2F2000380
:101220001B6BD31AE21844F60043C2F200035A6360
:101230004FF009000AF01CFF024644F60043C2F2D8
:1012400000031A6244F60043C2F200031B6A002B3B
:101250000CD14FF009004FF02C014FF000024FF07D
:1012600000030DF077FA01F0B3FC15E144F60043FA
:10127000C2F200031B6A4FF009021A7044F60043E1
:10128000C2F200031B6A4FF009025A7044F6004391
:10129000C2F200031A6A44F60043C2F200031B6A5A
:1012A00003F16C03536044F60043C2F200031B6A6F
:1012B000596844F60043C2F200031B6A03F10802B6
:1012C00044F60043C2F200031B6A03F1680444F6CB
:1012D0000043C2F200031B6A03F1690044F60043B5
:1012E000C2F200031B6A03F16A03009001930846EF
:1012F00011464FF0820223460FF0D4FF44F600431C
:10130000C2F200031B6A1B7A012B07D944F6004383
:10131000C2F200031B6A1B7A802B0ED944F60043ED
:10132000C2F200031B6A1B7A4FF009004FF037012D
:101330004FF001020DF00EFA9DE044F60043C2F2B8
:1013400000031B6A18464FF002010BF037FE44F60B
:101350000043C2F200031B6A93F86A3083F0010372
:10136000DBB2002B7ED144F60043C2F200031A6ABE
:1013700007F11003104619460CF018F93B7C83F076
:101380000103DBB2002B6FD144F60043C2F200032D
:101390001B6ABA7C83F8492044F60043C2F200037A
:1013A0001B6A7A7E83F84A2044F60043C2F20003A7
:1013B0001B6A03F138031D4607F13C040FCC28607B
:1013C0006960AA60EB6023782B7444F60043C2F294
:1013D00000031A6A7B7C104619460BF0A5FD44F603
:1013E0000043C2F200035B6907F110021046194680
:1013F00001F0D8F8034683F00103DBB2002B35D1AE
:10140000FB7D83F00103DBB2002B31D144F60043B6
:10141000C2F200031A6A07F10E031046194601F0E2
:10142000C7FC034683F00103DBB2002B22D144F654
:101430000043C2F200031A6AFB89DBB21046194668
:101440000BF072FD44F60040C2F200004FF00101C3
:1014500004F062FD44F60043C2F200034FF00002C4
:101460005A6108E000BF06E000BF04E000BF02E0F0
:1014700000BF00E000BF44F60043C2F200031B6A55
:1014800018460AF05BFE44F60043C2F200034FF038
:1014900000021A6201F09CFB07F15007BD46B0BD87
:1014A00080B500AF44F60043C2F200035B7C002B22
:1014B00014D044F60043C2F200035B7C1A4644F6A3
:1014C0005C43C2F200031B699BB24FF009004FF06E
:1014D0003A010DF03FF901F07BFB17E00DF0F4FA53
:1014E0004FF02A0001F082FA44F60043C2F20003F2
:1014F0004FF0010283F8452044F60043C2F2000396
:101500005B6A03F13703184610F0E8F980BD00BFAD
:1015100080B500AF4FF02B0001F068FA0FF088FEA5
:101520000FF086FD024644F60043C2F200031A6340
:1015300044F60043C2F200034FF0010283F8382062
:1015400044F60043C2F200035B6A03F158031846F5
:1015500010F0C4F94FF02C0001F048FA80BD00BF34
:1015600080B500AF44F60043C2F200035B7C1A462C
:1015700044F65C43C2F200031B699BB24FF00900C2
:101580004FF03C010DF0E6F801F022FB80BD00BFFA
:1015900080B500AF4FF02D0001F028FA0FF05EFE8D
:1015A00044F60043C2F200035B6A03F2411318469B
:1015B00010F094F980BD00BF80B500AF01F008FBCA
:1015C00080BD00BF80B582B000AF78604FF02E00C4
:1015D00001F00CFA10F0C2F944F60043C2F2000325
:1015E0007A685A6244F60043C2F200037A689A624B
:1015F00044F60043C2F200035B6A03F1A4031846F9
:1016000010F06CF907F10807BD4680BD80B500AF4A
:1016100044F60043C2F200035B7C1A4644F65C4386
:10162000C2F200031B699BB24FF009004FF03D016D
:101630000DF090F801F0CCFA80BD00BF80B500AF8E
:1016400044F60043C2F200039B6918460AF076FD97
:1016500044F60043C2F200034FF000029A6101F029
:10166000B7FA80BD90B5A1B002AF78604FF000032B
:1016700087F865304FF0110387F866304FF022038A
:1016800087F867304FF0330387F868304FF0440332
:1016900087F869304FF0550387F86A304FF06603DA
:1016A00087F86B304FF0770387F86C304FF0020308
:1016B00087F864304FF02F0001F098F910F04EF9E0
:1016C0000FF004FD4FF009000AF0D2FC024644F688
:1016D0000043C2F200031A6444F60043C2F200035E
:1016E0001B6C002B0CD14FF009004FF02C014FF078
:1016F00000024FF000030DF02DF801F069FA3EE111
:1017000044F60043C2F200031B6C4FF009021A704A
:1017100044F60043C2F200031B6C4FF009025A70FA
:1017200044F60043C2F200031A6C44F60043C2F2CE
:1017300000031B6C03F16C03536044F60043C2F2D8
:1017400000031B6C596844F60043C2F200031B6C93
:1017500003F1080244F60043C2F200031B6C03F1DC
:10176000680444F60043C2F200031B6C03F16900F5
:1017700044F60043C2F200031B6C03F16A030090BD
:101780000193084611464FF0820223460FF08AFD6E
:1017900044F60043C2F200031B6C1B7A012B07D9ED
:1017A00044F60043C2F200031B6C1B7A802B0ED957
:1017B00044F60043C2F200031B6C1B7A4FF0090091
:1017C0004FF037014FF002020CF0C4FFC6E044F6C0
:1017D0000043C2F200031B6C18464FF002010BF0ED
:1017E000EDFB44F60043C2F200031B6C93F86A3031
:1017F00083F00103DBB2002B40F0AB8044F60043E2
:10180000C2F20003196C07F1100207F10E0308463B
:1018100011461A4600F0F2FC3B7C83F00103DBB278
:10182000002B40F09880BB7C052B40F0968007F1A0
:10183000640207F15003104619460BF0D1F807F186
:10184000100303F11B0207F15003104619460BF079
:1018500027FA0346002B43D04FF004000AF0A8F902
:10186000034607F1100202F10A02104619460BF076
:1018700017FA0346002B33D04FF0300001F0B6F8D2
:10188000FB89002B0AD144F60043C2F200035B6AD5
:1018900003F13703184610F021F80BE044F600433B
:1018A000C2F200035A6AFB89D31803F137031846C2
:1018B00010F014F844F60043C2F200037A685A624A
:1018C00044F60043C2F200031B6C18460AF036FCD3
:1018D00044F60043C2F200034FF000021A644EE0E7
:1018E0004FF001000AF064F9034607F1100202F11B
:1018F0001B02104619460BF0D3F9034683F001038F
:10190000DBB2002B2AD04FF004000AF051F9034655
:1019100007F1100202F10A02104619460BF0C0F955
:101920000346002B1AD0FB8903F5F67318460FF017
:10193000D5FF44F60043C2F200031B6C18460AF0C0
:10194000FDFB44F60043C2F200034FF000021A64AC
:1019500015E000BF02E000BF00E000BF44F6004316
:10196000C2F200031B6C18460AF0E8FB44F6004381
:10197000C2F200034FF000021A6401F029F907F1E6
:101980007C07BD4690BD00BF80B500AF4FF0310071
:1019900001F02CF80FF04CFC0FF04AFB024644F625
:1019A0000043C2F200031A6344F60043C2F200038C
:1019B0004FF0010283F8382044F60043C2F20003DE
:1019C0005B6A03F1580318460FF088FF4FF03200AE
:1019D00001F00CF880BD00BF80B500AF44F60043B5
:1019E000C2F200035B7C1A4644F65C43C2F2000379
:1019F0001B699BB24FF009004FF024010CF0AAFEC6
:101A000001F0E6F880BD00BF80B500AF4FF03300B5
:101A100000F0ECFF0FF022FC44F60043C2F200039A
:101A20005B6A03F2411318460FF058FF80BD00BFF8
:101A300080B500AF01F0CCF880BD00BF80B582B0AA
:101A400000AF78604FF0340000F0D0FF0FF086FF59
:101A500044F60043C2F200037A685A6244F6004337
:101A6000C2F200037A689A6244F60043C2F20003AD
:101A70005B6A03F1A40318460FF030FF07F1080773
:101A8000BD4680BD80B500AF44F60043C2F20003FE
:101A90005B7C1A4644F65C43C2F200031B699BB2AE
:101AA0004FF009004FF026010CF054FE01F090F8C1
:101AB00080BD00BFB0B596B002AF78604FF00003B4
:101AC000FB814FF0350000F091FF0FF047FF0FF062
:101AD000FDFA44F60043C2F200035C6B0FF0A8FA73
:101AE000024644F60043C2F200031B6BD31AE2180D
:101AF00044F60043C2F200035A634FF009000AF0B3
:101B0000B7FA024644F60043C2F200039A6144F673
:101B10000043C2F200039B69002B0CD14FF0090077
:101B20004FF02C014FF000024FF000030CF012FEBA
:101B300001F04EF83CE144F60043C2F200039B6919
:101B40004FF009021A7044F60043C2F200039B6989
:101B50004FF009025A7044F60043C2F200039A693A
:101B600044F60043C2F200039B6903F16C03536027
:101B700044F60043C2F200039B69596844F60043EF
:101B8000C2F200039B6903F1080244F60043C2F26B
:101B900000039B6903F1680444F60043C2F20003AA
:101BA0009B6903F1690044F60043C2F200039B699C
:101BB00003F16A0300900193084611464FF0820238
:101BC00023460FF06FFB44F60043C2F200039B690B
:101BD0001B7A012B07D944F60043C2F200039B692C
:101BE0001B7A802B0ED944F60043C2F200039B6996
:101BF0001B7A4FF009004FF037014FF002020CF052
:101C0000A9FDC4E044F60043C2F200039B691846F4
:101C10004FF002010BF0D2F944F60043C2F2000388
:101C20009B6993F86A3083F00103DBB2002B40F02C
:101C3000A98044F60043C2F200039A6907F1100339
:101C4000104619460BF0B2FC3B7C83F00103DBB27B
:101C5000002B40F0998044F60043C2F200039B69D8
:101C6000BA7C83F8492044F60043C2F200039B6922
:101C70007A7E83F84A2044F60043C2F200039B694F
:101C8000FA7D83F8652044F60043C2F200039B69A5
:101C900003F138031D4607F13C040FCC286069604E
:101CA000AA60EB6023782B7444F60043C2F2000371
:101CB0009A697B7C104619460BF036F93B7C002B69
:101CC00022D0FB7D002B1FD0BB7C002B1CD14FF002
:101CD000040009F06DFF034607F1100202F10A0249
:101CE000104619460AF0DCFF0346002B0CD044F6E0
:101CF0000043C2F200039A6907F10E031046194629
:101D000001F056F80346002B44F60043C2F20003EC
:101D10009A69FB89DBB2104619460BF005F944F6C7
:101D20000043C2F200037A685A6207F110031846B2
:101D300000F0FAFB034683F00103DBB2002B25D150
:101D40007B7D002B0AD044F60043C2F200035B6A9D
:101D500003F17A0318460FF0C1FD29E044F6004371
:101D6000C2F200039B6918464FF0010100F0B6FD76
:101D700044F60043C2F200034FF000029A6100F003
:101D800027FF15E000BF02E000BF00E000BF44F6FF
:101D90000043C2F200039B6918460AF0CFF944F6EB
:101DA0000043C2F200034FF000029A6100F010FFFE
:101DB00007F15007BD46B0BD90B587B004AF4FF0F6
:101DC000360000F013FE4FF009000AF051F9024608
:101DD00044F60043C2F20003DA6144F60043C2F263
:101DE0000003DB69002B1DD14FF009004FF02C01DF
:101DF0004FF000024FF000030CF0ACFC44F600433F
:101E0000C2F200039B6918464FF0020100F066FD24
:101E100044F60043C2F200034FF000029A6100F062
:101E2000D7FED3E044F60043C2F20003DB694FF073
:101E300009021A7044F60043C2F20003DB694FF056
:101E400009025A7044F60043C2F200039B6AA3F1F0
:101E500083037B6044F60043C2F20003DB6918464B
:101E60004FF002010BF036F87B68C3F100037B6092
:101E70007A6813464FEA03139B1A4FEA43037B60C9
:101E800044F60043C2F20003DB695B687A68D2B2B1
:101E90001A7044F60043C2F20003DB695B6803F189
:101EA00001037A6892B24FEA122292B2D2B21A7049
:101EB00044F60043C2F20003DB6918464FF002010A
:101EC0000BF008F840F23C433B8044F60043C2F27A
:101ED0000003DB695B683A4612881A8044F60043C7
:101EE000C2F20003DB694FF0020283F8492044F696
:101EF0000043C2F20003DA6944F60043C2F2000371
:101F00009B6993F84A3082F84A3044F60043C2F2A3
:101F10000003D96944F60043C2F20003DB6993F879
:101F2000492044F60043C2F200039B6993F84A003B
:101F300044F60043C2F200039B6903F138034FF0FB
:101F40000004009401900293084611464FF00102EC
:101F50004FF002030BF06AFA44F60043C2F20003AA
:101F6000DB6918464FF002010BF006F844F6004317
:101F7000C2F20003DB695A6844F60043C2F2000370
:101F8000DB691B7A104619460FF0BAF80FF008F912
:101F90000FF04EF8024644F60043C2F200031A6303
:101FA00044F60043C2F200034FF0010283F83820E8
:101FB00044F60043C2F200035B6A03F19003184643
:101FC0000FF08CFC4FF0370000F010FD07F10C070C
:101FD000BD4690BD80B500AF44F60043C2F2000399
:101FE0005B7C1A4644F65C43C2F200031B699BB259
:101FF0004FF009004FF025010CF0ACFB00F0E8FDBC
:1020000080BD00BF80B500AF4FF0380000F0EEFC9F
:1020100044F60043C2F200035B6A03F1B1031846C1
:102020000FF05CFC0FF0D2F880BD00BF80B500AFB0
:1020300044F60043C2F200035B7C1A4644F65C435C
:10204000C2F200031B699BB24FF009004FF0280158
:102050000CF080FB00F0BCFD80BD00BF80B582B0FD
:1020600000AF78604FF0390000F0C0FC0FF076FC54
:1020700044F60043C2F200037A685A6244F6004311
:10208000C2F200035B6A03F1620318460FF026FCFC
:1020900007F10807BD4680BD80B500AF44F6004398
:1020A000C2F200035B7C1A4644F65C43C2F20003B2
:1020B0001B699BB24FF009004FF029010CF04AFB5D
:1020C00000F086FD80BD00BF80B582B000AF7860B3
:1020D0004FF03A0000F08AFC0FF040FC44F6004359
:1020E000C2F200037A685A6244F60043C2F2000367
:1020F000DB6918460AF022F844F60043C2F20003F6
:102100004FF00002DA6144F60043C2F200039B691B
:1021100018464FF0030100F0E1FB44F60043C2F221
:1021200000034FF000029A6100F052FD07F108072A
:10213000BD4680BD80B58AB000AFF8607A600A46BF
:10214000FA723B81F8684FF002010AF0C3FEFB68A7
:102150005B684FF47C521A80F8684FF002010AF075
:10216000B9FEFB685B683A891A80F8684FF0020193
:102170000AF0B0FEFB685B6840F682621A807B68FA
:102180001B78012B06D1F86879684FF001020AF03C
:102190003BFE11E07B681B78022B0DD107F1140385
:1021A000786819460AF01CFC07F11403F868194610
:1021B0004FF001020AF028FE4FF0040009F0F8FC8D
:1021C0000346F86819464FF001020AF01DFEF86850
:1021D0004FF001010AF07EFEFB685B68FA7A1A7024
:1021E000F8684FF001010AF075FEFB685B684FF07C
:1021F00055021A7007F12807BD4680BD80B586B02C
:1022000000AFF860B9607A60BB684FF000021A70E6
:10221000BB684FF000025A70BB685A78FB681B7AA3
:102220009A4200F25F81FB685A68BB685B78D318FA
:102230001B78FB75FB7D03F00703DAB2BB689A706D
:10224000BB689B78052B40F04F81FB7D4FEAD303A1
:10225000DBB203F00103002B40F04881FB7D4FEA25
:102260001313DBB203F00303BB75BB7D012B0BD152
:10227000BB684FF00102DA76FB7D4FEA93137B7562
:102280007B7D012B0BD01EE0BB7D9BB24FF0080085
:102290004FF019014FF001020CF05CFA3FE1BB680E
:1022A0004FF0010283F82C20BB685B7803F1010337
:1022B000DAB2BB685A70BB685A78FB681B7A9A42DC
:1022C00000F216810AE07B7D9BB24FF008004FF0D0
:1022D00019014FF002020CF03DFA20E1FB685A6848
:1022E000BB685B78D3181A78BB685A72BB685B7896
:1022F00003F10103DAB2BB685A70BB685A78FB6815
:102300001B7A9A4200F2F680FB685A68BB685B78D9
:10231000D218BB6803F10A0310464FF004011A46B5
:102320004FF001030AF012FDBB685B7803F1020372
:10233000DAB2BB685A70BB685A78FB681B7A9A425B
:1023400000F2DA80FB685A68BB685B78D218BB6819
:1023500003F11B0310464FF001011A464FF0010331
:102360000AF0F4FCBB685B7803F10203DAB2BB68E5
:102370005A70BB685A78FB681B7A9A4200F2BE809A
:10238000FB685A68BB685B78D3181B783B75BB68E1
:102390005B7803F10103DAB2BB685A70FB685A68D4
:1023A000BB685B78D3181B78FB74BB685B7803F160
:1023B0000103DAB2BB685A70FB7C4FEA03239AB27E
:1023C0003B7D9BB213439BB23B823B8A03F07F036E
:1023D000022B40F095803B8A4FEAD3139BB21D2B12
:1023E00040F090803B8A4FEAD3339BB203F0010365
:1023F000002B40F08980BB685A78FB681B7A9A42B0
:1024000000F28480FB685A68BB685B78D3181B783D
:102410003B75BB685B7803F10103DAB2BB685A70A5
:10242000FB685A68BB685B78D3181B78FB74BB6881
:102430005B7803F10103DAB2BB685A70FB7C4FEAA8
:1024400003239AB23B7D9BB213439BB29AB27B6843
:102450001A80BB685A78FB681B7A9A4258D8FB6886
:102460005A68BB685B78D3181B783B75BB685B7890
:1024700003F10103DAB2BB685A70FB685A68BB68A3
:102480005B78D3181B78FB74BB685B7803F101039E
:10249000DAB2BB685A70FB7C4FEA03239AB23B7DE9
:1024A0009BB213439BB23B823B8A03F07F03002B1A
:1024B00030D13B8A4FEAD3139BB27E2B05D03B8AA7
:1024C0004FEAD3139BB27F2B26D13B8A4FEAD333FB
:1024D0009BB203F00103002B20D1BB684FF0010237
:1024E0001A701CE000BF1AE000BF18E000BF16E041
:1024F00000BF14E000BF12E000BF10E000BF0EE01C
:1025000000BF0CE000BF0AE000BF08E000BF06E02B
:1025100000BF04E000BF02E000BF00E000BF07F121
:102520001807BD4680BD00BF90B583B000AF78608E
:102530007B681B78002B2BD07B689B78012B03D00A
:102540007B689B78002B23D17B6803F10A044FF052
:10255000040009F02DFB0346204619460AF0A0FBB3
:102560000346002B14D07B6803F11B03184609F0C7
:10257000DFFB0346002B08D17B6803F11B031846E1
:102580000AF09AFA0346002B02D04FF0010301E053
:102590004FF0000303F00103DBB2184607F10C070C
:1025A000BD4690BD90B583B000AF786039607B6860
:1025B0001B78002B2BD07B689B78022B27D17B6864
:1025C00003F10A044FF0040009F0F2FA0346204632
:1025D00019460AF065FB0346002B18D07B6803F10F
:1025E0001B03184609F0A4FB0346002B0FD07B68A1
:1025F00003F12C023B6803F13803104619460AF038
:102600004FFB0346002B02D04FF0010301E04FF0D7
:10261000000303F00103DBB2184607F10C07BD46C7
:1026200090BD00BF98B500AF44F60043C2F200036E
:10263000B3F803309BB203F101039AB244F60043AE
:10264000C2F20003A3F8032044F60043C2F20003E1
:10265000B3F803309BB2002B25D144F60043C2F2FD
:102660000003B3F801309BB203F101039AB244F6C0
:102670000043C2F20003A3F8012044F60043C2F273
:102680000003B3F801309BB2002B0CD144F6004399
:10269000C2F200031B7803F10103DAB244F60043EF
:1026A000C2F200031A7044F60043C2F20003DB8852
:1026B00003F1010403F054FB034694FBF3F203FB24
:1026C00002F3E31A9AB244F60043C2F20003DA803E
:1026D00044F60043C2F2000393F82D3003F10102E7
:1026E0004FF00F03C8F200031340002B05DA03F18B
:1026F000FF3363F00F0303F10103DAB244F6004342
:10270000C2F2000383F82D2098BD00BF80B483B0CF
:1027100000AF786044F60043C2F20003B3F8033020
:102720009BB2DAB27B681A707B6803F1010244F64F
:102730000043C2F20003B3F803309BB24FEA132305
:102740009BB2DBB213707B6803F1020244F60043D4
:10275000C2F20003B3F801309BB2DBB213707B68A6
:1027600003F1030244F60043C2F20003B3F8013060
:102770009BB24FEA13239BB2DBB213707B6803F169
:10278000040244F60043C2F200031B78137007F101
:102790000C07BD4680BC704790B587B002AF78602B
:1027A0000EF05AFCF860FA687B68D31ABB60B86810
:1027B0000EF046FC44F60043C2F2000340F61D1240
:1027C000DA607B689BB2C3F100039BB299B244F616
:1027D0000043C2F200031A6A0CB26B4602F14401D4
:1027E00003C9186003F10403197002F138030ECB1A
:1027F000204600F017FD44F60043C2F200031B7CA4
:10280000002B11D07B6813F1050F02DB7B68052BD1
:102810000ADD7B689BB24FF009004FF01C011A469D
:102820004FF001030BF096FF44F64C43C2F2000355
:102830005B7803F10103DAB244F64C43C2F20003C1
:102840005A70786800F0A8F807F11407BD4690BDEB
:1028500080B582B000AF0346FB7144F60043C2F27C
:102860000003FA791A7444F60043C2F200031B7C99
:10287000002B04D00EF000F900F056F803E00EF043
:1028800003F903F00BFB07F10807BD4680BD00BF4D
:1028900080B582B000AF78600B46FB707B68FA7839
:1028A00083F837207B6803F14D0244F60043C2F2FF
:1028B0000003186810601B7913717B684FF00B02DE
:1028C0005A7046F2F140C0F220004FF002010BF0C6
:1028D0001BFD07F10807BD4680BD00BF80B582B073
:1028E00000AF78600B46FB70FB7803F1FF33032BDE
:1028F00013D801A252F823F0092920000F29200043
:1029000009292000152920000EF028F907E00EF013
:10291000C3F804E00EF092F801E00EF077F907F149
:102920000807BD4680BD00BF80B400AF44F64C43ED
:10293000C2F200034FF000021A7044F64C43C2F298
:1029400000034FF000025A7044F64C43C2F20003F9
:102950004FF07F025A8044F64C43C2F200034FF618
:1029600081729A8044F64C43C2F200034FF0000299
:10297000DA719A6802F07F429A6044F64C43C2F2E0
:1029800000034FF00002DA72DA6802F07F42DA6088
:10299000BD4680BC704700BF80B483B000AF786094
:1029A00044F64C43C2F200035B881AB27B689A4239
:1029B00006DD7B689AB244F64C43C2F200035A80AB
:1029C00044F64C43C2F200039B881AB27B689A42D9
:1029D00006DA7B689AB244F64C43C2F200039A804E
:1029E00007F10C07BD4680BC704700BF80B582B0C0
:1029F00000AF0346FB7144F60043C2F20003FA79CC
:102A00005A7444F60043C2F200035B7C3B2B00F295
:102A1000848001A252F823F00F2B20001B2B2000F2
:102A20001B2B20001B2B20001B2B20001B2B20000E
:102A30001B2B20001B2B20001B2B20001B2B2000FE
:102A40001B2B20001B2B20001B2B20001B2B2000EE
:102A50001B2B20001B2B20001B2B20001B2B2000DE
:102A60001B2B20001B2B20001B2B20001B2B2000CE
:102A70001B2B20001B2B20001B2B20001B2B2000BE
:102A8000092B2000152B2000152B2000152B2000D2
:102A9000152B2000092B2000152B2000152B2000C2
:102AA000152B2000152B2000152B2000152B2000A6
:102AB000152B2000152B2000152B2000152B200096
:102AC0000F2B2000152B2000152B2000152B20008C
:102AD000152B2000152B20000F2B2000152B20007C
:102AE000152B2000152B2000152B2000152B200066
:102AF000152B2000152B2000152B2000152B200056
:102B0000152B2000092B20000DF072FD05E00DF0C3
:102B100061FD02E00DF052FD00BF07F10807BD4660
:102B200080BD00BF80B582B000AF44F60043C2F262
:102B300000031B783B7044F60043C2F20003B3F875
:102B400001309BB2A7F8013044F60043C2F2000303
:102B5000B3F803309BB2A7F803303B464FF00400B4
:102B600019464FF005020BF0DDFC4FF0010318464B
:102B700007F10807BD4680BD80B582B000AF4FF0B9
:102B80000003FB7144F60043C2F200031B7CFB719F
:102B900007F107034FF0000019464FF001020BF058
:102BA000C1FC4FF00103184607F10807BD4680BD80
:102BB00080B500AF4FF0050044F64C41C2F2000171
:102BC0004FF00F020BF0AEFC4FF00103184680BD32
:102BD00080B500AF0EF07AFA0EF0C0FE44F6004366
:102BE000C2F200034FF000025A6244F60043C2F200
:102BF00000034FF000029A6244F60043C2F2000361
:102C00004FF000025A6344F60043C2F200034FF053
:102C1000000283F8382044F60043C2F200035B69E7
:102C2000002B33D044F60040C2F200004FF0000108
:102C300003F072F944F60043C2F200035B6993F8B3
:102C40004B2002F1FF32D2B283F84B2044F600430E
:102C5000C2F200035B6993F84B30002B07D044F6B7
:102C60000043C2F200035B694FF00A025A7044F657
:102C70000043C2F200035B69184609F05FFA44F6AC
:102C80000043C2F200034FF000025A6144F60043D1
:102C9000C2F200039B69002B18D044F60043C2F235
:102CA00000039B6918464FF00401FFF717FE44F636
:102CB0000043C2F200039B69184609F03FFA44F64C
:102CC0000043C2F200034FF000029A6144F6004351
:102CD000C2F20003DB69002B0ED044F60043C2F2BF
:102CE0000003DB69184609F029FA44F60043C2F2F2
:102CF00000034FF00002DA6144F60043C2F2000321
:102D00001B6A002B0ED044F60043C2F200031B6A7C
:102D1000184609F013FA44F60043C2F200034FF0DC
:102D200000021A6244F60043C2F20003DB6B002B80
:102D30000ED044F60043C2F20003DB6B184609F0E4
:102D4000FDF944F60043C2F200034FF00002DA63DB
:102D500044F60043C2F200031B6C002B0ED044F675
:102D60000043C2F200031B6C184609F0E7F944F671
:102D70000043C2F200034FF000021A644FF000005B
:102D8000FFF734FE44F60043C2F200034FF00002A6
:102D900083F8452080BD00BF80B400AF44F60043F7
:102DA000C2F200031B7C1846BD4680BC704700BFC2
:102DB00080B588B000AF786039604FF00003FB73D6
:102DC0007B685A68FB7BD3181B787B76FB7B03F10F
:102DD0000103DBB2FB737B7E9AB27B685968FB7B95
:102DE000CB181B784FEA03239BB2D318FB82FB7BE3
:102DF00003F10103DBB2FB73FB7B1A463B681A80CD
:102E0000FB8A03F00103002B0AD0FB8A4FEA53131D
:102E1000BB83FB8A03F01E034FEA6303FB7709E0E1
:102E2000FB8A4FEA5323BB83FB8A03F4FF734FEA09
:102E30006303FB773B681A88BB8BD3189AB23B6855
:102E40001A80FB7F012B02D01E2B78D0BEE07B685E
:102E50005A68FB7BD3181B787B76FB7B03F101035D
:102E6000DBB2FB737B7E9AB27B685968FB7BCB1825
:102E70001B784FEA03239BB2D318FB82FB7B03F141
:102E80000103DBB2FB73BB8BA3F10203BB83FB8AA1
:102E900003F00103002B0AD0FB8A4FEA53137B8314
:102EA000FB8A03F01E034FEA6303BB7709E0FB8A4A
:102EB0004FEA13237B83FB8A03F0FE034FEA63038D
:102EC000BB77BB7F1B2B25D01C2B2DD01A2B28D1D9
:102ED00008F044FE034683F00103DBB2002B25D04B
:102EE0007B685A68FB7BD318184600F0A9F8FB7B77
:102EF00003F10503DBB2FB737B685A68FB7BD318D5
:102F00001B78184600F080F8FB7B03F10103DBB26D
:102F1000FB730BE007F10F037868194602F0B8F96C
:102F200005E04FF000036AE000BF00E000BFBA8B8D
:102F30007B8BD31ABB83BB8B002B88D14EE008F070
:102F40000DFE034683F00103DBB2002B45D07B6806
:102F500003F13803184600F065FE0346002B3CD011
:102F60007B685A68FB7BD3181B787B75FB7B03F16E
:102F70000103DBB2FB737B685A68FB7BD3181B78B9
:102F80003B75FB7B03F10103DBB2FB733B7D4FEA37
:102F900003239AB27B7D9BB213439BB21BB23B616E
:102FA0003B6948F68902C8F6880282FB0312D218F0
:102FB0004FEA22124FEAE373D31A3B613B69C3F134
:102FC00000033B613869FFF7E7FB06E03B684FF021
:102FD00000021A804FF0000311E000BF3B681B881D
:102FE0007F2B0AD93B681B884FF009004FF0330153
:102FF0001A464FF001030BF0ADFB4FF001031846EA
:1030000007F12007BD4680BD80B483B000AF034602
:10301000FB7144F60043C2F200039B69FA7983F81E
:10302000642044F60043C2F200039B694FF00102A2
:1030300083F8662007F10C07BD4680BC704700BFCF
:1030400090B583B000AF78607B681B781A467B68C8
:1030500003F101031B784FEA03239BB2D3189AB202
:1030600044F60043C2F20003A3F803207B6803F197
:1030700002031B781A467B6803F103031B784FEAAF
:1030800003239BB2D3189AB244F60043C2F2000362
:10309000A3F801207B681A7944F60043C2F20003CA
:1030A0001A7044F60043C2F200034FF00002DA80C7
:1030B00044F60043C2F20003DB88184602F00CFE1F
:1030C00002F038FE03461A4644F60043C2F20003FB
:1030D0001A8144F60043C2F2000393F82C4002F038
:1030E00083FE0346E31ADBB2A3F10B03DAB244F624
:1030F0000043C2F2000383F82D2007F10C07BD4600
:1031000090BD00BF80B584B000AF78600FF0D2FEF4
:1031100044F60043C2F200031A787B681B789A4297
:1031200004D00FF0BBFE4FF0FF334CE04FF0000334
:10313000FB6044F60043C2F20003B3F801309AB2D8
:103140007B68B3F801309BB29A420FD10FF0A6FE14
:1031500044F60043C2F20003B3F803309BB21A46B0
:103160007B68B3F803309BB2D31A2CE044F60043DB
:10317000C2F20003B3F801309BB21A467B68B3F881
:1031800001309BB2D31A012B17D144F60043C2F28F
:103190000003B3F803309BB2FB607B68B3F80330E5
:1031A0009BB2FA68D31A03F57F4303F1FF03FB6078
:1031B000FB6803F10103FB6002E04FF0FF33FB60AB
:1031C0000FF06CFEFB68184607F11007BD4680BD86
:1031D00080B500AF44F67040C2F200004FF000012D
:1031E0004FF02C0212F088F844F67043C2F200034C
:1031F0004FF000021A7044F67043C2F200034FF021
:103200000002DA8444F67043C2F200034FF03A023F
:103210001A8544F67043C2F200034FF0000283F8AF
:103220002A2080BD84B0B0B584B000AF044607F159
:10323000240080E80E002346FB8044F67043C2F26F
:1032400000031B8DB3F5FA6F12D944F67043C2F236
:10325000000393F82A3083F00103DBB2002B07D080
:10326000B7F90630052B40F3F28000F0C1FAEEE02A
:1032700044F67043C2F2000393F82A3083F001034E
:10328000DBB2002B78D0FFF787FD0346002B73D00D
:1032900007F124031846714909F002FD0346002B8B
:1032A0006AD06F48FFF72EFF024644F67043C2F221
:1032B00000031B8D9A424FD9B7F90630184600F02B
:1032C000D1F844F67043C2F200034FF000025A8175
:1032D00044F67043C2F200034FF00002DA8444F671
:1032E0007043C2F200031B8D4FEA43039AB244F6C7
:1032F0007043C2F200031A8544F67043C2F2000321
:103300001B8D184602F058FF07F108031846FFF717
:10331000FDF97B7A4FEA03239AB23B7A13439BB2BF
:103320009AB244F67043C2F20003A3F80F20FB7A6E
:103330004FEA03239AB2BB7A13439BB29AB244F684
:103340007043C2F20003A3F80D203A7B44F67043A9
:10335000C2F200031A737AE044F67043C2F200032B
:10336000DB8C9AB2FB88D3189BB29AB244F67043B6
:10337000C2F20003DA846AE044F67043C2F200034A
:103380004FF03A021A8544F67043C2F200031B8DD7
:10339000184602F011FF44F67043C2F200034FF0EA
:1033A00000021A7044F67043C2F200034FF00002AC
:1033B0005A6044F67043C2F200034FF000021A81D3
:1033C00044F67043C2F200034FF000025A8144F603
:1033D0007043C2F200034FF00002DA8407F10803E1
:1033E0001846FFF793F97B7A4FEA03239AB23B7AA8
:1033F00013439BB29AB244F67043C2F20003A3F89F
:103400000F20FB7A4FEA03239AB2BB7A13439BB295
:103410009AB244F67043C2F20003A3F80D203A7B3F
:1034200044F67043C2F200031A7344F67043C2F2CA
:10343000000303F1120307F1240215685468906831
:10344000D1681D605C609860D960127C1A7407F1C5
:103450001007BD46BDE8B04004B07047824C002064
:103460007C4C002080B584B000AF0346FB8044F65E
:103470007043C2F200031B78002B03D14FF001030D
:10348000FB7302E04FF00003FB735B48FFF73AFE6B
:10349000024644F67043C2F200035A60FB7B002BE5
:1034A00050D0B7F90630012B22DD44F67043C2F24A
:1034B00000034FF001021A7044F67043C2F2000399
:1034C0005B689AB244F67043C2F200039A8444F6F1
:1034D0007043C2F200039B8C1A46B7F9063092FB88
:1034E000F3F39AB244F67043C2F200039A8474E094
:1034F000B7F90630B3F1FF3F6FDA44F67043C2F21A
:1035000000034FF002021A7044F67043C2F2000347
:103510005B689AB244F67043C2F200039A8444F6A0
:103520007043C2F200039B8C1A46B7F90630C3F110
:10353000000392FBF3F39AB244F67043C2F2000325
:103540009A844AE044F67043C2F200031B78022BCF
:1035500012D144F67043C2F200035B89BB8144F68A
:103560007043C2F20003DB8C9AB2FB88D3189BB283
:10357000BA89D31ABB8111E044F67043C2F200034A
:103580005B89BB8144F67043C2F20003DB8C9AB2C4
:10359000FB88D3189AB2BB89D318BB81BB89002B97
:1035A00002D100F025F918E044F67043C2F200039E
:1035B0005B689AB244F67043C2F200039A8444F600
:1035C0007043C2F200039A8CBB89B2FBF3F39AB248
:1035D00044F67043C2F200039A8444F67043C2F288
:1035E00000039A8C44F67043C2F200031A8107F17B
:1035F0001007BD4680BD00BF7C4C002080B582B066
:1036000000AF4FF4F673FB8044F67043C2F2000340
:103610001B78002B53D044F67043C2F200031B8981
:10362000002B4ED044F67043C2F200031B8903F115
:10363000FF339AB244F67043C2F200031A8144F693
:103640007043C2F200031B89002B3BD144F6704348
:10365000C2F200031B78022B11D1FB8803F1FF3368
:10366000FB8044F67043C2F200035B8903F101035F
:103670009AB244F67043C2F200035A8110E0FB880C
:1036800003F10103FB8044F67043C2F200035B893F
:1036900003F101039AB244F67043C2F200035A8167
:1036A000FB8818460DF0CCFC44F67043C2F20003D0
:1036B0009A8C44F67043C2F200031A8102E000BF04
:1036C00000E000BF07F10807BD4680BD80B584B0AB
:1036D00000AF0346FB80FB8803F101039BB21A464F
:1036E0004FEA4212D21A4FEA8202D31A4FEA8303F8
:1036F0007B8144F67043C2F200031B78002B6ED02E
:1037000044F67043C2F200031B89002B69D0FB888A
:10371000002B68D0FB88FB814FF000037B7325E012
:1037200044F67043C2F200031B8903F1FF339AB2DF
:1037300044F67043C2F200031A8144F67043C2F2A9
:1037400000031B89002B0DD17B7B03F101037B73ED
:1037500044F67043C2F200039A8C44F67043C2F2FE
:1037600000031A81FB8903F1FF33FB81FB89002BE6
:10377000D6D17B7B002B37D044F67043C2F20003D6
:103780001B78022B13D17B7B9BB27A89D31A7B8166
:1037900044F67043C2F200035A897B7B9BB2D31874
:1037A0009AB244F67043C2F200035A8112E07B7B66
:1037B0009AB27B89D3187B8144F67043C2F200032E
:1037C0005A897B7B9BB2D3189AB244F67043C2F2FB
:1037D00000035A817B8918460DF032FC04E000BFDB
:1037E00002E000BF00E000BF07F11007BD4680BD4A
:1037F00080B400AF44F67043C2F200034FF0010200
:1038000083F82A20BD4680BC704700BF80B500AF5A
:1038100044F69C40C2F200004FF000014FF4AE723B
:1038200011F06AFD08F09AF90346002B08D044F61F
:103830009C43C2F200034FF00002A3F8542107E0BA
:1038400044F69C43C2F200034FF6FF72A3F85421E2
:1038500080BD00BF80B400AF44F69C43C2F20003B9
:10386000B3F854311846BD4680BC704780B483B06D
:1038700000AF4FF00003BB714FF00003FB7116E087
:10388000F97944F69C42C2F200020B464FEA031358
:103890005B184FEA4303D3181B78002B03D0BB7986
:1038A00003F10103BB71FB7903F10103FB71FB79A8
:1038B000092BE5D9BB79184607F10C07BD4680BC3A
:1038C000704700BFB0B485B000AF78607B684FF040
:1038D00000021A704FF00003BB734FF000037B73BC
:1038E0004FF6FF737B814FF00B037B724FF00003A9
:1038F000FB736FE0F97B44F69C42C2F200020B4678
:103900004FEA03135B184FEA4303D3181B78002BCD
:103910005CD0F97B44F69C42C2F200020B464FEAAF
:1039200003135B184FEA4303D3185B78022B1FD1B4
:10393000FA7B13464FEA03139B184FEA430344F6FE
:103940009C42C2F200029B1803F104027B681568D6
:1039500054689068D1681D605C609860D960127C82
:103960001A747B684FF002021A704FF00103BB73A8
:10397000F97B44F69C42C2F200020B464FEA031365
:103980005B184FEA4303D31803F11003B3F8053073
:103990009BB27A899A4215D9F97B44F69C42C2F2CD
:1039A00000020B464FEA03135B184FEA4303D31898
:1039B00003F110035A799B794FEA032313437B8168
:1039C000FB7B7B727B7B03F101037B73FB7B03F14E
:1039D0000103FB73FB7B092B8CD9BB7B83F00103B9
:1039E000DBB2002B4FD07B7B002B4CD0797A44F696
:1039F0009C42C2F200020B464FEA03135B184FEAE7
:103A00004303D3184FF002025A70797A44F69C426D
:103A1000C2F200020B464FEA03135B184FEA43035E
:103A2000D3184FF001029A70797A44F69C42C2F2A0
:103A300000020B464FEA03135B184FEA4303D31807
:103A40004FF00002DA707A7A13464FEA03139B189C
:103A50004FEA430344F69C42C2F200029B1803F172
:103A600004027B68156854689068D1681D605C60CA
:103A70009860D960127C1A747B684FF002021A7049
:103A80004FF00103BB73BB7B184607F11407BD461B
:103A9000B0BC704780B586B000AF0346FB804FF0E6
:103AA00000033B614FF00003FB604FF00003FB7528
:103AB00049E0F97D44F69C42C2F200020B464FEA0F
:103AC00003135B184FEA4303D3181B78002B36D03F
:103AD000FA7D13464FEA03139B184FEA430303F1A1
:103AE000180244F69C43C2F20003D31803F1040306
:103AF0001846FFF707FB03467B817A89FB889A42C9
:103B00001DD9F97D44F69C42C2F200020B464FEAF1
:103B100003135B184FEA4303D3185B78022B0ED1D3
:103B2000FA7D13464FEA03139B184FEA430344F60A
:103B30009C42C2F200029B1803F104033B61FB7D2F
:103B400003F10103FB75FB7D092BB2D93B69002B07
:103B500001D03B6906E0FB68002B01D0FB6801E067
:103B60004FF00003184607F11807BD4680BD00BF9F
:103B700080B58CB000AF78604FF0000387F82E302E
:103B80007B681B78032B0ED107F1080207F11C0399
:103B9000786811461A4608F0A7FE00BF4FF00003F0
:103BA00087F82F3033E07B681B784FF00D004FF023
:103BB00031011A464FF000030AF0E4FD97F82E3069
:103BC0002BE007F11C0297F82F301046194601F040
:103BD00085F80346002B14D097F82F1044F69C422A
:103BE000C2F200020B464FEA03135B184FEA43038D
:103BF000D3189B78002B04D04FF0010387F82E30A8
:103C000009E097F82F3003F1010387F82F3097F878
:103C10002F30092BD5D997F82E30184607F13007E9
:103C2000BD4680BD80B584B000AF78600FF042F92A
:103C30004FF00003BB734FF00003FB731EE0FB7BF0
:103C40007868194601F04AF80346002B12D0F97B38
:103C500044F69C42C2F200020B464FEA03135B1883
:103C60004FEA4303D3185B78022B03D14FF00103D3
:103C7000BB7306E0FB7B03F10103FB73FB7B092BAA
:103C8000DDD90FF00BF9BB7B184607F11007BD46D5
:103C900080BD00BF90B585B000AF0346FB71F979D8
:103CA00044F69C42C2F200020B464FEA03135B1833
:103CB0004FEA4303D3181B78002B19D0F97944F647
:103CC0009C42C2F200020B464FEA03135B184FEA14
:103CD0004303D31803F11003B3F805309CB2FFF788
:103CE000B9FD03469C4203D24FF00103FB7302E08F
:103CF0004FF00003FB73FB7B184607F11407BD462A
:103D000090BD00BF90B585B000AF0346FB71F97957
:103D100044F69C42C2F200020B464FEA03135B18C2
:103D20004FEA4303D3181B78002B19D0F97944F6D6
:103D30009C42C2F200020B464FEA03135B184FEAA3
:103D40004303D31803F11003B3F805309CB2FFF717
:103D500081FD03469C4203D34FF00103FB7302E055
:103D60004FF00003FB73FB7B184607F11407BD46B9
:103D700090BD00BF80B588B002AFF8607A600A4697
:103D8000FA72BB724FF00103BB754FF00003FB7575
:103D900067E1FB7DF868194600F0A0FF0346002BA1
:103DA00000F05B814FF00003BB75FA7D44F69C4147
:103DB000C2F2000113464FEA03139B184FEA430374
:103DC000CB1803F118031B7803F10103D8B244F6B2
:103DD0009C41C2F2000113464FEA03139B184FEABD
:103DE0004303CB1803F1180302461A70F97D44F619
:103DF0009C42C2F200020B464FEA03135B184FEAE3
:103E00004303D31803F11003FA7ADA71FA7D1346EB
:103E10004FEA03139B184FEA430303F1180244F6D9
:103E20009C43C2F20003D31803F104037A681168BB
:103E3000196012791A71BB7A002B10D0F97D44F603
:103E40009C42C2F200020B464FEA03135B184FEA92
:103E50004303D31803F1200397F820205A70F97D0B
:103E600044F69C42C2F200020B464FEA03135B1871
:103E70004FEA4303D3189B7883F00103DBB2002B96
:103E80006ED0F97D44F69C42C2F200020B464FEA26
:103E900003135B184FEA4303D31803F11003DB79D4
:103EA0005BB213F14F0F4BDBFA7D44F69C41C2F23B
:103EB000000113464FEA03139B184FEA4303CB1844
:103EC000DB7803F10103D8B244F69C41C2F2000151
:103ED00013464FEA03139B184FEA4303CB180246DD
:103EE000DA70F97D44F69C42C2F200020B464FEABA
:103EF00003135B184FEA4303D318DB78022B40F21D
:103F0000B580F97D44F69C42C2F200020B464FEAAE
:103F100003135B184FEA4303D3184FF00002DA7023
:103F2000F97D44F69C42C2F200020B464FEA0313AD
:103F30005B184FEA4303D3184FF001029A7095E0E3
:103F4000F97D44F69C42C2F200020B464FEA03138D
:103F50005B184FEA4303D3184FF00002DA7085E094
:103F6000F97D44F69C42C2F200020B464FEA03136D
:103F70005B184FEA4303D3189B78002B76D0F97D6A
:103F800044F69C42C2F200020B464FEA03135B1850
:103F90004FEA4303D31803F11003DB795BB213F14B
:103FA0005A0F4ADAFA7D44F69C41C2F200011346E8
:103FB0004FEA03139B184FEA4303CB18DB7803F156
:103FC0000103D8B244F69C41C2F2000113464FEA05
:103FD00003139B184FEA4303CB180246DA70F97DAE
:103FE00044F69C42C2F200020B464FEA03135B18F0
:103FF0004FEA4303D318DB78022B37D9F97D44F617
:104000009C42C2F200020B464FEA03135B184FEAD0
:104010004303D3184FF00002DA70F97D44F69C4256
:10402000C2F200020B464FEA03135B184FEA430348
:10403000D3184FF000029A7018E0F97D44F69C42C4
:10404000C2F200020B464FEA03135B184FEA430328
:10405000D3184FF00002DA7008E0FB7D03F1010392
:10406000FB75FB7D092B7FF694AE00E000BFBB7DA6
:10407000002B0AD097F90B20BB7A97F820100091FB
:10408000F86811467A6800F0B7FB07F11807BD46DB
:1040900080BD00BF80B586B000AFF8607B600B4686
:1040A000FB721346BB72F86808F006FD0346002B4E
:1040B00040F0EC804FF00003FB75E2E0FB7DF86818
:1040C000194600F00BFE0346002B00F0D680F97D68
:1040D00044F69C42C2F200020B464FEA03135B18FF
:1040E0004FEA4303D31803F118035B781A46FB7AAF
:1040F000C3F1FF039A4264DDFA7D44F69C41C2F2AB
:10410000000113464FEA03139B184FEA4303CB18F1
:1041100003F11803DB7803F10103D8B244F69C41A4
:10412000C2F2000113464FEA03139B184FEA430300
:10413000CB1803F118030246DA70F97DF87D44F6D6
:104140009C42C2F2000203464FEA03131B184FEAD7
:104150004303D31803F118035B784FEA5303D8B233
:1041600044F69C42C2F200020B464FEA03135B186E
:104170004FEA4303D31803F1180302465A70F97D3E
:10418000F87D44F69C42C2F2000203464FEA031354
:104190001B184FEA4303D31803F118039B784FEA27
:1041A0005303D8B244F69C42C2F200020B464FEAD7
:1041B00003135B184FEA4303D31803F118030246B5
:1041C0009A70F97DF87D44F69C42C2F200020346E3
:1041D0004FEA03131B184FEA4303D31803F11803E4
:1041E0005A78FB7AD318D8B244F69C42C2F2000245
:1041F0000B464FEA03135B184FEA4303D31803F14E
:10420000180302465A70BB7A002B41D0FA7D44F65F
:104210009C41C2F2000113464FEA03139B184FEA78
:104220004303CB1803F118039B7803F10103D8B2C1
:1042300044F69C41C2F2000113464FEA03139B1857
:104240004FEA4303CB1803F1180302469A70FA7D34
:1042500013464FEA03139B184FEA430303F1180276
:1042600044F69C43C2F20003D31803F104037A68B6
:104270001168196012791A710AE0FB7D03F10103DC
:10428000FB75FB7D092B7FF619AF02E000BF00E054
:1042900000BF07F11807BD4680BD00BF90B585B0CF
:1042A00000AF78607B684FF00D025A707B685A68E7
:1042B00044F69C43C2F20003C3F858217B6803F123
:1042C0003803184600F000FC0346002B00F0B180D4
:1042D0004FF00003FB73A8E07B6803F13802FB7B1F
:1042E0001046194600F0FAFC0346002B00F09980B6
:1042F00044F69C43C2F20003D3F858315B8898B26D
:10430000F97B44F69C42C2F200020B464FEA0313CB
:104310005B184FEA4303D31803F11003B3F80530D9
:104320009BB2984263D944F69C43C2F20003D3F88F
:1043300058315B889BB21846F97B44F69C42C2F226
:1043400000020B464FEA03135B184FEA4303D318EE
:1043500003F11003B3F805309BB2C31AB3F5F05F55
:1043600045DDF97BF87B44F69C42C2F2000203462D
:104370004FEA03131B184FEA4303D31803F110034A
:10438000B3F805309BB203F5F05398B244F69C4263
:10439000C2F200020B464FEA03135B184FEA4303D5
:1043A000D31803F110030246A3F8052044F69C43FA
:1043B000C2F20003D3F858315B889CB2F97B44F613
:1043C0009C42C2F200020B464FEA03135B184FEA0D
:1043D0004303D31803F11003B3F805309BB24FF039
:1043E0000D004FF0100122460AF0B4F921E0F97BEC
:1043F00044F69C43C2F20003D3F858315B8898B26C
:1044000044F69C42C2F200020B464FEA03135B18CB
:104410004FEA4303D31803F110030246A3F8052023
:1044200007E0FB7B03F10103FB73FB7B092B7FF6AA
:1044300053AF00F03BF807F11407BD4690BD00BF35
:1044400080B582B000AF786013460A46FA70BB7040
:10445000FB78022B1AD17B6803F10101BA7813466D
:104460004FEA03139B184FEA430344F69C42C2F2FF
:1044700000029B1803F105020B461168526819608F
:104480005A607B684FF002021A700BE0FB789BB217
:104490004FF00D004FF031011A464FF001030AF0C2
:1044A00071F900BF07F10807BD4680BD90B585B022
:1044B00000AF07F053FB0346002B08D044F69C43A3
:1044C000C2F200034FF00002A3F85421E9E044F6E1
:1044D0009C43C2F200034FF6FF72A3F854214FF041
:1044E0000003BB724FF00003FB724FF00003FB733D
:1044F000A3E0F97B44F69C42C2F200020B464FEA6D
:1045000003135B184FEA4303D3181B78002B00F00A
:104510009080F97B44F69C42C2F200020B464FEABF
:1045200003135B184FEA4303D3184FF000025A708D
:10453000F97B44F69C42C2F200020B464FEA031399
:104540005B184FEA4303D31803F118039B78002B41
:1045500003D14FF4F053BB813AE0F97B44F69C421F
:10456000C2F200020B464FEA03135B184FEA430303
:10457000D31803F118035B78184610F0EBFB0446E0
:10458000F97B44F69C42C2F200020B464FEA031349
:104590005B184FEA4303D31803F118039B781846BE
:1045A00010F0D8FB03462046194610F0DFFC034606
:1045B0001846194610F01EFB034618464FF0874177
:1045C00010F020FC0346184610F06CFD0346BB813A
:1045D000F97B44F69C42C2F200020B464FEA0313F9
:1045E0005B184FEA4303D31803F11003B3F8053007
:1045F0009BB21A46BB89D3187B6044F69C43C2F237
:104600000003B3F854311A467B689A4211D97A688C
:104610004FF6FE739A420CD87B689AB244F69C43DC
:10462000C2F20003A3F854214FF00103BB72FB7BDD
:10463000FB72FB7B03F10103FB73FB7B092B7FF612
:1046400058AFBB7A002B2CD0F97A44F69C42C2F2C8
:1046500000020B464FEA03135B184FEA4303D318DB
:104660004FF002025A70F97A44F69C42C2F20002FC
:104670000B464FEA03135B184FEA4303D3184FF07E
:1046800001029A70F97A44F69C42C2F200020B468B
:104690004FEA03135B184FEA4303D3184FF00002AD
:1046A000DA7007F11407BD4690BD00BF80B582B037
:1046B00000AF4FF00003FB7130E0F97944F69C4203
:1046C000C2F200020B464FEA03135B184FEA4303A2
:1046D000D3181B78002B1DD0FA7913464FEA031329
:1046E0009B184FEA430303F1180244F69C43C2F2BD
:1046F0000003D31803F104031846FEF703FD034635
:10470000BB80BA8840F61D139A4203D9FB7918463C
:1047100000F0FEF9FB7903F10103FB71FB79092B32
:10472000CBD907F10807BD4680BD00BFF0B58BB0FF
:1047300000AF44F69C43C2F2000393F8563103F1F4
:10474000010146F26763C6F2666383FB01234FEA09
:10475000A3024FEAE173D21A13464FEA83039B1870
:104760004FEA4303CA1AD2B244F69C43C2F2000392
:1047700083F8562144F69C43C2F2000393F8563165
:104780003B7144F69C43C2F2000393F8563119463C
:1047900044F69C42C2F200020B464FEA03135B1838
:1047A0004FEA4303D31807F1050203F12004114631
:1047B0001846D0F800E046688568C068C1F800E097
:1047C0004E608D60C86003F1100302F11002A34235
:1047D000EDD11B88138007F104034FF0090019463F
:1047E0004FF0230209F09EFE4FF00103184607F137
:1047F0002C07BD46F0BD00BFB0B586B000AFF86075
:104800007A600A46FA72BB72FB681B78022B0BD0E7
:10481000FB681B784FF00D004FF031011A464FF046
:10482000020309F0AFFF4BE1F86800F04DF90346D1
:1048300083F00103DBB2002B00F042814FF0000354
:10484000FB7529E1F97D44F69C42C2F200020B4659
:104850004FEA03135B184FEA4303D3181B7883F026
:104860000103DBB2002B00F01381F97D44F69C427A
:10487000C2F200020B464FEA03135B184FEA4303F0
:10488000D3184FF001021A70F97D44F69C42C2F22F
:1048900000020B464FEA03135B184FEA4303D31899
:1048A0004FF000025A70F97D44F69C42C2F20002B9
:1048B0000B464FEA03135B184FEA4303D3184FF03C
:1048C00001029A70F97D44F69C42C2F200020B4646
:1048D0004FEA03135B184FEA4303D3184FF000026B
:1048E000DA70FA7D13464FEA03139B184FEA43032D
:1048F00044F69C42C2F200029B1803F10403FA68DA
:10490000156854689068D1681D605C609860D960D3
:10491000127C1A74F97D44F69C42C2F200020B46E6
:104920004FEA03135B184FEA4303D31803F1100354
:104930004FF0FF325A714FF0FF329A71F97D44F611
:104940009C42C2F200020B464FEA03135B184FEA87
:104950004303D31803F11003FA7ADA71F97D44F6B0
:104960009C42C2F200020B464FEA03135B184FEA67
:104970004303D31803F118034FF001021A70F97DB5
:1049800044F69C42C2F200020B464FEA03135B1846
:104990004FEA4303D31803F118034FF000025A7093
:1049A000F97D44F69C42C2F200020B464FEA031323
:1049B0005B184FEA4303D31803F118034FF00002CA
:1049C0009A70FA7D13464FEA03139B184FEA43038C
:1049D00003F1180244F69C43C2F20003D31803F11A
:1049E00004037A681168196012791A71BB7A002B76
:1049F00010D0F97D44F69C42C2F200020B464FEA09
:104A000003135B184FEA4303D31803F1200397F80D
:104A100028205A704FF000037B754FF00003BB75E0
:104A200015E0B97D44F69C42C2F200020B464FEA03
:104A300003135B184FEA4303D3185B78022B02D1B0
:104A40004FF001037B75BB7D03F10103BB75BB7D9B
:104A5000092BE6D97B7D83F00103DBB2002B20D04C
:104A600007F07CF8034683F00103DBB2002B18D07B
:104A7000F97D44F69C42C2F200020B464FEA031352
:104A80005B184FEA4303D3184FF002025A7008E054
:104A9000FB7D03F10103FB75FB7D092B7FF6D2AE95
:104AA00000E000BFFB7D0A2B0AD14FF00D004FF054
:104AB00014014FF00A024FF0000309F04BFE00BF53
:104AC00007F11807BD46B0BD80B584B000AF78606F
:104AD0004FF00003FB734FF00003FB730EE0FB7B12
:104AE0007868194600F0FAF80346002B02D04FF020
:104AF000010308E0FB7B03F10103FB73FB7B092B44
:104B0000EDD94FF00003184607F11007BD4680BDF0
:104B100080B483B000AF0346FB71F97944F69C4240
:104B2000C2F200020B464FEA03135B184FEA43033D
:104B3000D3184FF000021A70F97944F69C42C2F281
:104B400000020B464FEA03135B184FEA4303D318E6
:104B50004FF000025A70F97944F69C42C2F200020A
:104B60000B464FEA03135B184FEA4303D3184FF089
:104B700000029A70F97944F69C42C2F200020B4698
:104B80004FEA03135B184FEA4303D3184FF00002B8
:104B9000DA70F97944F69C42C2F200020B464FEA01
:104BA00003135B184FEA4303D3184FF000021A7146
:104BB000F97944F69C42C2F200020B464FEA031315
:104BC0005B184FEA4303D31803F110034FF0FF3291
:104BD0005A714FF0FF329A71F97944F69C42C2F251
:104BE00000020B464FEA03135B184FEA4303D31846
:104BF00003F110034FF00002DA71F97944F69C4298
:104C0000C2F200020B464FEA03135B184FEA43035C
:104C1000D31803F118034FF000021A70F97944F623
:104C20009C42C2F200020B464FEA03135B184FEAA4
:104C30004303D31803F118034FF000025A70F979B7
:104C400044F69C42C2F200020B464FEA03135B1883
:104C50004FEA4303D31803F118034FF000029A7090
:104C6000F97944F69C42C2F200020B464FEA031364
:104C70005B184FEA4303D31803F118034FF0000207
:104C8000DA714FF000021A72F97944F69C42C2F2CE
:104C900000020B464FEA03135B184FEA4303D31895
:104CA00003F118034FF000025A714FF000029A719D
:104CB000F97944F69C42C2F200020B464FEA031314
:104CC0005B184FEA4303D31803F118034FF00002B7
:104CD0001A7107F10C07BD4680BC704780B582B0E1
:104CE00000AF78600B46FB707B681B78022B2CD1E1
:104CF000F97844F69C42C2F200020B464FEA0313D5
:104D00005B184FEA4303D3181B78002B17D0FA78AF
:104D100013464FEA03139B184FEA430344F69C42A1
:104D2000C2F200029B1803F104037868194607F0E9
:104D3000B7FF0346002B02D04FF0010301E04FF014
:104D4000000303F00103DBB20CE07B681B784FF03B
:104D50000D004FF031011A464FF0030309F012FD28
:104D60004FF00003184607F10807BD4680BD00BF9D
:104D700080B584B000AF78600B46FB7078684FF068
:104D8000020108F0A7F8FB789BB24FEA43139BB2ED
:104D9000BB81BB8943F003039BB2BB817B685B682B
:104DA000BA89D2B21A707B685B6803F10103BA89D1
:104DB0004FEA122292B2D2B21A7007F11007BD4622
:104DC00080BD00BF80B584B000AF78604FF00003B5
:104DD000FB7378684FF0060108F07CF87B685A682E
:104DE0007B681A66FB7B03F10603FB7378684FF060
:104DF000020108F06FF84FF4C063BB81BB8943F038
:104E000034039BB2BB817B685B68BA89D2B21A70EB
:104E10007B685B6803F10103BA894FEA122292B200
:104E2000D2B21A70FB7B03F10203FB73FB7B1846C3
:104E300007F11007BD4680BD80B584B000AF786033
:104E40004FF00003FB734FF00003FB724FF00603BB
:104E5000BB814FF0E003FB722FE078684FF0050153
:104E600008F038F87B685B68BA89D2B21A707B6840
:104E70005B6803F10103BA894FEA122292B2D2B2FF
:104E80001A707B685B6803F102034FF000021A702E
:104E90007B685B6803F103034FF000021A707B68C4
:104EA0005B6803F10403FA7A1A70FB7B03F10503D4
:104EB000FB73BB8903F1FF33BB81BB89012BCCD8CA
:104EC0004FF0F003FB7278684FF0050108F002F82C
:104ED0007B685B684FF001021A707B685B6803F1C6
:104EE00001034FF000021A707B685B6803F1020354
:104EF0004FF000021A707B685B6803F103034FF008
:104F000000021A707B685B6803F10403FA7A1A7076
:104F1000FB7B03F10503FB7378684FF0050107F095
:104F2000D9FF7B685B684FF001021A707B685B6891
:104F300003F101034FF001021A707B685B6803F113
:104F400002034FF065021A707B685B6803F103038C
:104F50004FF000021A707B685B6803F104034FF0A6
:104F600006021A70FB7B03F10503FB7378684FF0B0
:104F7000020107F0AFFFFB7B9BB24FEA03239BB21A
:104F80003B813B8943F036039BB23B817B685B6886
:104F90003A89D2B21A707B685B6803F101033A89DF
:104FA0004FEA122292B2D2B21A70FB7B03F10203D3
:104FB000FB73FB7B184607F11007BD4680BD00BFA1
:104FC00080B584B000AF78600B46FB704FF00003F3
:104FD000FB7378684FF0010107F07CFF7B685B682A
:104FE000FA781A70FB7B03F10103FB7378684FF0CA
:104FF000020107F06FFFFB7B9BB24FEA03239BB2DA
:10500000BB81BB8943F082039BB2BB817B685B6839
:10501000BA89D2B21A707B685B6803F10103BA895E
:105020004FEA122292B2D2B21A70FB7B03F1020352
:10503000FB73FB7B184607F11007BD4680BD00BF20
:1050400080B584B000AF786013460A46FA70BB7032
:105050004FF00003FB7378684FF0010107F03AFF4F
:105060007B685B68FA781A70FB7B03F10103FB73C2
:1050700078684FF0010107F02DFF7B685B68BA7814
:105080001A70FB7B03F10103FB7378684FF0020198
:1050900007F020FFFB7B9BB24FEA03239BB2BB814F
:1050A000BB8943F084039BB2BB817B685B68BA8990
:1050B000D2B21A707B685B6803F10103BA894FEAC8
:1050C000122292B2D2B21A70FB7B03F10203FB737D
:1050D000FB7B184607F11007BD4680BD80B584B044
:1050E00000AF7860F970BA707B704FF00003BB734B
:1050F0004FF000037B734FF00003FB7347E0FA7B34
:1051000013464FEA83039B18BA69D3181B79002B07
:1051100039D078684FF0050107F0DCFEFA7B1346C2
:105120004FEA83039B18BA69D3181B889AB27B682D
:105130005B681046194608F0FFF8FA7B13464FEA01
:1051400083039B18BA69D3185B889AB27B685B6843
:1051500003F102031046194608F0EEF87B685B681D
:1051600003F10401FA7B13464FEA83039B18BA69E3
:10517000D3181B790B70BB7B03F10503BB737B7BDF
:1051800003F101037B73FB7B03F10103FB73FB7BE7
:10519000022BB4D97B687A7B83F85C207B685A68E1
:1051A0007B689A6578684FF0010107F093FE4FF035
:1051B00000033B737B7B4FEA4303DAB23B7B134331
:1051C000DBB23B733A7B7B7813433B737B685B6852
:1051D0003A7B1A70BB7B03F10103BB7378684FF015
:1051E000010107F077FEBB783B737B685B683A7B15
:1051F0001A70BB7B03F10103BB737B68BA7883F839
:105200005D2078684FF0010107F064FEBB7B3B73C3
:105210007B685B683A7B1A70BB7B03F10103BB734D
:1052200078684FF0010107F055FEFB783B737B680F
:105230005B683A7B1A70BB7B03F10103BB73786830
:105240004FF0020107F046FEBB7B9BB24FEA0323FF
:105250009BB23B813B8943F088039BB23B817B68D7
:105260005B683A89D2B21A707B685B6803F101030C
:105270003A894FEA122292B2D2B21A70BB7B03F182
:105280000203BB73BB7B184607F11007BD4680BD08
:1052900080B487B000AF786039603B681B787B755D
:1052A0007B685A687B7DD3181B783B757B7D03F147
:1052B00001037B754FF00003FB7585E07B685A683E
:1052C0007B7DD3181B783B747B7D03F101037B75D9
:1052D0007B685A687B7DD3181B78A7F811307B7DDB
:1052E00003F101037B75B7F811309BB29AB27B686A
:1052F00059687B7DCB181B784FEA03239BB213437D
:105300009BB29BB2A7F811307B7D03F101037B7543
:105310007B685A687B7DD3181B78FB747B7D03F117
:1053200001037B754FF00003BB7545E07B685A684D
:105330007B7DD3181B783B817B7D03F101037B755B
:105340003B899AB27B6859687B7DCB181B784FEA02
:1053500003239BB213439BB29BB23B817B7D03F142
:1053600001037B757B685A687B7DD3181B787B8132
:105370007B7D03F101037B757B899AB27B68596859
:105380007B7DCB181B784FEA03239BB213439BB260
:105390009BB27B817B7D03F101037B757B685A683F
:1053A0007B7DD3181B783B737B7D03F101037B75F9
:1053B000BB7D03F10103BB75FB7CBA7D9A42B5D37B
:1053C000FB7D03F10103FB75FA7D3B7D9A42FFF4FF
:1053D00075AF3B687A7D1A7007F11C07BD4680BC2B
:1053E000704700BF80B487B000AFF860B9607A60E2
:1053F000BB681B78FB75FB685A68FB7DD3181A786D
:105400007B681A70FB7D03F10103FB75BB68FA7DB5
:105410001A7007F11C07BD4680BC704780B487B086
:1054200000AFF860B9607A60BB681B78FB75FB68F9
:105430005A68FB7DD3181A787B681A70FB7D03F1DC
:105440000103FB75FB685A68FB7DD3181A787B68EB
:105450005A70FB7D03F10103FB75BB68FA7D1A707E
:1054600007F11C07BD4680BC704700BF80B487B001
:1054700000AFF860B9607A60BB681B78BB75FB68E9
:105480005A68BB7DD3181A787B681A70BB7D03F10C
:105490000103BB75FB685A68BB7DD3181A787B681B
:1054A0005A70BB7D03F10103BB75FB685A68BB7D75
:1054B000D3181A787B689A70BB7D03F10103BB7522
:1054C000FB685A68BB7DD3181B787B757B7D4FEAE0
:1054D0005303DAB27B68DA707B7D03F0FE03002BA6
:1054E0000CBF00230123DAB27B681A71BB7D03F184
:1054F0000103BB757B68DB78032B00F290804FF0D3
:105500000003FB7581E0FA7DFB685968BB7DCB1811
:105510001B784FEA032399B2786813464FEA830356
:105520009B18C3180A46A3F80520BB7D03F10103AD
:10553000BB75FA7DF97D78680B464FEA83035B18EB
:10554000C318B3F8053099B2FB685868BB7DC3181F
:105550001B780B4399B2786813464FEA83039B1874
:10556000C3180A46A3F80520BB7D03F10103BB75F0
:10557000FA7DFB685968BB7DCB181B784FEA032383
:1055800099B2786813464FEA83039B18C3180A46FA
:10559000A3F80720BB7D03F10103BB75FA7DF97DFC
:1055A00078680B464FEA83035B18C318B3F80730DB
:1055B00099B2FB685868BB7DC3181B780B4399B23E
:1055C000786813464FEA83039B18C3180A46A3F86A
:1055D0000720BB7D03F10103BB75FA7DFB685968A9
:1055E000BB7DCB181978786813464FEA83039B1864
:1055F000C31803F109030A461A70BB7D03F10103C6
:10560000BB75FB7D03F10103FB757B68DB78FA7DDD
:105610009A42FFF478AFBB68BA7D1A7000E000BF11
:1056200007F11C07BD4680BC704700BF80B588B03D
:1056300002AF44F6F850C2F200004FF000014FF400
:10564000A8720FF059FE4FF00003FB7512E0FA7DCF
:1056500013464FEAC3039B184FEA830344F6F852FC
:10566000C2F200029B18184600F006FDFB7D03F114
:105670000103FB75FB7D082BE9D944F6F853C2F210
:1056800000034FF0010283F84A214FF00B0000F0B5
:1056900087F94FF00003BB823B4618464FF00001EC
:1056A0004FF011020FF028FE4FF000037B704FF017
:1056B0001103BB704FF02203FB704FF033033B71BB
:1056C0004FF044037B714FF05503BB714FF06603FD
:1056D000FB714FF077033B724FF002033B70BB8AC4
:1056E0003A46009218464FF002014FF000024FF088
:1056F000000300F0ADF9BB8A03F10103BB823B4616
:1057000018464FF000014FF011020FF0F5FD4FF079
:105710000003FB7513E0BB8A3A46009218464FF02F
:1057200003014FF000024FF0000300F091F9BB8A33
:1057300003F10103BB82FB7D03F10103FB75FB7DDC
:10574000072BE8D907F11807BD4680BDB0B588B072
:1057500000AF44F6F853C2F2000393F84C3103F162
:10576000010148F63963C3F6E30383FB01234FEAE3
:1057700063024FEAE173D21A13464FEAC3039B1840
:10578000CA1AD2B244F6F853C2F2000383F84C218D
:1057900044F6F853C2F2000393F84C313B7044F6E0
:1057A000F853C2F2000393F84C31194644F6F8520C
:1057B000C2F200020B464FEAC3035B184FEA8303B1
:1057C000D3181B88A7F8013044F6F853C2F200033F
:1057D00093F84C31194644F6F852C2F200020B46D7
:1057E0004FEAC3035B184FEA8303D3189B78FB701F
:1057F00044F6F853C2F2000393F84C31194644F6CC
:10580000F852C2F200020B464FEAC3035B184FEA9C
:105810008303D318DB783B7144F6F853C2F20003DC
:1058200093F84C31194644F6F852C2F200020B4686
:105830004FEAC3035B184FEA8303D3181B797B71CC
:1058400044F6F853C2F2000393F84C311A4613465B
:105850004FEAC3039B184FEA830344F6F852C2F29F
:1058600000029B1803F1050207F10603156854684E
:105870009068D1681D605C609860D960127C1A7471
:1058800044F6F853C2F2000393F84C31194644F63B
:10589000F852C2F200020B464FEAC3035B184FEA0C
:1058A0008303D31803F110039B79FB7544F6F85377
:1058B000C2F2000393F84C31194644F6F852C2F292
:1058C00000020B464FEAC3035B184FEA8303D31869
:1058D00003F11003DB793B7644F6F853C2F2000380
:1058E00093F84C31194644F6F852C2F200020B46C6
:1058F0004FEAC3035B184FEA8303D31803F118037D
:105900001B787B7644F6F853C2F2000393F84C31CF
:105910001A4613464FEAC3039B184FEA830303F169
:10592000180244F6F853C2F20003D31803F101023F
:1059300007F11A031168196012791A713B464FF08A
:10594000060019464FF01F0208F0ECFD4FF001036E
:10595000184607F12007BD46B0BD00BF80B582B034
:1059600000AF44F6F853C2F2000393F84A313B719A
:1059700044F6F853C2F2000393F84B317B7107F100
:1059800004034FF0070019464FF0020208F0CAFD69
:105990004FF00103184607F10807BD4680BD00BF60
:1059A00080B582B000AF0346FB800DF083FA44F669
:1059B000F853C2F20003FA88A3F848210DF06EFAFA
:1059C00007F10807BD4680BD80B586B000AF03462D
:1059D000B9607A60FB8144F6F853C2F200037B6140
:1059E0001FE07B6903F10503B868194607F058F911
:1059F0000346002B11D07B691B88FA899A420CD18F
:105A00007B699A787B681A727B69DA787B685A724C
:105A10007B691A797B681A7313E07B6903F12403AD
:105A20007B617A69094B9A42DBD97B684FF00002AF
:105A30001A727B684FF000025A727B684FF00002C6
:105A40001A7307F11807BD4680BD00BF184F00202C
:105A500080B586B000AFF88079713A71FB700DF0B7
:105A600029FA44F6F853C2F200037B6103E07B6934
:105A700003F124037B617B699B78002B03D07A6957
:105A80003E4B9A42F3D97A693C4B9A420ED90DF0BB
:105A900005FA4FF00E004FF017014FF000024FF0E3
:105AA000000308F06FFE4FF0010362E07B69FA88A3
:105AB0001A807B697A799A707B693A79DA707B69A6
:105AC000FA781A717B6903F105031846396A4FF0B9
:105AD00011020FF063FB44F6F853C2F20003D3F84F
