:020000040020DA
:10000000004C0020C11B2100A51B2100B11B2100B9
:10001000B91B2100B91B2100B91B21000000000001
:10002000000000000000000000000000B91B2100DB
:10003000B91B210000000000B91B2100B91B2100E1
:10004000B91B2100B91B2100B91B2100B91B2100DC
:1000500000000000B91B2100B91B2100B91B2100C1
:10006000B91B21000000000000000000000000009B
:100070000000000000000000B91B2100000000008B
:100080000000000000000000B91B2100B91B210086
:10009000B91B2100B91B2100B91B2100B91B21008C
:1000A000B91B2100B91B2100B91B2100B91B21007C
:1000B000B91B2100B91B2100B91B2100B91B21006C
:1000C000B91B2100B91B2100B91B2100B91B21005C
:1000D000B91B21000000000000000000000000002B
:1000E0000000000000000000000000000000000010
:1000F000B91B210000000000B91B2100B91B210021
:1001000000000000000000000000000000000000EF
:1001100000000000000000000000000000000000DF
:1001200000000000000000000000000000000000CF
:1001300000000000000000000000000000000000BF
:1001400000000000000000000000000000000000AF
:10015000000000000000000000000000000000009F
:10016000000000000000000000000000000000008F
:10017000000000000000000000000000000000007F
:10018000000000000000000000000000000000006F
:10019000000000000000000000000000000000005F
:1001A000000000000000000000000000000000004F
:1001B000000000000000000000000000000000003F
:1001C000000000000000000000000000000000002F
:1001D000000000000000000000000000000000001F
:1001E000000000000000000000000000000000000F
:1001F00000000000000000000000000000000000FF
:1002000000000000000000000000000000000000EE
:1002100000000000000000000000000000000000DE
:1002200000000000000000000000000000000000CE
:1002300000000000000000000000000000000000BE
:1002400000000000000000000000000000000000AE
:10025000000000000000000000000000000000009E
:10026000000000000000000000000000000000008E
:10027000B91B2100B91B2100B91B2100B91B2100AA
:10028000B91B2100B91B2100B91B210080B500AFAB
:100290000FF0ECFD0DF08AFF00F006F80DF09EFF68
:1002A0004FF00003184680BD80B500AF0EF042F855
:1002B0000BF0AAFB0BF018FE0CF040FA0EF0BAFEA1
:1002C00002F02CFF00F026F805F056F905F0BCFE10
:1002D00003F042FA07F0E8FF07F022F908F0D6F839
:1002E00008F074FC08F0F2FC08F090FE09F060FFE2
:1002F0000BF018FA09F06EFB0DF03AFB4FF001001D
:100300004FF035014FF000024FF000030EF0B2F94C
:1003100080BD00BF80B500AF44F60040C2F20000CF
:100320004FF000014FF04C0215F01EF844F65C400F
:10033000C2F200004FF000014FF0140215F014F863
:100340000BF0B2FB0346002B04D04FF0010002F08B
:1003500027FA03E04FF0000002F022FA02F08CFAD4
:1003600044F64C43C2F200034FF000029A7144F687
:100370000043C2F200034FF0000283F8452044F628
:100380000043C2F200034FF0000283F8442010F053
:100390003DFE40F21D40C0F2200010F071FD40F221
:1003A0008140C0F2200010F077FD40F27D60C0F285
:1003B000200010F07DFD40F2B170C0F2200010F07E
:1003C00087FD40F2AE704FF000014FF0010240F6A1
:1003D000AD03C0F220030EF0B1FE03461A4644F608
:1003E0000043C2F2000383F846204FF4FA604FF056
:1003F00000014FF0000240F6F103C0F220030EF0BE
:100400009DFE03461A4644F60043C2F2000383F8F9
:10041000472041F69A1010F0A5FD80BD80B500AFD1
:1004200041F69A1010F0B2FD44F60043C2F2000308
:1004300093F84530002B02D101F044F812E044F665
:100440000043C2F2000393F845301A4644F65C4379
:10045000C2F200031B699BB24FF009004FF040014C
:100460000EF008F944F65C43C2F200031B6903F185
:10047000010244F65C43C2F200031A6180BD00BF72
:1004800080B500AF44F60043C2F2000393F8453054
:10049000012B71D144F60043C2F200035B7CA3F14F
:1004A0002A030F2B53D801A252F823F0ED042000A9
:1004B000F3042000F9042000FF04200005052000BB
:1004C0000B05200011052000170520001D05200048
:1004D00023052000290520002F05200035052000D8
:1004E0003B052000410520004705200001F022F8CF
:1004F000B6E001F047F8B3E001F05CF8B0E001F0DD
:100500006DF8ADE001F094F8AAE001F0A9F8A7E0D9
:1005100001F022FAA4E001F047FAA1E001F05CFA50
:100520009EE001F06DFA9BE001F094FA98E001F092
:100530002BFC95E001F036FD92E001F04BFD8FE0E1
:1005400001F05CFD8CE001F08FFD00BF88E044F617
:100550000043C2F200035B7C1A4644F65C43C2F2DD
:1005600000031B699BB24FF009004FF03B010EF0F6
:1005700097F802F0D3FA73E044F60043C2F20003A6
:1005800093F84530022B6BD144F60043C2F20003CE
:100590005B7CA3F11A030E2B4DD801A252F823F075
:1005A000DD052000E3052000E9052000EF0520001F
:1005B000F5052000FB0520000106200007062000AD
:1005C0000D06200013062000190620001F0620003B
:1005D000250620002B0620003106200000F0C0FA7E
:1005E0003EE000F0A3FB3BE000F0B4FB38E000F09D
:1005F000C5FB35E000F0F4FB32E000F03BFC2FE0FF
:1006000000F070FC2CE000F083FC29E000F094FC8A
:1006100026E000F0C5FC23E000F04EFD20E000F0F5
:1006200073FD1DE000F086FD1AE000F097FD17E075
:1006300000F0E4FD14E044F60043C2F200035B7CEA
:100640001A4644F65C43C2F200031B699BB24FF0AA
:1006500009004FF03B010EF023F802F05FFA00BFF3
:1006600044F65C43C2F200035B6803F1010244F606
:100670005C43C2F200035A6080BD00BF80B582B007
:1006800000AF786044F60043C2F2000393F84530AF
:10069000012B30D144F60043C2F200035B7CA3F18E
:1006A0002D030B2B73D801A252F823F0DD06200096
:1006B000DD0620008F0720008F0720008F07200015
:1006C000E5062000E50620008F0720008F072000A8
:1006D0008F0720008F072000ED062000786800F0CB
:1006E00083FF55E0786801F091F951E0786801F0F6
:1006F0009DFC00BF4CE044F60043C2F2000393F8B7
:100700004530022B44D144F60043C2F200035B7C27
:10071000A3F11D030A2B25D801A252F823F000BF34
:1007200055072000650720006507200065072000A9
:10073000650720005D072000650720006507200091
:10074000650720004D0720004D072000786800F065
:1007500037FD1DE0786800F025FB19E0786800F0AF
:1007600001FC15E044F60043C2F200035B7C1A462C
:1007700044F65C43C2F200031B699BB24FF00900D0
:100780004FF03E010DF08CFF02F0C8F900E000BF11
:1007900044F65C43C2F200039B6803F1010244F695
:1007A0005C43C2F200039A6007F10807BD4680BDB2
:1007B00080B582B000AF786044F60043C2F2000317
:1007C00093F84530012B2CD144F60043C2F20003CC
:1007D0005B7C342B07D0392B09D02E2B0CD17868B9
:1007E00000F052FF51E0786801F04CF94DE0786874
:1007F00001F052FC00BF48E044F60043C2F200039F
:100800005B7C1A4644F65C43C2F200031B699BB250
:100810004FF009004FF03F010DF042FF02F07EF96A
:1008200033E044F60043C2F2000393F84530022B54
:100830002BD144F60043C2F200035B7C232B07D08C
:10084000282B09D01E2B0BD1786800F0DDFA1CE0B4
:10085000786800F0BBFB18E0786800F0D5FC14E085
:1008600044F60043C2F200035B7C1A4644F65C4344
:10087000C2F200031B699BB24FF009004FF03F0129
:100880000DF00EFF02F04AF900BF44F65C43C2F2DD
:100890000003DB6803F1010244F65C43C2F200038B
:1008A000DA6007F10807BD4680BD00BF80B500AF24
:1008B00044F60043C2F2000393F84530002B02D106
:1008C00000F0B2F812E044F60043C2F2000393F8DD
:1008D00045301A4644F65C43C2F200031B699BB2E2
:1008E0004FF009004FF040010DF0C4FE80BD00BF85
:1008F000B0B58AB004AF4FF000037B704FF0110326
:10090000BB704FF02203FB704FF033033B714FF08D
:1009100044037B714FF05503BB714FF06603FB71CD
:100920004FF077033B724FF002033B7010F014F965
:100930003B4618460BF004FD0346002B6FD14FF0E9
:1009400009000BF03BFB78617B69002B0CD14FF069
:1009500009004FF02C014FF000024FF000030DF0A2
:100960009FFE02F0DBF85AE07B694FF00A021A7032
:100970007B694FF00A025A707B694FF0010283F8DD
:1009800049207B694FF07B0283F8ED207B6903F1FE
:1009900038031D463C460FCC28606960AA60EB60B6
:1009A00023782B747B694FF0030283F84B2044F6C5
:1009B0000043C2F2000393F844307A69194682F882
:1009C0004A1003F10103DAB244F60043C2F2000315
:1009D00083F844207B694FF0000283F84C207B6948
:1009E0004FF01F0283F867207B6993F849307A69DA
:1009F00092F84A107A6902F138024FF00000009034
:100A000001910292786919464FF000024FF00203FB
:100A10000CF0B2FC78694FF002010CF053FA07F1C8
:100A20001807BD46B0BD00BF80B586B000AF44F624
:100A30000043C2F200034FF0020283F8452001F0A8
:100A400099FD0FF039FD44F60043C2F20003DB8844
:100A5000002B01D10FF008FD44F60043C2F2000361
:100A60005B7C002B14D044F60043C2F200035B7C95
:100A70001A4644F65C43C2F200031B699BB24FF076
:100A800009004FF01E010DF00BFE02F047F862E086
:100A900005F0E2F80DF0BEFF05F01CF90346FB750A
:100AA00005F05EF90346002B10D007F10403184649
:100AB00005F026F907F1040318460BF041FC024645
:100AC00044F60043C2F200035A6106E044F60043D4
:100AD000C2F200034FF000025A6144F60043C2F232
:100AE00000035B69002B2ED0FB7D022B2BD14FF036
:100AF0001A0001F023FF44F60043C2F200035B6AD0
:100B00009BB203F5CE5303F114039AB244F60043AB
:100B1000C2F20003A3F8482044F60043C2F20003E7
:100B20005B6993F84C2002F10102D2B283F84C20A9
:100B300044F60043C2F200035B6A03F13A0318462D
:100B400010F004FF07E044F60043C2F200034FF048
:100B5000000283F8452007F11807BD4680BD00BF9D
:100B600080B586B000AF4FF01B0001F0E7FE44F601
:100B70000043C2F20003B3F8482044F60043C2F237
:100B800000035B6A9BB2D31A9AB244F60043C2F2E6
:100B90000003A3F84A2044F60043C2F20003DB6BD3
:100BA000002B7FD14FF009000BF008FA024644F603
:100BB0000043C2F20003DA6344F60043C2F20003CA
:100BC000DB6B002B0CD14FF009004FF02C014FF0E4
:100BD00000024FF000030DF063FD01F09FFFA0E065
:100BE00044F60043C2F20003DB6B4FF009021A70B7
:100BF00044F60043C2F20003DB6B4FF009025A7067
:100C000044F60043C2F20003DB6B4FF0050283F8A9
:100C1000492044F60043C2F20003DA6B44F6004375
:100C2000C2F2000393F84430194682F84A1003F1E7
:100C30000103DAB244F60043C2F2000383F8442011
:100C400007F10403184605F05BF83B79012B08D047
:100C50003B794FF008004FF019014FF001020DF001
:100C600009FD44F60043C2F20003D86B44F600438A
:100C7000C2F20003DB6B93F84A1044F60043C2F261
:100C80000003B3F84A3007F1040201F03BFA44F6DE
:100C90000043C2F20003DB6B18464FF002010CF078
:100CA00011F90EE044F60043C2F20003DB6B5B680F
:100CB00003F1080244F60043C2F20003B3F84A30DD
:100CC000138044F60043C2F20003DB6B5A6844F61B
:100CD0000043C2F20003DB6B1B7A1046194610F08A
:100CE000B5F910F003FA10F049F9024644F6004352
:100CF000C2F200031A6344F60043C2F200034FF04D
:100D0000010283F8382044F60043C2F200035B6A14
:100D100003F17C03184610F019FE4FF01C0001F09F
:100D20000DFE07F11807BD4680BD00BF80B500AFBE
:100D300044F60043C2F200035B7C1A4644F60043CB
:100D4000C2F20003DB884FF009004FF022010DF0E2
:100D5000A7FC80BD80B500AF4FF01D0001F0EEFD97
:100D600044F60043C2F200035B6A03F19D03184698
:100D700010F0ECFD10F0D0F980BD00BF80B500AFE1
:100D800044F60043C2F200035B7C1A4644F600437B
:100D9000C2F20003DB884FF009004FF027010DF08D
:100DA0007FFC80BD80B582B000AF786010F00EFE91
:100DB00044F60043C2F200037A685A624FF01E0004
:100DC00001F0BCFD44F60043C2F200035B6A03F18C
:100DD000A403184610F0BAFD07F10807BD4680BD10
:100DE00080B500AF44F60043C2F200035B7C1A46B4
:100DF00044F60043C2F20003DB884FF009004FF0D5
:100E000026010DF04DFC80BD80B582B000AF78604A
:100E100044F60043C2F200037A685A6244F6004383
:100E2000C2F20003B3F848301A4644F60043C2F257
:100E300000035B6AD21A44F60043C2F20003B3F81F
:100E40004A309A4204D24FF01A0001F077FD03E0D5
:100E50004FF01F0001F072FD44F60043C2F20003A0
:100E60005B6A03F13A03184610F070FD07F10807BA
:100E7000BD4680BD80B500AF4FF0200001F05EFDA3
:100E800044F60043C2F200035B695A6844F600432B
:100E9000C2F200035B691B7A1046194610F0D6F8BF
:100EA00010F024F910F06AF8024644F60043C2F24A
:100EB00000031A6344F60043C2F200034FF001023C
:100EC00083F8382044F60043C2F200035B6A03F162
:100ED0007C03184610F03AFD4FF0210001F02EFD82
:100EE00080BD00BF80B500AF44F60043C2F20003EE
:100EF0005B7C1A4644F60043C2F20003DB884FF0E5
:100F000009004FF022010DF0CBFB01F007FE80BD80
:100F100080B500AF4FF0220001F010FD44F6004311
:100F2000C2F200035B6A03F19D03184610F00EFD48
:100F300010F0F2F880BD00BF80B500AF44F600436A
:100F4000C2F200035B7C1A4644F60043C2F200037F
:100F5000DB884FF009004FF027010DF0A1FB01F0F5
:100F6000DDFD80BD80B582B000AF78604FF023001A
:100F700001F0E4FC10F02AFD44F60043C2F2000345
:100F80007A685A6244F60043C2F200035B6A03F1D6
:100F9000A403184610F0DAFC07F10807BD4680BD2F
:100FA00080B500AF44F60043C2F200035B7C1A46F2
:100FB00044F60043C2F20003DB884FF009004FF013
:100FC00026010DF06DFB01F0A9FD80BD90B585B047
:100FD00000AF78604FF0240001F0B0FC10F0F6FC98
:100FE00010F01AF844F60043C2F200035C6B0FF0F5
:100FF000C5FF024644F60043C2F200031B6BD31A3E
:10100000E21844F60043C2F200035A6344F6004378
:10101000C2F200037A685A6244F60043C2F2000347
:101020005B6903F1380318460BF0ECFC0346002B18
:1010300003D04FF00003FB7302E04FF00103FB739A
:1010400044F60043C2F200035B6993F84930012B78
:1010500015D144F60043C2F200035B695B780A2BAA
:101060000DD144F60043C2F200035B6993F8ED3002
:101070007B2B04D10FF0D6FC4FF00003FB73FB7BFE
:10108000002B0AD044F60043C2F200035B6A03F16E
:101090007D03184610F05AFC09E044F60040C2F205
:1010A00000004FF0010104F0DDFE01F037FD07F113
:1010B0001407BD4690BD00BF80B500AF4FF02500BE
:1010C00001F03CFC10F05AF80FF058FF024644F6CD
:1010D0000043C2F200031A6344F60043C2F2000365
:1010E0004FF0010283F8382044F60043C2F20003B7
:1010F0005B6A03F18703184610F028FC4FF02600C6
:1011000001F01CFC80BD00BF80B500AF44F6004379
:10111000C2F200035B7C1A4644F60043C2F20003AD
:10112000DB884FF009004FF023010DF0B9FA01F010
:10113000F5FC80BD80B500AF4FF0270001F0FEFB4D
:1011400010F032F844F60043C2F200035B6A03F188
:10115000A703184610F0FAFB80BD00BF80B500AFB2
:1011600044F60040C2F200004FF0000104F07AFEA5
:1011700044F60043C2F200035B6993F84B2002F18E
:10118000FF32D2B283F84B2044F60043C2F2000390
:101190005B6993F84B30002B07D044F60043C2F252
:1011A00000035B694FF00A025A7044F60043C2F232
:1011B00000034FF000025A6101F0B0FC80BD00BF97
:1011C00080B582B000AF78604FF0280001F0B6FB28
:1011D00010F0FCFB44F60043C2F200037A685A6246
:1011E00044F60043C2F200035B6A03F1620318464F
:1011F00010F0ACFB07F10807BD4680BD80B500AF1D
:1012000001F08CFC80BD00BFB0B596B002AF786035
:101210004FF0290001F092FB10F0D8FB0FF0FCFE1C
:1012200044F60043C2F200035C6B0FF0A7FE0246D7
:1012300044F60043C2F200031B6BD31AE21844F6D3
:101240000043C2F200035A6344F60043C2F20003B3
:101250007A685A624FF009000AF0B0FE024644F67E
:101260000043C2F200031A6244F60043C2F20003D4
:101270001B6A002B0CD14FF009004FF02C014FF0EE
:1012800000024FF000030DF00BFA01F047FC15E1EE
:1012900044F60043C2F200031B6A4FF009021A70C1
:1012A00044F60043C2F200031B6A4FF009025A7071
:1012B00044F60043C2F200031A6A44F60043C2F245
:1012C00000031B6A03F16C03536044F60043C2F24F
:1012D00000031B6A596844F60043C2F200031B6A0C
:1012E00003F1080244F60043C2F200031B6A03F153
:1012F000680444F60043C2F200031B6A03F169006C
:1013000044F60043C2F200031B6A03F16A03009033
:101310000193084611464FF0820223460FF068FF02
:1013200044F60043C2F200031B6A1B7A012B07D963
:1013300044F60043C2F200031B6A1B7A802B0ED9CD
:1013400044F60043C2F200031B6A1B7A4FF0090007
:101350004FF037014FF001020DF0A2F99DE044F685
:101360000043C2F200031B6A18464FF002010BF063
:10137000CBFD44F60043C2F200031B6A93F86A30C7
:1013800083F00103DBB2002B7ED144F60043C2F2AE
:1013900000031A6A07F11003104619460CF0ACF866
:1013A0003B7C83F00103DBB2002B6FD144F600439A
:1013B000C2F200031B6ABA7C83F8492044F600435A
:1013C000C2F200031B6A7A7E83F84A2044F6004387
:1013D000C2F200031B6A03F138031D4607F13C0407
:1013E0000FCC28606960AA60EB6023782B7444F608
:1013F0000043C2F200031A6A7B7C104619460BF0C8
:1014000039FD44F60043C2F200035B6907F11002A4
:101410001046194601F06EF8034683F00103DBB273
:10142000002B35D1FB7D83F00103DBB2002B31D1E2
:1014300044F60043C2F200031A6A07F10E03104695
:10144000194601F05BFC034683F00103DBB2002B7D
:1014500022D144F60043C2F200031A6AFB89DBB2D0
:10146000104619460BF006FD44F60040C2F200009B
:101470004FF0010104F0F6FC44F60043C2F2000311
:101480004FF000025A6108E000BF06E000BF04E030
:1014900000BF02E000BF00E000BF44F60043C2F21C
:1014A00000031B6A18460AF0EFFD44F60043C2F23F
:1014B00000034FF000021A6201F030FB07F1500701
:1014C000BD46B0BD80B500AF44F60043C2F2000394
:1014D0005B7C002B14D044F60043C2F200035B7C1B
:1014E0001A4644F65C43C2F200031B699BB24FF0FC
:1014F00009004FF03A010DF0D3F801F00FFB17E0AF
:101500000DF088FA4FF02A0001F018FA44F6004373
:10151000C2F200034FF0010283F8452044F6004375
:10152000C2F200035B6A03F13703184610F00EFAAB
:1015300080BD00BF80B500AF4FF02B0001F0FEF979
:101540000FF01CFE0FF01AFD024644F60043C2F2F3
:1015500000031A6344F60043C2F200034FF0010295
:1015600083F8382044F60043C2F200035B6A03F1BB
:101570005803184610F0EAF94FF02C0001F0DEF99C
:1015800080BD00BF80B500AF44F60043C2F2000347
:101590005B7C1A4644F65C43C2F200031B699BB2B3
:1015A0004FF009004FF03C010DF07AF801F0B6FA67
:1015B00080BD00BF80B500AF4FF02D0001F0BEF937
:1015C0000FF0F2FD44F60043C2F200035B6A03F140
:1015D000AE03184610F0BAF980BD00BF80B500AF69
:1015E00001F09CFA80BD00BF80B582B000AF78608A
:1015F0004FF02E0001F0A2F910F0E8F944F6004394
:10160000C2F200037A685A6244F60043C2F2000351
:101610007A689A6244F60043C2F200035B6A03F1FF
:10162000A403184610F092F907F10807BD4680BDE3
:1016300080B500AF44F60043C2F200035B7C1A465B
:1016400044F65C43C2F200031B699BB24FF00900F1
:101650004FF03D010DF024F801F060FA80BD00BFAD
:1016600080B500AF44F60043C2F200039B69184600
:101670000AF00AFD44F60043C2F200034FF00002F4
:101680009A6101F04BFA80BD90B59BB002AF7860D3
:101690004FF0000387F84D304FF0110387F84E30BC
:1016A0004FF0220387F84F304FF0330387F8503064
:1016B0004FF0440387F851304FF0550387F852300C
:1016C0004FF0660387F853304FF0770387F85430B4
:1016D0004FF0020387F84C304FF02F0001F02EF945
:1016E00010F074F90FF098FC4FF009000AF066FC56
:1016F000024644F60043C2F200031A6444F6004373
:10170000C2F200031B6C002B0CD14FF009004FF00C
:101710002C014FF000024FF000030CF0C1FF01F06C
:10172000FDF914E144F60043C2F200031B6C4FF0D4
:1017300009021A7044F60043C2F200031B6C4FF01A
:1017400009025A7044F60043C2F200031A6C44F6D0
:101750000043C2F200031B6C03F16C03536044F6B8
:101760000043C2F200031B6C596844F60043C2F206
:1017700000031B6C03F1080244F60043C2F20003AD
:101780001B6C03F1680444F60043C2F200031B6CB7
:1017900003F1690044F60043C2F200031B6C03F13D
:1017A0006A0300900193084611464FF082022346D7
:1017B0000FF0B2FD44F60043C2F200031B6C1B7A2B
:1017C000012B07D944F60043C2F200031B6C1B7ABD
:1017D000802B0ED944F60043C2F200031B6C1B7A27
:1017E0004FF009004FF037014FF002020CF058FFA4
:1017F0009CE044F60043C2F200031B6C18464FF015
:1018000002010BF081FB44F60043C2F200031B6CA3
:1018100093F86A3083F00103DBB2002B40F0838041
:1018200044F60043C2F20003196C07F10C0207F101
:101830000A03084611461A4600F0C8FC3B7B83F0B9
:101840000103DBB2002B70D1BB7B052B6ED107F1FE
:101850000C0303F11B0207F14C03104619460BF071
:10186000C5F90346002B34D04FF004000AF046F9C6
:10187000034607F10C0202F10A02104619460BF06A
:10188000B5F90346002B24D04FF0300001F056F894
:101890007B89002B0AD144F60043C2F200035B6A45
:1018A00003F13703184610F051F80BE044F60043FB
:1018B000C2F200035A6A7B89D31803F13703184632
:1018C00010F044F844F60043C2F200037A685A620A
:1018D0003DE04FF001000AF011F9034607F10C0258
:1018E00002F11B02104619460BF080F9034683F003
:1018F0000103DBB2002B19D04FF004000AF0FEF810
:10190000034607F10C0202F10A02104619460BF0D9
:101910006DF90346002B09D07B8903F5F673184651
:1019200010F014F813E000BF00E000BF44F60043DD
:10193000C2F200031B6C18460AF0A6FB44F60043F3
:10194000C2F200034FF000021A6401F0E7F807F159
:101950006407BD4690BD00BF80B500AF4FF03100B9
:1019600000F0ECFF0FF00AFC0FF008FB024644F613
:101970000043C2F200031A6344F60043C2F20003BC
:101980004FF0010283F8382044F60043C2F200030E
:101990005B6A03F1580318460FF0D8FF4FF032008E
:1019A00000F0CCFF80BD00BF80B500AF44F600431F
:1019B000C2F200035B7C1A4644F65C43C2F20003A9
:1019C0001B699BB24FF009004FF024010CF068FE38
:1019D00001F0A4F880BD00BF80B500AF4FF0330028
:1019E00000F0ACFF0FF0E0FB44F60043C2F200034E
:1019F0005B6A03F1AE0318460FF0A8FF80BD00BF7D
:101A000080B500AF01F08AF880BD00BF80B582B01C
:101A100000AF78604FF0340000F090FF0FF0D6FF79
:101A200044F60043C2F200037A685A6244F6004367
:101A3000C2F200037A689A6244F60043C2F20003DD
:101A40005B6A03F1A40318460FF080FF07F1080753
:101A5000BD4680BD80B500AF44F60043C2F200032E
:101A60005B7C1A4644F65C43C2F200031B699BB2DE
:101A70004FF009004FF026010CF012FE01F04EF875
:101A800080BD00BFB0B596B002AF78604FF00003E4
:101A9000FB814FF0350000F051FF0FF097FF0FF082
:101AA000BBFA44F60043C2F200035C6B0FF066FA27
:101AB000024644F60043C2F200031B6BD31AE2183D
:101AC00044F60043C2F200035A634FF009000AF0E3
:101AD00075FA024644F60043C2F200039A6144F6E6
:101AE0000043C2F200039B69002B0CD14FF00900A8
:101AF0004FF02C014FF000024FF000030CF0D0FD2E
:101B000001F00CF83CE144F60043C2F200039B698B
:101B10004FF009021A7044F60043C2F200039B69B9
:101B20004FF009025A7044F60043C2F200039A696A
:101B300044F60043C2F200039B6903F16C03536057
:101B400044F60043C2F200039B69596844F600431F
:101B5000C2F200039B6903F1080244F60043C2F29B
:101B600000039B6903F1680444F60043C2F20003DA
:101B70009B6903F1690044F60043C2F200039B69CC
:101B800003F16A0300900193084611464FF0820268
:101B900023460FF02DFB44F60043C2F200039B697D
:101BA0001B7A012B07D944F60043C2F200039B695C
:101BB0001B7A802B0ED944F60043C2F200039B69C6
:101BC0001B7A4FF009004FF037014FF002020CF082
:101BD00067FDC4E044F60043C2F200039B69184667
:101BE0004FF002010BF090F944F60043C2F20003FB
:101BF0009B6993F86A3083F00103DBB2002B40F05D
:101C0000A98044F60043C2F200039A6907F1100369
:101C1000104619460BF070FC3B7C83F00103DBB2ED
:101C2000002B40F0998044F60043C2F200039B6908
:101C3000BA7C83F8492044F60043C2F200039B6952
:101C40007A7E83F84A2044F60043C2F200039B697F
:101C5000FA7D83F8652044F60043C2F200039B69D5
:101C600003F138031D4607F13C040FCC286069607E
:101C7000AA60EB6023782B7444F60043C2F20003A1
:101C80009A697B7C104619460BF0F4F83B7C002BDC
:101C900022D0FB7D002B1FD0BB7C002B1CD14FF032
:101CA000040009F02BFF034607F1100202F10A02BB
:101CB000104619460AF09AFF0346002B0CD044F652
:101CC0000043C2F200039A6907F10E031046194659
:101CD00001F014F80346002B44F60043C2F200035F
:101CE0009A69FB89DBB2104619460BF0C3F844F63B
:101CF0000043C2F200037A685A6207F110031846E3
:101D000000F0BAFB034683F00103DBB2002B25D1C0
:101D10007B7D002B0AD044F60043C2F200035B6ACD
:101D200003F17A0318460FF011FE29E044F6004350
:101D3000C2F200039B6918464FF0010100F076FDE6
:101D400044F60043C2F200034FF000029A6100F033
:101D5000E5FE15E000BF02E000BF00E000BF44F672
:101D60000043C2F200039B6918460AF08DF944F65D
:101D70000043C2F200034FF000029A6100F0CEFE71
:101D800007F15007BD46B0BD90B587B004AF4FF026
:101D9000360000F0D3FD4FF009000AF00FF90246BB
:101DA00044F60043C2F20003DA6144F60043C2F293
:101DB0000003DB69002B1DD14FF009004FF02C010F
:101DC0004FF000024FF000030CF06AFC44F60043B1
:101DD000C2F200039B6918464FF0020100F026FD95
:101DE00044F60043C2F200034FF000029A6100F093
:101DF00095FED3E044F60043C2F20003DB694FF0E6
:101E000009021A7044F60043C2F20003DB694FF086
:101E100009025A7044F60043C2F200039B6AA3F120
:101E200083037B6044F60043C2F20003DB6918467B
:101E30004FF002010AF0F4FF7B68C3F100037B60FE
:101E40007A6813464FEA03139B1A4FEA43037B60F9
:101E500044F60043C2F20003DB695B687A68D2B2E1
:101E60001A7044F60043C2F20003DB695B6803F1B9
:101E700001037A6892B24FEA122292B2D2B21A7079
:101E800044F60043C2F20003DB6918464FF002013A
:101E90000AF0C6FF40F23C433B8044F60043C2F2E6
:101EA0000003DB695B683A4612881A8044F60043F7
:101EB000C2F20003DB694FF0020283F8492044F6C6
:101EC0000043C2F20003DA6944F60043C2F20003A1
:101ED0009B6993F84A3082F84A3044F60043C2F2D4
:101EE0000003D96944F60043C2F20003DB6993F8AA
:101EF000492044F60043C2F200039B6993F84A006C
:101F000044F60043C2F200039B6903F138034FF02B
:101F10000004009401900293084611464FF001021C
:101F20004FF002030BF028FA44F60043C2F200031C
:101F3000DB6918464FF002010AF0C4FF44F6004383
:101F4000C2F20003DB695A6844F60043C2F20003A0
:101F5000DB691B7A104619460FF078F80FF0C6F8C7
:101F60000FF00CF8024644F60043C2F200031A6375
:101F700044F60043C2F200034FF0010283F8382018
:101F800044F60043C2F200035B6A03F19003184673
:101F90000FF0DCFC4FF0370000F0D0FC07F10C072D
:101FA000BD4690BD80B500AF44F60043C2F20003C9
:101FB0005B7C1A4644F65C43C2F200031B699BB289
:101FC0004FF009004FF025010CF06AFB00F0A6FD70
:101FD00080BD00BF80B500AF4FF0380000F0AEFC10
:101FE00044F60043C2F200035B6A03F1B1031846F2
:101FF0000FF0ACFC0FF090F880BD00BF80B500AFD3
:1020000044F60043C2F200035B7C1A4644F65C438C
:10201000C2F200031B699BB24FF009004FF0280188
:102020000CF03EFB00F07AFD80BD00BF80B582B0B1
:1020300000AF78604FF0390000F080FC0FF0C6FC74
:1020400044F60043C2F200037A685A6244F6004341
:10205000C2F200035B6A03F1620318460FF076FCDC
:1020600007F10807BD4680BD80B500AF44F60043C8
:10207000C2F200035B7C1A4644F65C43C2F20003E2
:102080001B699BB24FF009004FF029010CF008FBCF
:1020900000F044FD80BD00BF80B582B000AF786025
:1020A0004FF03A0000F04AFC0FF090FC44F6004379
:1020B000C2F200037A685A6244F60043C2F2000397
:1020C000DB69184609F0E0FF44F60043C2F2000362
:1020D0004FF00002DA6144F60043C2F200039B694C
:1020E00018464FF0030100F0A1FB44F60043C2F292
:1020F00000034FF000029A6100F010FD07F108079D
:10210000BD4680BD80B58AB000AFF8607A600A46EF
:10211000FA723B81F8684FF001010AF081FEFB681A
:102120005B684FF07E021A70F8684FF002010AF007
:1021300077FEFB685B683A891A80F8684FF0020105
:102140000AF06EFEFB685B6840F682621A807B686C
:102150001B78012B06D1F86879684FF001020AF06C
:10216000F9FD11E07B681B78022B0DD107F11403F8
:10217000786819460AF0DAFB07F11403F868194683
:102180004FF001020AF0E6FD4FF0040009F0B6FC42
:102190000346F86819464FF001020AF0DBFDF868C3
:1021A0004FF001010AF03CFEFB685B68FA7A1A7096
:1021B000F8684FF001010AF033FEFB685B684FF0EE
:1021C00055021A7007F12807BD4680BD80B586B05C
:1021D00000AFF860B9607A60BB684FF000021A7017
:1021E000BB684FF000025A70BB685A78FB681B7AD4
:1021F0009A4200F22081FB685A68BB685B78D3186A
:102200001B78FB75FB7D03F00703DAB2BB689A709D
:10221000BB689B78052B40F01081FB7D4FEAD30310
:10222000DBB203F00103002B40F00981FB7D4FEA94
:102230001313DBB203F00303BB75BB7D012B0BD182
:10224000BB684FF00102DA76FB7D4FEA93137B7592
:102250007B7D012B0BD025E0BB7D9BB24FF00800AE
:102260004FF019014FF001020CF01AFA00E1BB68BF
:102270004FF0010283F82C20BB685B7803F1010367
:10228000DAB2BB685A70FB685A68BB685B78D318CF
:102290001B78FB75BB685A78FB681B7A9A4200F280
:1022A000D0800AE07B7D9BB24FF008004FF019010F
:1022B0004FF002020CF0F4F9DAE0FB685A68BB68F0
:1022C0005B78D3181A78BB685A72BB685B7803F1E5
:1022D0000103DAB2BB685A70BB685A78FB681B7A94
:1022E0009A4200F2B080FB685A68BB685B78D218EB
:1022F000BB6803F10A0310464FF004011A464FF081
:1023000001030AF0C9FCBB685B7803F10203DAB28F
:10231000BB685A70BB685A78FB681B7A9A4200F215
:102320009480FB685A68BB685B78D218BB6803F17D
:102330001B0310464FF001011A464FF001030AF04B
:10234000ABFCBB685B7803F10203DAB2BB685A707E
:10235000BB685A78FB681B7A9A4278D8FB685A683F
:10236000BB685B784FEA4303D3181B887B827B8A68
:1023700003F07F03022B6CD07B8A4FEAD3139BB20E
:1023800003F01D03002B66D07B8A4FEAD3339BB248
:1023900003F00103002B60D1BB685B7803F10203FB
:1023A000DAB2BB685A70BB685A78FB681B7A9A42EB
:1023B00055D8FB685A68BB685B784FEA4303D3186B
:1023C0001A887B681A80BB685B7803F10203DAB273
:1023D000BB685A70BB685A78FB681B7A9A4240D82F
:1023E000FB685A68BB685B784FEA4303D3181B88C5
:1023F0007B827B8A03F07F03002B34D17B8A4FEAF8
:10240000D3139BB203F07E037E2B07D07B8A4FEA67
:10241000D3139BB203F07F037F2B26D17B8A4FEA35
:10242000D3339BB203F00103002B20D1BB684FF0E4
:1024300001021A701CE000BF1AE000BF18E000BFE4
:1024400016E000BF14E000BF12E000BF10E000BFC4
:102450000EE000BF0CE000BF0AE000BF08E000BFD4
:1024600006E000BF04E000BF02E000BF00E000BFE4
:1024700007F11807BD4680BD90B583B000AF786006
:102480007B681B78002B2BD07B689B78012B03D0BB
:102490007B689B78002B23D17B6803F10A044FF003
:1024A000040009F02BFB0346204619460AF09EFB68
:1024B0000346002B14D07B6803F11B03184609F078
:1024C000DDFB0346002B08D17B6803F11B03184694
:1024D0000AF098FA0346002B02D04FF0010301E006
:1024E0004FF0000303F00103DBB2184607F10C07BD
:1024F000BD4690BD90B583B000AF786039607B6811
:102500001B78002B2BD07B689B78022B27D17B6814
:1025100003F10A044FF0040009F0F0FA03462046E4
:1025200019460AF063FB0346002B18D07B6803F1C1
:102530001B03184609F0A2FB0346002B0FD07B6853
:1025400003F12C023B6803F13803104619460AF0E8
:102550004DFB0346002B02D04FF0010301E04FF08A
:10256000000303F00103DBB2184607F10C07BD4678
:1025700090BD00BF98B500AF44F60043C2F200031F
:10258000B3F803309BB203F101039AB244F600435F
:10259000C2F20003A3F8032044F60043C2F2000392
:1025A000B3F803309BB2002B25D144F60043C2F2AE
:1025B0000003B3F801309BB203F101039AB244F671
:1025C0000043C2F20003A3F8012044F60043C2F224
:1025D0000003B3F801309BB2002B0CD144F600434A
:1025E000C2F200031B7803F10103DAB244F60043A0
:1025F000C2F200031A7044F60043C2F20003DB8803
:1026000003F1010403F052FB034694FBF3F203FBD6
:1026100002F3E31A9AB244F60043C2F20003DA80EE
:1026200044F60043C2F2000393F82D3003F1010297
:102630004FF00F03C8F200031340002B05DA03F13B
:10264000FF3363F00F0303F10103DAB244F60043F2
:10265000C2F2000383F82D2098BD00BF80B483B080
:1026600000AF786044F60043C2F20003B3F80330D1
:102670009BB2DAB27B681A707B6803F1010244F600
:102680000043C2F20003B3F803309BB24FEA1323B6
:102690009BB2DBB213707B6803F1020244F6004385
:1026A000C2F20003B3F801309BB2DBB213707B6857
:1026B00003F1030244F60043C2F20003B3F8013011
:1026C0009BB24FEA13239BB2DBB213707B6803F11A
:1026D000040244F60043C2F200031B78137007F1B2
:1026E0000C07BD4680BC704790B587B002AF7860DC
:1026F0000EF058FCF860FA687B68D31ABB60B868C3
:102700000EF044FC44F60043C2F2000340F61D12F2
:10271000DA607B689BB2C3F100039BB299B244F6C6
:102720000043C2F200031A6A0CB26B4602F1440184
:1027300003C9186003F10403197002F138030ECBCA
:10274000204600F015FD44F60043C2F200031B7C56
:10275000002B11D07B6813F1050F02DB7B68052B82
:102760000ADD7B689BB24FF009004FF01C011A464E
:102770004FF001030BF094FF44F64C43C2F2000308
:102780005B7803F10103DAB244F64C43C2F2000372
:102790005A70786800F0A8F807F11407BD4690BD9C
:1027A00080B582B000AF0346FB7144F60043C2F22D
:1027B0000003FA791A7444F60043C2F200031B7C4A
:1027C000002B04D00EF0FEF800F056F803E00EF0F7
:1027D00001F903F009FB07F10807BD4680BD00BF02
:1027E00080B582B000AF78600B46FB707B68FA78EA
:1027F00083F837207B6803F14D0244F60043C2F2B0
:102800000003186810601B7913717B684FF00B028E
:102810005A7046F23D40C0F220004FF002010BF02A
:1028200019FD07F10807BD4680BD00BF80B582B025
:1028300000AF78600B46FB70FB7803F1FF33032B8E
:1028400013D801A252F823F0592820005F28200055
:1028500059282000652820000EF026F907E00EF028
:10286000C1F804E00EF090F801E00EF075F907F100
:102870000807BD4680BD00BF80B400AF44F64C439E
:10288000C2F200034FF000021A7044F64C43C2F249
:1028900000034FF000025A7044F64C43C2F20003AA
:1028A0004FF07F025A8044F64C43C2F200034FF6C9
:1028B00081729A8044F64C43C2F200034FF000024A
:1028C000DA719A6802F07F429A6044F64C43C2F291
:1028D00000034FF00002DA72DA6802F07F42DA6039
:1028E000BD4680BC704700BF80B483B000AF786045
:1028F00044F64C43C2F200035B881AB27B689A42EA
:1029000006DD7B689AB244F64C43C2F200035A805B
:1029100044F64C43C2F200039B881AB27B689A4289
:1029200006DA7B689AB244F64C43C2F200039A80FE
:1029300007F10C07BD4680BC704700BF80B582B070
:1029400000AF0346FB7144F60043C2F20003FA797C
:102950005A7444F60043C2F200035B7C3A2B00F247
:10296000828001A252F823F05B2A2000672A20000F
:10297000672A2000672A2000672A2000672A200093
:10298000672A2000672A2000672A2000672A200083
:10299000672A2000672A2000672A2000672A200073
:1029A000672A2000672A2000672A2000672A200063
:1029B000672A2000672A2000672A2000672A200053
:1029C000672A2000672A2000672A2000672A200043
:1029D000552A2000612A2000612A2000612A200057
:1029E000612A2000552A2000612A2000612A200047
:1029F000612A2000612A2000612A2000612A20002B
:102A0000612A2000612A2000612A2000612A20001A
:102A10005B2A2000612A2000612A2000612A200010
:102A2000612A2000612A20005B2A2000612A200000
:102A3000612A2000612A2000612A2000612A2000EA
:102A4000612A2000612A2000612A2000612A2000DA
:102A5000612A20000DF072FD05E00DF061FD02E03D
:102A60000DF052FD00BF07F10807BD4680BD00BF55
:102A700080B582B000AF44F60043C2F200031B7879
:102A80003B7044F60043C2F20003B3F801309BB23E
:102A9000A7F8013044F60043C2F20003B3F8033054
:102AA0009BB2A7F803303B464FF0040019464FF0A5
:102AB00005020BF0DDFC4FF00103184607F1080793
:102AC000BD4680BD80B582B000AF4FF00003FB7102
:102AD00044F60043C2F200031B7CFB7107F10703BD
:102AE0004FF0000019464FF001020BF0C1FC4FF00F
:102AF0000103184607F10807BD4680BD80B500AF49
:102B00004FF0050044F64C41C2F200014FF00F02B5
:102B10000BF0AEFC4FF00103184680BD80B500AF4E
:102B20000EF07AFA0EF052FF44F60043C2F20003B0
:102B30004FF000025A6244F60043C2F200034FF025
:102B400000029A6244F60043C2F200034FF0000212
:102B50005A6344F60043C2F200034FF0000283F8C8
:102B6000382044F60043C2F200035B69002B33D0E7
:102B700044F60040C2F200004FF0000103F072F989
:102B800044F60043C2F200035B6993F84B2002F164
:102B9000FF32D2B283F84B2044F60043C2F2000366
:102BA0005B6993F84B30002B07D044F60043C2F228
:102BB00000035B694FF00A025A7044F60043C2F208
:102BC00000035B69184609F05FFA44F60043C2F25D
:102BD00000034FF000025A6144F60043C2F20003C2
:102BE0009B69002B18D044F60043C2F200039B6996
:102BF00018464FF00401FFF719FE44F60043C2F2F5
:102C000000039B69184609F03FFA44F60043C2F2FC
:102C100000034FF000029A6144F60043C2F2000341
:102C2000DB69002B0ED044F60043C2F20003DB69DF
:102C3000184609F029FA44F60043C2F200034FF0A7
:102C40000002DA6144F60043C2F200031B6A002B63
:102C50000ED044F60043C2F200031B6A184609F086
:102C600013FA44F60043C2F200034FF000021A6266
:102C700044F60043C2F20003DB6B002B0ED044F697
:102C80000043C2F20003DB6B184609F0FDF944F67D
:102C90000043C2F200034FF00002DA6344F600433F
:102CA000C2F200031B6C002B0ED044F60043C2F2AC
:102CB00000031B6C184609F0E7F944F60043C2F222
:102CC00000034FF000021A644FF00000FFF736FED9
:102CD00044F60043C2F200034FF0000283F845209F
:102CE00080BD00BF80B400AF44F60043C2F20003D1
:102CF0001B7C1846BD4680BC704700BF80B588B0BD
:102D000000AF786039604FF00003FB737B685A684E
:102D1000FB7BD3181B787B76FB7B03F10103DBB2D3
:102D2000FB737B7E9AB27B685968FB7BCB181B7860
:102D30004FEA03239BB2D318FB82FB7B03F1010311
:102D4000DBB2FB73FB7B1A463B681A80FB8A03F0FD
:102D50000103002B0AD0FB8A4FEA5313BB83FB8A83
:102D600003F01E034FEA6303FB7709E0FB8A4FEA97
:102D70005323BB83FB8A03F4FF734FEA6303FB77A0
:102D80003B681A88BB8BD3189AB23B681A80FB7FCA
:102D9000012B02D01E2B78D0BEE07B685A68FB7BEB
:102DA000D3181B787B76FB7B03F10103DBB2FB734B
:102DB0007B7E9AB27B685968FB7BCB181B784FEA05
:102DC00003239BB2D318FB82FB7B03F10103DBB22D
:102DD000FB73BB8BA3F10203BB83FB8A03F00103EC
:102DE000002B0AD0FB8A4FEA53137B83FB8A03F044
:102DF0001E034FEA6303BB7709E0FB8A4FEA132304
:102E00007B83FB8A03F0FE034FEA6303BB77BB7F40
:102E10001B2B25D01C2B2DD01A2B28D108F044FEBB
:102E2000034683F00103DBB2002B25D07B685A6890
:102E3000FB7BD318184600F0A9F8FB7B03F10503D0
:102E4000DBB2FB737B685A68FB7BD3181B78184690
:102E500000F080F8FB7B03F10103DBB2FB730BE0B6
:102E600007F10F037868194602F0B8F905E04FF052
:102E700000036AE000BF00E000BFBA8B7B8BD31A6F
:102E8000BB83BB8B002B88D14EE008F00DFE0346C0
:102E900083F00103DBB2002B45D07B6803F13803DC
:102EA000184600F065FE0346002B3CD07B685A684C
:102EB000FB7BD3181B787B75FB7B03F10103DBB233
:102EC000FB737B685A68FB7BD3181B783B75FB7BD5
:102ED00003F10103DBB2FB733B7D4FEA03239AB29C
:102EE0007B7D9BB213439BB21BB23B613B6948F6AF
:102EF0008902C8F6880282FB0312D2184FEA221216
:102F00004FEAE373D31A3B613B69C3F100033B61B2
:102F10003869FFF7E9FB06E03B684FF000021A80D2
:102F20004FF0000311E000BF3B681B887F2B0AD9DC
:102F30003B681B884FF009004FF033011A464FF0F1
:102F400001030BF0ADFB4FF00103184607F120071A
:102F5000BD4680BD80B483B000AF0346FB7144F62C
:102F60000043C2F200039B69FA7983F8642044F6B7
:102F70000043C2F200039B694FF0010283F8662010
:102F800007F10C07BD4680BC704700BF90B583B009
:102F900000AF78607B681B781A467B6803F10103F9
:102FA0001B784FEA03239BB2D3189AB244F600432E
:102FB000C2F20003A3F803207B6803F102031B782D
:102FC0001A467B6803F103031B784FEA03239BB285
:102FD000D3189AB244F60043C2F20003A3F80120CA
:102FE0007B681A7944F60043C2F200031A7044F673
:102FF0000043C2F200034FF00002DA8044F60043BF
:10300000C2F20003DB88184602F00CFE02F038FE24
:1030100003461A4644F60043C2F200031A8144F6FE
:103020000043C2F2000393F82C4002F083FE0346F3
:10303000E31ADBB2A3F10B03DAB244F60043C2F2A7
:10304000000383F82D2007F10C07BD4690BD00BF9B
:1030500080B584B000AF78600FF064FF44F60043A1
:10306000C2F200031A787B681B789A4204D00FF0F2
:103070004DFF4FF0FF334CE04FF00003FB6044F690
:103080000043C2F20003B3F801309AB27B68B3F890
:1030900001309BB29A420FD10FF038FF44F6004343
:1030A000C2F20003B3F803309BB21A467B68B3F850
:1030B00003309BB2D31A2CE044F60043C2F2000363
:1030C000B3F801309BB21A467B68B3F801309BB26B
:1030D000D31A012B17D144F60043C2F20003B3F810
:1030E00003309BB2FB607B68B3F803309BB2FA6895
:1030F000D31A03F57F4303F1FF03FB60FB6803F181
:103100000103FB6002E04FF0FF33FB600FF0FEFEB7
:10311000FB68184607F11007BD4680BD80B500AFBB
:1031200044F67040C2F200004FF000014FF02C0254
:1031300012F01AF944F67043C2F200034FF0000295
:103140001A7044F67043C2F200034FF00002DA84B2
:1031500044F67043C2F200034FF03A021A8544F677
:103160007043C2F200034FF0000283F82A2080BDB2
:1031700084B0B0B584B000AF044607F1240080E805
:103180000E002346FB8044F67043C2F200031B8D01
:10319000B3F5FA6F12D944F67043C2F2000393F804
:1031A0002A3083F00103DBB2002B07D0B7F90630D9
:1031B000052B40F3F28000F0C1FAEEE044F67043D4
:1031C000C2F2000393F82A3083F00103DBB2002B34
:1031D00078D0FFF787FD0346002B73D007F1240357
:1031E0001846714909F002FD0346002B6AD06F486A
:1031F000FFF72EFF024644F67043C2F200031B8D18
:103200009A424FD9B7F90630184600F0D1F844F683
:103210007043C2F200034FF000025A8144F670433B
:10322000C2F200034FF00002DA8444F67043C2F2A7
:1032300000031B8D4FEA43039AB244F67043C2F277
:1032400000031A8544F67043C2F200031B8D184632
:1032500002F058FF07F108031846FFF7FFF97B7AE1
:103260004FEA03239AB23B7A13439BB29AB244F6D5
:103270007043C2F20003A3F80F20FB7A4FEA032346
:103280009AB2BB7A13439BB29AB244F67043C2F22D
:103290000003A3F80D203A7B44F67043C2F200030A
:1032A0001A737AE044F67043C2F20003DB8C9AB2E0
:1032B000FB88D3189BB29AB244F67043C2F2000363
:1032C000DA846AE044F67043C2F200034FF03A0237
:1032D0001A8544F67043C2F200031B8D184602F0B3
:1032E00011FF44F67043C2F200034FF000021A705F
:1032F00044F67043C2F200034FF000025A6044F6F5
:103300007043C2F200034FF000021A8144F670438A
:10331000C2F200034FF000025A8144F67043C2F239
:1033200000034FF00002DA8407F108031846FFF7A4
:1033300095F97B7A4FEA03239AB23B7A13439BB207
:103340009AB244F67043C2F20003A3F80F20FB7A4E
:103350004FEA03239AB2BB7A13439BB29AB244F664
:103360007043C2F20003A3F80D203A7B44F6704389
:10337000C2F200031A7344F67043C2F2000303F171
:10338000120307F12402156854689068D1681D6023
:103390005C609860D960127C1A7407F11007BD4612
:1033A000BDE8B04004B07047824C00207C4C002047
:1033B00080B584B000AF0346FB8044F67043C2F290
:1033C00000031B78002B03D14FF00103FB7302E0D5
:1033D0004FF00003FB735B48FFF73AFE024644F6EA
:1033E0007043C2F200035A60FB7B002B50D0B7F948
:1033F0000630012B22DD44F67043C2F200034FF089
:1034000001021A7044F67043C2F200035B689AB27C
:1034100044F67043C2F200039A8444F67043C2F249
:1034200000039B8C1A46B7F9063092FBF3F39AB26D
:1034300044F67043C2F200039A8474E0B7F9063090
:10344000B3F1FF3F6FDA44F67043C2F200034FF06E
:1034500002021A7044F67043C2F200035B689AB22B
:1034600044F67043C2F200039A8444F67043C2F2F9
:1034700000039B8C1A46B7F90630C3F1000392FB98
:10348000F3F39AB244F67043C2F200039A844AE01E
:1034900044F67043C2F200031B78022B12D144F6AB
:1034A0007043C2F200035B89BB8144F67043C2F2F1
:1034B0000003DB8C9AB2FB88D3189BB2BA89D31A6B
:1034C000BB8111E044F67043C2F200035B89BB810B
:1034D00044F67043C2F20003DB8C9AB2FB88D31827
:1034E0009AB2BB89D318BB81BB89002B02D100F0F3
:1034F00025F918E044F67043C2F200035B689AB203
:1035000044F67043C2F200039A8444F67043C2F258
:1035100000039A8CBB89B2FBF3F39AB244F6704372
:10352000C2F200039A8444F67043C2F200039A8CFC
:1035300044F67043C2F200031A8107F11007BD463A
:1035400080BD00BF7C4C002080B582B000AF4FF43E
:10355000F673FB8044F67043C2F200031B78002B25
:1035600053D044F67043C2F200031B89002B4ED0A7
:1035700044F67043C2F200031B8903F1FF339AB291
:1035800044F67043C2F200031A8144F67043C2F25B
:1035900000031B89002B3BD144F67043C2F20003A9
:1035A0001B78022B11D1FB8803F1FF33FB8044F61B
:1035B0007043C2F200035B8903F101039AB244F63F
:1035C0007043C2F200035A8110E0FB8803F101034B
:1035D000FB8044F67043C2F200035B8903F10103F0
:1035E0009AB244F67043C2F200035A81FB8818462F
:1035F0000DF0CCFC44F67043C2F200039A8C44F602
:103600007043C2F200031A8102E000BF00E000BF75
:1036100007F10807BD4680BD80B584B000AF034602
:10362000FB80FB8803F101039BB21A464FEA42126A
:10363000D21A4FEA8202D31A4FEA83037B8144F6FF
:103640007043C2F200031B78002B6ED044F6704327
:10365000C2F200031B89002B69D0FB88002B68D0C5
:10366000FB88FB814FF000037B7325E044F6704339
:10367000C2F200031B8903F1FF339AB244F6704390
:10368000C2F200031A8144F67043C2F200031B89A0
:10369000002B0DD17B7B03F101037B7344F6704358
:1036A000C2F200039A8C44F67043C2F200031A81FE
:1036B000FB8903F1FF33FB81FB89002BD6D17B7B98
:1036C000002B37D044F67043C2F200031B78022B64
:1036D00013D17B7B9BB27A89D31A7B8144F67043EA
:1036E000C2F200035A897B7B9BB2D3189AB244F68C
:1036F0007043C2F200035A8112E07B7B9AB27B894D
:10370000D3187B8144F67043C2F200035A897B7B55
:103710009BB2D3189AB244F67043C2F200035A81A6
:103720007B8918460DF032FC04E000BF02E000BFC8
:1037300000E000BF07F11007BD4680BD80B400AFB8
:1037400044F67043C2F200034FF0010283F82A20CE
:10375000BD4680BC704700BF80B500AF44F69C40BA
:10376000C2F200004FF000014FF4AE7211F0FCFD08
:1037700008F09AF90346002B08D044F69C43C2F2A5
:1037800000034FF00002A3F8542107E044F69C43E5
:10379000C2F200034FF6FF72A3F8542180BD00BFB0
:1037A00080B400AF44F69C43C2F20003B3F8543136
:1037B0001846BD4680BC704780B483B000AF4FF060
:1037C0000003BB714FF00003FB7116E0F97944F67A
:1037D0009C42C2F200020B464FEA03135B184FEA09
:1037E0004303D3181B78002B03D0BB7903F10103EB
:1037F000BB71FB7903F10103FB71FB79092BE5D95F
:10380000BB79184607F10C07BD4680BC704700BF66
:10381000B0B485B000AF78607B684FF000021A70DA
:103820004FF00003BB734FF000037B734FF6FF7341
:103830007B814FF00B037B724FF00003FB736FE053
:10384000F97B44F69C42C2F200020B464FEA031396
:103850005B184FEA4303D3181B78002B5CD0F97B2D
:1038600044F69C42C2F200020B464FEA03135B1877
:103870004FEA4303D3185B78022B1FD1FA7B134620
:103880004FEA03139B184FEA430344F69C42C2F2EB
:1038900000029B1803F104027B6815685468906865
:1038A000D1681D605C609860D960127C1A747B6876
:1038B0004FF002021A704FF00103BB73F97B44F61C
:1038C0009C42C2F200020B464FEA03135B184FEA18
:1038D0004303D31803F11003B3F805309BB27A8980
:1038E0009A4215D9F97B44F69C42C2F200020B467B
:1038F0004FEA03135B184FEA4303D31803F1100395
:103900005A799B794FEA032313437B81FB7B7B72BC
:103910007B7B03F101037B73FB7B03F10103FB73EF
:10392000FB7B092B8CD9BB7B83F00103DBB2002B23
:103930004FD07B7B002B4CD0797A44F69C42C2F26C
:1039400000020B464FEA03135B184FEA4303D318F8
:103950004FF002025A70797A44F69C42C2F2000299
:103960000B464FEA03135B184FEA4303D3184FF09B
:1039700001029A70797A44F69C42C2F200020B4628
:103980004FEA03135B184FEA4303D3184FF00002CA
:10399000DA707A7A13464FEA03139B184FEA43030F
:1039A00044F69C42C2F200029B1803F104027B68B9
:1039B000156854689068D1681D605C609860D96033
:1039C000127C1A747B684FF002021A704FF00103E8
:1039D000BB73BB7B184607F11407BD46B0BC7047EC
:1039E00080B586B000AF0346FB804FF000033B611B
:1039F0004FF00003FB604FF00003FB7549E0F97DD9
:103A000044F69C42C2F200020B464FEA03135B18D5
:103A10004FEA4303D3181B78002B36D0FA7D1346A8
:103A20004FEA03139B184FEA430303F1180244F6CD
:103A30009C43C2F20003D31803F104031846FFF7B6
:103A400007FB03467B817A89FB889A421DD9F97D61
:103A500044F69C42C2F200020B464FEA03135B1885
:103A60004FEA4303D3185B78022B0ED1FA7D13463D
:103A70004FEA03139B184FEA430344F69C42C2F2F9
:103A800000029B1803F104033B61FB7D03F101037A
:103A9000FB75FB7D092BB2D93B69002B01D03B693B
:103AA00006E0FB68002B01D0FB6801E04FF000034B
:103AB000184607F11807BD4680BD00BF80B58CB021
:103AC00000AF78604FF0000387F82E307B681B78DA
:103AD000032B0ED107F1080207F11C037868114689
:103AE0001A4608F0A7FE00BF4FF0000387F82F30FA
:103AF00033E07B681B784FF00D004FF031011A4620
:103B00004FF000030AF0E4FD97F82E302BE007F1A8
:103B10001C0297F82F301046194601F085F803462D
:103B2000002B14D097F82F1044F69C42C2F20002EA
:103B30000B464FEA03135B184FEA4303D3189B78F5
:103B4000002B04D04FF0010387F82E3009E097F8DE
:103B50002F3003F1010387F82F3097F82F30092B0E
:103B6000D5D997F82E30184607F13007BD4680BDED
:103B700080B584B000AF78600FF0D4F94FF0000347
:103B8000BB734FF00003FB731EE0FB7B78681946A4
:103B900001F04AF80346002B12D0F97B44F69C4210
:103BA000C2F200020B464FEA03135B184FEA4303CD
:103BB000D3185B78022B03D14FF00103BB7306E0EF
:103BC000FB7B03F10103FB73FB7B092BDDD90FF0BA
:103BD0009DF9BB7B184607F11007BD4680BD00BFAD
:103BE00090B585B000AF0346FB71F97944F69C426D
:103BF000C2F200020B464FEA03135B184FEA43037D
:103C0000D3181B78002B19D0F97944F69C42C2F2E4
:103C100000020B464FEA03135B184FEA4303D31825
:103C200003F11003B3F805309CB2FFF7B9FD03466A
:103C30009C4203D24FF00103FB7302E04FF00003FC
:103C4000FB73FB7B184607F11407BD4690BD00BF10
:103C500090B585B000AF0346FB71F97944F69C42FC
:103C6000C2F200020B464FEA03135B184FEA43030C
:103C7000D3181B78002B19D0F97944F69C42C2F274
:103C800000020B464FEA03135B184FEA4303D318B5
:103C900003F11003B3F805309CB2FFF781FD034632
:103CA0009C4203D34FF00103FB7302E04FF000038B
:103CB000FB73FB7B184607F11407BD4690BD00BFA0
:103CC00080B588B002AFF8607A600A46FA72BB72BB
:103CD0004FF00103BB754FF00003FB7567E1FB7DFF
:103CE000F868194600F0A0FF0346002B00F05B8146
:103CF0004FF00003BB75FA7D44F69C41C2F200010F
:103D000013464FEA03139B184FEA4303CB1803F102
:103D100018031B7803F10103D8B244F69C41C2F2A8
:103D2000000113464FEA03139B184FEA4303CB18D5
:103D300003F1180302461A70F97D44F69C42C2F260
:103D400000020B464FEA03135B184FEA4303D318F4
:103D500003F11003FA7ADA71FA7D13464FEA03137E
:103D60009B184FEA430303F1180244F69C43C2F246
:103D70000003D31803F104037A68116819601279FB
:103D80001A71BB7A002B10D0F97D44F69C42C2F226
:103D900000020B464FEA03135B184FEA4303D318A4
:103DA00003F1200397F820205A70F97D44F69C42D5
:103DB000C2F200020B464FEA03135B184FEA4303BB
:103DC000D3189B7883F00103DBB2002B6ED0F97D12
:103DD00044F69C42C2F200020B464FEA03135B1802
:103DE0004FEA4303D31803F11003DB795BB213F1FD
:103DF0004F0F4BDBFA7D44F69C41C2F200011346A3
:103E00004FEA03139B184FEA4303CB18DB7803F107
:103E10000103D8B244F69C41C2F2000113464FEAB6
:103E200003139B184FEA4303CB180246DA70F97D5F
:103E300044F69C42C2F200020B464FEA03135B18A1
:103E40004FEA4303D318DB78022B40F2B580F97DAB
:103E500044F69C42C2F200020B464FEA03135B1881
:103E60004FEA4303D3184FF00002DA70F97D44F6AD
:103E70009C42C2F200020B464FEA03135B184FEA62
:103E80004303D3184FF001029A7095E0F97D44F690
:103E90009C42C2F200020B464FEA03135B184FEA42
:103EA0004303D3184FF00002DA7085E0F97D44F641
:103EB0009C42C2F200020B464FEA03135B184FEA22
:103EC0004303D3189B78002B76D0F97D44F69C42AF
:103ED000C2F200020B464FEA03135B184FEA43039A
:103EE000D31803F11003DB795BB213F15A0F4ADAEE
:103EF000FA7D44F69C41C2F2000113464FEA0313D7
:103F00009B184FEA4303CB18DB7803F10103D8B2C7
:103F100044F69C41C2F2000113464FEA03139B187A
:103F20004FEA4303CB180246DA70F97D44F69C420F
:103F3000C2F200020B464FEA03135B184FEA430339
:103F4000D318DB78022B37D9F97D44F69C42C2F2B4
:103F500000020B464FEA03135B184FEA4303D318E2
:103F60004FF00002DA70F97D44F69C42C2F2000282
:103F70000B464FEA03135B184FEA4303D3184FF085
:103F800000029A7018E0F97D44F69C42C2F20002E9
:103F90000B464FEA03135B184FEA4303D3184FF065
:103FA0000002DA7008E0FB7D03F10103FB75FB7D85
:103FB000092B7FF694AE00E000BFBB7D002B0AD03A
:103FC00097F90B20BB7A97F820100091F8681146FA
:103FD0007A6800F0B7FB07F11807BD4680BD00BF47
:103FE00080B586B000AFF8607B600B46FB7213466D
:103FF000BB72F86808F006FD0346002B40F0EC8029
:104000004FF00003FB75E2E0FB7DF868194600F015
:104010000BFE0346002B00F0D680F97D44F69C424F
:10402000C2F200020B464FEA03135B184FEA430348
:10403000D31803F118035B781A46FB7AC3F1FF0328
:104040009A4264DDFA7D44F69C41C2F200011346B7
:104050004FEA03139B184FEA4303CB1803F11803ED
:10406000DB7803F10103D8B244F69C41C2F20001AF
:1040700013464FEA03139B184FEA4303CB1803F18F
:1040800018030246DA70F97DF87D44F69C42C2F2CC
:10409000000203464FEA03131B184FEA4303D318E9
:1040A00003F118035B784FEA5303D8B244F69C42FD
:1040B000C2F200020B464FEA03135B184FEA4303B8
:1040C000D31803F1180302465A70F97DF87D44F6BF
:1040D0009C42C2F2000203464FEA03131B184FEA48
:1040E0004303D31803F118039B784FEA5303D8B264
:1040F00044F69C42C2F200020B464FEA03135B18DF
:104100004FEA4303D31803F1180302469A70F97D6E
:10411000F87D44F69C42C2F2000203464FEA0313C4
:104120001B184FEA4303D31803F118035A78FB7A9C
:10413000D318D8B244F69C42C2F200020B464FEAB2
:1041400003135B184FEA4303D31803F11803024625
:104150005A70BB7A002B41D0FA7D44F69C41C2F2E2
:10416000000113464FEA03139B184FEA4303CB1891
:1041700003F118039B7803F10103D8B244F69C4184
:10418000C2F2000113464FEA03139B184FEA4303A0
:10419000CB1803F1180302469A70FA7D13464FEAD2
:1041A00003139B184FEA430303F1180244F69C43A0
:1041B000C2F20003D31803F104037A68116819608E
:1041C00012791A710AE0FB7D03F10103FB75FB7D97
:1041D000092B7FF619AF02E000BF00E000BF07F136
:1041E0001807BD4680BD00BF90B585B000AF7860B0
:1041F0007B684FF00D025A707B685A6844F69C4306
:10420000C2F20003C3F858217B6803F13803184653
:1042100000F000FC0346002B00F0B1804FF00003DB
:10422000FB73A8E07B6803F13802FB7B104619465C
:1042300000F0FAFC0346002B00F0998044F69C4302
:10424000C2F20003D3F858315B8898B2F97B44F688
:104250009C42C2F200020B464FEA03135B184FEA7E
:104260004303D31803F11003B3F805309BB298420F
:1042700063D944F69C43C2F20003D3F858315B88FB
:104280009BB21846F97B44F69C42C2F200020B46F0
:104290004FEA03135B184FEA4303D31803F11003EB
:1042A000B3F805309BB2C31AB3F5F05F45DDF97B77
:1042B000F87B44F69C42C2F2000203464FEA031325
:1042C0001B184FEA4303D31803F11003B3F805306A
:1042D0009BB203F5F05398B244F69C42C2F200023E
:1042E0000B464FEA03135B184FEA4303D31803F15D
:1042F00010030246A3F8052044F69C43C2F20003D3
:10430000D3F858315B889CB2F97B44F69C42C2F2E8
:1043100000020B464FEA03135B184FEA4303D3181E
:1043200003F11003B3F805309BB24FF00D004FF0CE
:10433000100122460AF0B4F921E0F97B44F69C43CF
:10434000C2F20003D3F858315B8898B244F69C421D
:10435000C2F200020B464FEA03135B184FEA430315
:10436000D31803F110030246A3F8052007E0FB7BF6
:1043700003F10103FB73FB7B092B7FF653AF00F0C6
:104380003BF807F11407BD4690BD00BF80B582B071
:1043900000AF786013460A46FA70BB70FB78022BB8
:1043A0001AD17B6803F10101BA7813464FEA03136F
:1043B0009B184FEA430344F69C42C2F200029B184A
:1043C00003F105020B461168526819605A607B6858
:1043D0004FF002021A700BE0FB789BB24FF00D0019
:1043E0004FF031011A464FF001030AF071F900BF96
:1043F00007F10807BD4680BD90B585B000AF07F056
:1044000053FB0346002B08D044F69C43C2F2000342
:104410004FF00002A3F85421E9E044F69C43C2F2B5
:1044200000034FF6FF72A3F854214FF00003BB7254
:104430004FF00003FB724FF00003FB73A3E0F97B26
:1044400044F69C42C2F200020B464FEA03135B188B
:104450004FEA4303D3181B78002B00F09080F97BC0
:1044600044F69C42C2F200020B464FEA03135B186B
:104470004FEA4303D3184FF000025A70F97B44F619
:104480009C42C2F200020B464FEA03135B184FEA4C
:104490004303D31803F118039B78002B03D14FF487
:1044A000F053BB813AE0F97B44F69C42C2F2000231
:1044B0000B464FEA03135B184FEA4303D31803F18B
:1044C00018035B78184610F07DFC0446F97B44F62F
:1044D0009C42C2F200020B464FEA03135B184FEAFC
:1044E0004303D31803F118039B78184610F06AFCB5
:1044F00003462046194610F071FD0346184619463A
:1045000010F0B0FB034618464FF0874110F0B2FCA4
:104510000346184610F0FEFD0346BB81F97B44F6C6
:104520009C42C2F200020B464FEA03135B184FEAAB
:104530004303D31803F11003B3F805309BB21A46B6
:10454000BB89D3187B6044F69C43C2F20003B3F8E6
:1045500054311A467B689A4211D97A684FF6FE7335
:104560009A420CD87B689AB244F69C43C2F200038C
:10457000A3F854214FF00103BB72FB7BFB72FB7B62
:1045800003F10103FB73FB7B092B7FF658AFBB7A6A
:10459000002B2CD0F97A44F69C42C2F200020B4662
:1045A0004FEA03135B184FEA4303D3184FF002029C
:1045B0005A70F97A44F69C42C2F200020B464FEA66
:1045C00003135B184FEA4303D3184FF001029A70AC
:1045D000F97A44F69C42C2F200020B464FEA0313FA
:1045E0005B184FEA4303D3184FF00002DA7007F16B
:1045F0001407BD4690BD00BF80B582B000AF4FF03C
:104600000003FB7130E0F97944F69C42C2F20002EB
:104610000B464FEA03135B184FEA4303D3181B788A
:10462000002B1DD0FA7913464FEA03139B184FEA6B
:10463000430303F1180244F69C43C2F20003D3186B
:1046400003F104031846FEF703FD0346BB80BA8856
:1046500040F61D139A4203D9FB79184600F0FEF983
:10466000FB7903F10103FB71FB79092BCBD907F12E
:104670000807BD4680BD00BFF0B58BB000AF44F663
:104680009C43C2F2000393F8563103F1010146F254
:104690006763C6F2666383FB01234FEAA3024FEA16
:1046A000E173D21A13464FEA83039B184FEA430380
:1046B000CA1AD2B244F69C43C2F2000383F85621D0
:1046C00044F69C43C2F2000393F856313B7144F622
:1046D0009C43C2F2000393F85631194644F69C42BB
:1046E000C2F200020B464FEA03135B184FEA430382
:1046F000D31807F1050203F1200411461846D0F83B
:1047000000E046688568C068C1F800E04E608D60D2
:10471000C86003F1100302F11002A342EDD11B881F
:10472000138007F104034FF0090019464FF02302EC
:1047300009F09EFE4FF00103184607F12C07BD4615
:10474000F0BD00BFB0B586B000AFF8607A600A4631
:10475000FA72BB72FB681B78022B0BD0FB681B78CC
:104760004FF00D004FF031011A464FF0020309F0EF
:10477000AFFF4BE1F86800F04DF9034683F0010309
:10478000DBB2002B00F042814FF00003FB7529E102
:10479000F97D44F69C42C2F200020B464FEA031335
:1047A0005B184FEA4303D3181B7883F00103DBB295
:1047B000002B00F01381F97D44F69C42C2F2000206
:1047C0000B464FEA03135B184FEA4303D3184FF02D
:1047D00001021A70F97D44F69C42C2F200020B46B7
:1047E0004FEA03135B184FEA4303D3184FF000025C
:1047F0005A70F97D44F69C42C2F200020B464FEA21
:1048000003135B184FEA4303D3184FF001029A7069
:10481000F97D44F69C42C2F200020B464FEA0313B4
:104820005B184FEA4303D3184FF00002DA70FA7DA9
:1048300013464FEA03139B184FEA430344F69C4286
:10484000C2F200029B1803F10403FA681568546869
:104850009068D1681D605C609860D960127C1A74A1
:10486000F97D44F69C42C2F200020B464FEA031364
:104870005B184FEA4303D31803F110034FF0FF32E4
:104880005A714FF0FF329A71F97D44F69C42C2F2A0
:1048900000020B464FEA03135B184FEA4303D31899
:1048A00003F11003FA7ADA71F97D44F69C42C2F200
:1048B00000020B464FEA03135B184FEA4303D31879
:1048C00003F118034FF001021A70F97D44F69C427F
:1048D000C2F200020B464FEA03135B184FEA430390
:1048E000D31803F118034FF000025A70F97D44F613
:1048F0009C42C2F200020B464FEA03135B184FEAD8
:104900004303D31803F118034FF000029A70FA7DA5
:1049100013464FEA03139B184FEA430303F11802AF
:1049200044F69C43C2F20003D31803F104037A68EF
:104930001168196012791A71BB7A002B10D0F97DB9
:1049400044F69C42C2F200020B464FEA03135B1886
:104950004FEA4303D31803F1200397F828205A7035
:104960004FF000037B754FF00003BB7515E0B97D78
:1049700044F69C42C2F200020B464FEA03135B1856
:104980004FEA4303D3185B78022B02D14FF00103A7
:104990007B75BB7D03F10103BB75BB7D092BE6D99C
:1049A0007B7D83F00103DBB2002B20D007F07CF885
:1049B000034683F00103DBB2002B18D0F97D44F6E7
:1049C0009C42C2F200020B464FEA03135B184FEA07
:1049D0004303D3184FF002025A7008E0FB7D03F145
:1049E0000103FB75FB7D092B7FF6D2AE00E000BF13
:1049F000FB7D0A2B0AD14FF00D004FF014014FF050
:104A00000A024FF0000309F04BFE00BF07F1180740
:104A1000BD46B0BD80B584B000AF78604FF00003F4
:104A2000FB734FF00003FB730EE0FB7B78681946C5
:104A300000F0FAF80346002B02D04FF0010308E023
:104A4000FB7B03F10103FB73FB7B092BEDD94FF0DB
:104A50000003184607F11007BD4680BD80B483B03F
:104A600000AF0346FB71F97944F69C42C2F20002A2
:104A70000B464FEA03135B184FEA4303D3184FF07A
:104A800000021A70F97944F69C42C2F200020B4609
:104A90004FEA03135B184FEA4303D3184FF00002A9
:104AA0005A70F97944F69C42C2F200020B464FEA72
:104AB00003135B184FEA4303D3184FF000029A70B8
:104AC000F97944F69C42C2F200020B464FEA031306
:104AD0005B184FEA4303D3184FF00002DA70F979FC
:104AE00044F69C42C2F200020B464FEA03135B18E5
:104AF0004FEA4303D3184FF000021A71F97944F6D4
:104B00009C42C2F200020B464FEA03135B184FEAC5
:104B10004303D31803F110034FF0FF325A714FF0E3
:104B2000FF329A71F97944F69C42C2F200020B46B8
:104B30004FEA03135B184FEA4303D31803F1100342
:104B40004FF00002DA71F97944F69C42C2F2000299
:104B50000B464FEA03135B184FEA4303D31803F1E4
:104B600018034FF000021A70F97944F69C42C2F221
:104B700000020B464FEA03135B184FEA4303D318B6
:104B800003F118034FF000025A70F97944F69C4281
:104B9000C2F200020B464FEA03135B184FEA4303CD
:104BA000D31803F118034FF000029A70F97944F614
:104BB0009C42C2F200020B464FEA03135B184FEA15
:104BC0004303D31803F118034FF00002DA714FF0DA
:104BD00000021A72F97944F69C42C2F200020B46B6
:104BE0004FEA03135B184FEA4303D31803F118038A
:104BF0004FF000025A714FF000029A71F97944F6B1
:104C00009C42C2F200020B464FEA03135B184FEAC4
:104C10004303D31803F118034FF000021A7107F190
:104C20000C07BD4680BC704780B582B000AF78608D
:104C30000B46FB707B681B78022B2CD1F97844F66D
:104C40009C42C2F200020B464FEA03135B184FEA84
:104C50004303D3181B78002B17D0FA7813464FEA7A
:104C600003139B184FEA430344F69C42C2F200022E
:104C70009B1803F104037868194607F0B7FF034651
:104C8000002B02D04FF0010301E04FF0000303F0CE
:104C90000103DBB20CE07B681B784FF00D004FF096
:104CA00031011A464FF0030309F012FD4FF00003E3
:104CB000184607F10807BD4680BD00BF80B584B027
:104CC00000AF78600B46FB7078684FF0020108F087
:104CD000A7F8FB789BB24FEA43139BB2BB81BB8919
:104CE00043F003039BB2BB817B685B68BA89D2B295
:104CF0001A707B685B6803F10103BA894FEA1222DC
:104D000092B2D2B21A7007F11007BD4680BD00BF43
:104D100080B584B000AF78604FF00003FB73786813
:104D20004FF0060108F07CF87B685A687B681A66C9
:104D3000FB7B03F10603FB7378684FF0020108F078
:104D40006FF84FF4C063BB81BB8943F034039BB25F
:104D5000BB817B685B68BA89D2B21A707B685B687A
:104D600003F10103BA894FEA122292B2D2B21A7049
:104D7000FB7B03F10203FB73FB7B184607F1100773
:104D8000BD4680BD80B584B000AF78604FF00003B1
:104D9000FB734FF00003FB724FF00603BB814FF033
:104DA000E003FB722FE078684FF0050108F038F857
:104DB0007B685B68BA89D2B21A707B685B6803F162
:104DC0000103BA894FEA122292B2D2B21A707B68FA
:104DD0005B6803F102034FF000021A707B685B68A6
:104DE00003F103034FF000021A707B685B6803F164
:104DF0000403FA7A1A70FB7B03F10503FB73BB898A
:104E000003F1FF33BB81BB89012BCCD84FF0F003FA
:104E1000FB7278684FF0050108F002F87B685B6868
:104E20004FF001021A707B685B6803F101034FF0D9
:104E300000021A707B685B6803F102034FF0000206
:104E40001A707B685B6803F103034FF000021A706D
:104E50007B685B6803F10403FA7A1A70FB7B03F149
:104E60000503FB7378684FF0050107F0D9FF7B68F5
:104E70005B684FF001021A707B685B6803F1010305
:104E80004FF001021A707B685B6803F102034FF078
:104E900065021A707B685B6803F103034FF0000240
:104EA0001A707B685B6803F104034FF006021A7006
:104EB000FB7B03F10503FB7378684FF0020107F0F9
:104EC000AFFFFB7B9BB24FEA03239BB23B813B8945
:104ED00043F036039BB23B817B685B683A89D2B270
:104EE0001A707B685B6803F101033A894FEA12226A
:104EF00092B2D2B21A70FB7B03F10203FB73FB7B0D
:104F0000184607F11007BD4680BD00BF80B584B0CC
:104F100000AF78600B46FB704FF00003FB737868BE
:104F20004FF0010107F07CFF7B685B68FA781A702C
:104F3000FB7B03F10103FB7378684FF0020107F07C
:104F40006FFFFB7B9BB24FEA03239BB2BB81BB8904
:104F500043F082039BB2BB817B685B68BA89D2B2A3
:104F60001A707B685B6803F10103BA894FEA122269
:104F700092B2D2B21A70FB7B03F10203FB73FB7B8C
:104F8000184607F11007BD4680BD00BF80B584B04C
:104F900000AF786013460A46FA70BB704FF000030A
:104FA000FB7378684FF0010107F03AFF7B685B689C
:104FB000FA781A70FB7B03F10103FB7378684FF0FA
:104FC000010107F02DFF7B685B68BA781A70FB7BE4
:104FD00003F10103FB7378684FF0020107F020FF33
:104FE000FB7B9BB24FEA03239BB2BB81BB8943F09F
:104FF00084039BB2BB817B685B68BA89D2B21A70AA
:105000007B685B6803F10103BA894FEA122292B20E
:10501000D2B21A70FB7B03F10203FB73FB7B1846D1
:1050200007F11007BD4680BD80B584B000AF786041
:10503000F970BA707B704FF00003BB734FF0000340
:105040007B734FF00003FB7347E0FA7B13464FEA94
:1050500083039B18BA69D3181B79002B39D0786861
:105060004FF0050107F0DCFEFA7B13464FEA83039D
:105070009B18BA69D3181B889AB27B685B68104684
:10508000194608F0FFF8FA7B13464FEA83039B1892
:10509000BA69D3185B889AB27B685B6803F1020334
:1050A0001046194608F0EEF87B685B6803F10401CE
:1050B000FA7B13464FEA83039B18BA69D3181B790E
:1050C0000B70BB7B03F10503BB737B7B03F1010317
:1050D0007B73FB7B03F10103FB73FB7B022BB4D9D6
:1050E0007B687A7B83F85C207B685A687B689A656A
:1050F00078684FF0010107F093FE4FF000033B7317
:105100007B7B4FEA4303DAB23B7B1343DBB23B7357
:105110003A7B7B7813433B737B685B683A7B1A70FE
:10512000BB7B03F10103BB7378684FF0010107F00B
:1051300077FEBB783B737B685B683A7B1A70BB7BFE
:1051400003F10103BB737B68BA7883F85D2078684C
:105150004FF0010107F064FEBB7B3B737B685B682B
:105160003A7B1A70BB7B03F10103BB7378684FF085
:10517000010107F055FEFB783B737B685B683A7B67
:105180001A70BB7B03F10103BB7378684FF0020117
:1051900007F046FEBB7B9BB24FEA03239BB23B81E9
:1051A0003B8943F088039BB23B817B685B683A890B
:1051B000D2B21A707B685B6803F101033A894FEA47
:1051C000122292B2D2B21A70BB7B03F10203BB73FC
:1051D000BB7B184607F11007BD4680BD80B487B081
:1051E00000AF786039603B681B787B757B685A68D4
:1051F0007B7DD3181B783B757B7D03F101037B75A9
:105200004FF00003FB7585E07B685A687B7DD318FF
:105210001B783B747B7D03F101037B757B685A68C7
:105220007B7DD3181B78A7F811307B7D03F1010338
:105230007B75B7F811309BB29AB27B6859687B7D59
:10524000CB181B784FEA03239BB213439BB29BB24C
:10525000A7F811307B7D03F101037B757B685A68E9
:105260007B7DD3181B78FB747B7D03F101037B7579
:105270004FF00003BB7545E07B685A687B7DD3180F
:105280001B783B817B7D03F101037B753B899AB2DF
:105290007B6859687B7DCB181B784FEA03239BB250
:1052A00013439BB29BB23B817B7D03F101037B7572
:1052B0007B685A687B7DD3181B787B817B7D03F1EB
:1052C00001037B757B899AB27B6859687B7DCB181B
:1052D0001B784FEA03239BB213439BB29BB27B81A3
:1052E0007B7D03F101037B757B685A687B7DD31856
:1052F0001B783B737B7D03F101037B75BB7D03F161
:105300000103BB75FB7CBA7D9A42B5D3FB7D03F1EB
:105310000103FB75FA7D3B7D9A42FFF475AF3B6854
:105320007A7D1A7007F11C07BD4680BC704700BF2C
:1053300080B487B000AFF860B9607A60BB681B7852
:10534000FB75FB685A68FB7DD3181A787B681A7066
:10535000FB7D03F10103FB75BB68FA7D1A7007F151
:105360001C07BD4680BC704780B487B000AFF860B2
:10537000B9607A60BB681B78FB75FB685A68FB7D77
:10538000D3181A787B681A70FB7D03F10103FB7553
:10539000FB685A68FB7DD3181A787B685A70FB7DCE
:1053A00003F10103FB75BB68FA7D1A7007F11C0756
:1053B000BD4680BC704700BF80B487B000AFF860C6
:1053C000B9607A60BB681B78BB75FB685A68BB7DA7
:1053D000D3181A787B681A70BB7D03F10103BB7583
:1053E000FB685A68BB7DD3181A787B685A70BB7DFE
:1053F00003F10103BB75FB685A68BB7DD3181A78AB
:105400007B689A70BB7D03F10103BB75FB685A682A
:10541000BB7DD3181B787B757B7D4FEA5303DAB2D3
:105420007B68DA707B7D03F0FE03002B0CBF00234A
:105430000123DAB27B681A71BB7D03F10103BB75EE
:105440007B68DB78032B00F290804FF00003FB7544
:1054500081E0FA7DFB685968BB7DCB181B784FEA69
:10546000032399B2786813464FEA83039B18C31845
:105470000A46A3F80520BB7D03F10103BB75FA7D45
:10548000F97D78680B464FEA83035B18C318B3F8BD
:10549000053099B2FB685868BB7DC3181B780B4375
:1054A00099B2786813464FEA83039B18C3180A46DB
:1054B000A3F80520BB7D03F10103BB75FA7DFB68F2
:1054C0005968BB7DCB181B784FEA032399B27868E3
:1054D00013464FEA83039B18C3180A46A3F8072014
:1054E000BB7D03F10103BB75FA7DF97D78680B463E
:1054F0004FEA83035B18C318B3F8073099B2FB680F
:105500005868BB7DC3181B780B4399B27868134663
:105510004FEA83039B18C3180A46A3F80720BB7DF4
:1055200003F10103BB75FA7DFB685968BB7DCB189D
:105530001978786813464FEA83039B18C31803F160
:1055400009030A461A70BB7D03F10103BB75FB7D9D
:1055500003F10103FB757B68DB78FA7D9A42FFF467
:1055600078AFBB68BA7D1A7000E000BF07F11C0776
:10557000BD4680BC704700BF80B588B002AF44F61E
:10558000F850C2F200004FF000014FF4A8720FF083
:10559000EBFE4FF00003FB7512E0FA7D13464FEA75
:1055A000C3039B184FEA830344F6F852C2F2000289
:1055B0009B18184600F006FDFB7D03F10103FB7507
:1055C000FB7D082BE9D944F6F853C2F200034FF0F3
:1055D000010283F84A214FF00B0000F087F94FF0E9
:1055E0000003BB823B4618464FF000014FF011020A
:1055F0000FF0BAFE4FF000037B704FF01103BB7049
:105600004FF02203FB704FF033033B714FF0440324
:105610007B714FF05503BB714FF06603FB714FF088
:1056200077033B724FF002033B70BB8A3A4600920D
:1056300018464FF002014FF000024FF0000300F057
:10564000ADF9BB8A03F10103BB823B4618464FF01C
:1056500000014FF011020FF087FE4FF00003FB75C1
:1056600013E0BB8A3A46009218464FF003014FF010
:1056700000024FF0000300F091F9BB8A03F101032F
:10568000BB82FB7D03F10103FB75FB7D072BE8D992
:1056900007F11807BD4680BDB0B588B000AF44F62D
:1056A000F853C2F2000393F84C3103F1010148F6BC
:1056B0003963C3F6E30383FB01234FEA63024FEA36
:1056C000E173D21A13464FEAC3039B18CA1AD2B227
:1056D00044F6F853C2F2000383F84C2144F6F85321
:1056E000C2F2000393F84C313B7044F6F853C2F217
:1056F000000393F84C31194644F6F852C2F2000206
:105700000B464FEAC3035B184FEA8303D3181B8889
:10571000A7F8013044F6F853C2F2000393F84C3175
:10572000194644F6F852C2F200020B464FEAC30390
:105730005B184FEA8303D3189B78FB7044F6F85349
:10574000C2F2000393F84C31194644F6F852C2F203
:1057500000020B464FEAC3035B184FEA8303D318DA
:10576000DB783B7144F6F853C2F2000393F84C31F6
:10577000194644F6F852C2F200020B464FEAC30340
:105780005B184FEA8303D3181B797B7144F6F853F7
:10579000C2F2000393F84C311A4613464FEAC30392
:1057A0009B184FEA830344F6F852C2F200029B189A
:1057B00003F1050207F10603156854689068D16883
:1057C0001D605C609860D960127C1A7444F6F853CE
:1057D000C2F2000393F84C31194644F6F852C2F273
:1057E00000020B464FEAC3035B184FEA8303D3184A
:1057F00003F110039B79FB7544F6F853C2F20003E2
:1058000093F84C31194644F6F852C2F200020B46A6
:105810004FEAC3035B184FEA8303D31803F1100365
:10582000DB793B7644F6F853C2F2000393F84C312F
:10583000194644F6F852C2F200020B464FEAC3037F
:105840005B184FEA8303D31803F118031B787B76A8
:1058500044F6F853C2F2000393F84C311A4613464B
:105860004FEAC3039B184FEA830303F1180244F67F
:10587000F853C2F20003D31803F1010207F11A032F
:105880001168196012791A713B464FF006001946EB
:105890004FF01F0208F0ECFD4FF00103184607F12E
:1058A0002007BD46B0BD00BF80B582B000AF44F652
:1058B000F853C2F2000393F84A313B7144F6F853AF
:1058C000C2F2000393F84B317B7107F104034FF0F0
:1058D000070019464FF0020208F0CAFD4FF001031D
:1058E000184607F10807BD4680BD00BF80B582B0ED
:1058F00000AF0346FB800DF015FB44F6F853C2F2EF
:105900000003FA88A3F848210DF000FB07F108070F
:10591000BD4680BD80B586B000AF0346B9607A60F1
:10592000FB8144F6F853C2F200037B611FE07B6900
:1059300003F10503B868194607F058F90346002B30
:1059400011D07B691B88FA899A420CD17B699A78BD
:105950007B681A727B69DA787B685A727B691A797C
:105960007B681A7313E07B6903F124037B617A6916
:10597000094B9A42DBD97B684FF000021A727B68B0
:105980004FF000025A727B684FF000021A7307F161
:105990001807BD4680BD00BF184F002080B586B0F7
:1059A00000AFF88079713A71FB700DF0BBFA44F6E4
:1059B000F853C2F200037B6103E07B6903F1240327
:1059C0007B617B699B78002B03D07A693E4B9A42BE
:1059D000F3D97A693C4B9A420ED90DF097FA4FF001
:1059E0000E004FF017014FF000024FF0000308F0D7
:1059F0006FFE4FF0010362E07B69FA881A807B69D1
:105A00007A799A707B693A79DA707B69FA781A71D7
:105A10007B6903F105031846396A4FF011020FF054
:105A2000F5FB44F6F853C2F20003D3F84431002BDF
:105A30000AD17B697A691A6244F6F853C2F200030C
:105A40007A69C3F8442136E044F6F853C2F2000301
:105A5000D3F844313B613B691B6AFB603B691A88A0
:105A60007B691B889A4205D27B691A88FB681B8870
:105A70009A421AD33B691A887B691B889A4205D2DD
:105A8000FB681A883B691B889A420ED97B691A8881
:105A9000FB681B889A4205D2FB681A883B691B8801
:105AA0009A4202D9FB683B61D5E73B697A691A6281
:105AB0007B69FA681A620DF029FA4FF00003184664
:105AC00007F11807BD4680BD184F002080B584B08F
:105AD00000AF03463960FB800DF024FA44F6F8531A
