:020000040020DA
:1000000000460020D1192100B5192100C119210095
:10001000C9192100C9192100C919210000000000D7
:10002000000000000000000000000000C9192100CD
:10003000C919210000000000C9192100C9192100B7
:10004000C9192100C9192100C9192100C9192100A4
:1000500000000000C9192100C9192100C919210097
:10006000C91921000000000000000000000000008D
:100070000000000000000000C9192100000000007D
:100080000000000000000000C9192100C91921006A
:10009000C9192100C9192100C9192100C919210054
:1000A000C9192100C9192100C9192100C919210044
:1000B000C9192100C9192100C9192100C919210034
:1000C000C9192100C9192100C9192100C919210024
:1000D000C91921000000000000000000000000001D
:1000E0000000000000000000000000000000000010
:1000F000C919210000000000C9192100C9192100F7
:1001000000000000000000000000000000000000EF
:1001100000000000000000000000000000000000DF
:1001200000000000000000000000000000000000CF
:1001300000000000000000000000000000000000BF
:1001400000000000000000000000000000000000AF
:10015000000000000000000000000000000000009F
:10016000000000000000000000000000000000008F
:10017000000000000000000000000000000000007F
:10018000000000000000000000000000000000006F
:10019000000000000000000000000000000000005F
:1001A000000000000000000000000000000000004F
:1001B000000000000000000000000000000000003F
:1001C000000000000000000000000000000000002F
:1001D000000000000000000000000000000000001F
:1001E000000000000000000000000000000000000F
:1001F00000000000000000000000000000000000FF
:1002000000000000000000000000000000000000EE
:1002100000000000000000000000000000000000DE
:1002200000000000000000000000000000000000CE
:1002300000000000000000000000000000000000BE
:1002400000000000000000000000000000000000AE
:10025000000000000000000000000000000000009E
:10026000000000000000000000000000000000008E
:10027000C9192100C9192100C9192100C919210072
:10028000C9192100C9192100C919210080B500AF81
:1002900044F20060C2F200004FF000014FF045024E
:1002A00012F0AAF844F20063C2F200034FF0000219
:1002B0001A7044F20063C2F200034FF004025A7055
:1002C00044F20063C2F200034FF0CA029A7044F293
:1002D0000063C2F200034FF0FE02DA7044F20063E2
:1002E000C2F200034FF0050283F834200B484FF0B0
:1002F00000014FF0080212F07FF844F20063C2F2EE
:1003000000034FF0020283F82320054810F050FB51
:100310000448054900F098FE80BD00BF3546002026
:1003200024460020234600201246002080B582B0DB
:1003300000AF0EF0B9FF44F20063C2F200031B7875
:10034000FB710EF0A5FFFB79184607F10807BD46C3
:1003500080BD00BF80B582B000AF0346FB710EF0D8
:10036000A3FF44F20063C2F20003FA791A7006F0A8
:100370000FF90EF08DFF07F10807BD4680BD00BFE5
:1003800080B584B000AF0346FB710EF08DFFFB79A2
:1003900003F1FF33042B19D801A252F823F000BF58
:1003A000B5032000BB032000CD032000C1032000C3
:1003B000C7032000114BFB6017E0114BFB6014E0FA
:1003C000104BFB6011E0104BFB600EE0FB799BB221
:1003D0004FF002004FF031011A464FF000030DF0CC
:1003E00029FB4FF00003FB6000BF0EF051FFFB68DC
:1003F000184607F11007BD4680BD00BF1246002019
:10040000234600200146002034460020B0B582B0CB
:1004100000AF78600EF048FF7B681B7803F1FF3374
:10042000042B53D801A252F823F000BF410420004E
:1004300065042000CD04200089042000AD042000C4
:1004400044F20063C2F200037A6803F112031568F4
:1004500054689068D1681D605C609860D960127CB7
:100460001A7443E044F20063C2F200037A6803F1B5
:100470002303156854689068D1681D605C609860BB
:10048000D960127C1A7431E044F20063C2F20003B6
:100490007A6803F10103156854689068D1681D609B
:1004A0005C609860D960127C1A741FE044F20063AB
:1004B000C2F200037A6803F13404154628686968BB
:1004C000AA68EB680FC42B7C23700FE07B681B7855
:1004D0004FF002004FF031011A464FF001030DF0CA
:1004E000A9FA0EF0D5FE4FF0010303E00EF0D0FEA6
:1004F0004FF00003184607F10807BD46B0BD00BF26
:1005000080B588B000AF78600EF0CEFE7B681B78B7
:1005100003F1FF33042B5BD801A252F823F000BF94
:1005200035052000490520005D052000A9052000B3
:10053000BD0520007868304900F092FE0346FB7745
:100540000EF0A6FEFB7F52E078682C4900F088FE92
:100550000346FB770EF09CFEFB7F48E04FF0030361
:100560003B7344F20063C2F2000307F10D0203F192
:10057000350319685B681160536044F20063C2F28E
:10058000000307F1150203F1240303CB106051604F
:1005900007F10C037868194600F062FE0346FB770A
:1005A0000EF076FEFB7F22E07868154900F058FED9
:1005B0000346FB770EF06CFEFB7F18E0786811496C
:1005C00000F04EFE0346FB770EF062FEFB7F0EE06E
:1005D0007B681B784FF002004FF031011A464FF054
:1005E00002030DF027FA0EF053FE4FF000031846F9
:1005F00007F12007BD4680BD12460020234600209B
:10060000014600203446002080B58CB000AF07F1D1
:10061000240318464FF009010DF046FA034687F807
:100620002F3097F82F30092B0CD097F82F309BB232
:100630004FF002004FF034011A464FF000030DF066
:10064000E1F94BE097F82430542B0ED0592B02D00F
:100650004E2B05D018E04FF00100FFF77BFE13E0B2
:100660004FF00000FFF776FE0EE0FFF75FFE034657
:10067000002B04D04FF00000FFF76CFE03E04FF0BA
:100680000100FFF767FE00BF4FF005033B7407F161
:10069000110307F125021168526819605A6007F1C9
:1006A00010031846FFF7B2FE44F20062C2F20002E5
:1006B0003B4602F135021068516803C344F20063FF
:1006C000C2F2000307F1080203F1240393E80300D8
:1006D00082E803003B46184603F02CFE07F1300782
:1006E000BD4680BD80B586B000AF44F20063C2F263
:1006F00000031B783B7044F20063C2F2000307F171
:10070000010203F102031B88138044F20063C2F26A
:10071000000307F1030203F113031B88138044F263
:100720000063C2F2000307F1050203F1240303CBC7
:100730001060516044F20063C2F2000307F10D0241
:1007400003F1350319685B68116053603B464FF055
:10075000010019464FF015020DF03CF84FF001036F
:10076000184607F11807BD4680BD00BF80B582B0AE
:1007700000AF4FF00003FB7112E0FA7913464FEA25
:1007800003139B1A4FEA031344F24862C2F20002B9
:100790009B18184600F024FBFB7903F10103FB7161
:1007A000FB79092BE9D907F10807BD4680BD00BFD9
:1007B00080B586B000AF4FF00003FB752DE0F87DEB
:1007C000F97D44F24862C2F200020B464FEA03137D
:1007D0005B1A4FEA0313D3181A784FEA400307F164
:1007E0001801CB1803F8182CF87DF97D44F2486203
:1007F000C2F200020B464FEA03135B1A4FEA0313DF
:10080000D3185A784FEA400307F11801CB1803F8C0
:10081000172CFB7D03F10103FB75FB7D092BCED962
:100820003B464FF0080019464FF014020CF0D2FF7F
:100830004FF00103184607F11807BD4680BD00BF01
:1008400080B584B000AF0346FB710EF02DFD0BF0B8
:10085000E3FD034683F00103DBB2002B07D0FB79F5
:10086000092B04D90EF014FD4FF0000349E04FF0BE
:100870000003FB733EE0F97B44F24862C2F20002DF
:100880000B464FEA03135B1A4FEA0313D3185B7846
:10089000002B2BD1F97B44F24862C2F200020B46D6
:1008A0004FEA03135B1A4FEA0313D318FA791A704D
:1008B000F97B44F24862C2F200020B464FEA03138E
:1008C0005B1A4FEA0313D3184FF003025A700EF06D
:1008D000DFFCFA7B13464FEA03139B1A4FEA03131C
:1008E00044F24862C2F200029B180AE0FB7B03F16B
:1008F0000103FB73FB7B092BBDD90EF0C9FC4FF044
:100900000003184607F11007BD4680BD80B584B0CE
:1009100000AF78600EF0C8FC4FF00003FB733FE0BF
:10092000FA7B13464FEA03139B1A4FEA031344F270
:100930004862C2F200029A187B689A422CD1F97B75
:1009400044F24862C2F200020B464FEA03135B1AFC
:100950004FEA0313D3185B78002B09D14FF0030043
:100960004FF02D014FF000024FF000030DF062F840
:10097000FA7B13464FEA03139B1A4FEA031344F220
:100980004862C2F200029B18184600F029FA0EF0E5
:100990007FFC4FF0000314E0FB7B03F10103FB73CA
:1009A000FB7B092BBCD94FF003004FF02E014FF019
:1009B00000024FF000030DF03DF80EF069FC4FF01F
:1009C0000103184607F11007BD4680BD80B584B00D
:1009D00000AF0346FB710EF067FC4FF00003FB73A2
:1009E00022E0F97B44F24862C2F200020B464FEA71
:1009F00003135B1A4FEA0313D3181B78FA799A4250
:100A00000ED1FA7B13464FEA03139B1A4FEA0313E6
:100A100044F24862C2F200029B18184600F0E0F966
:100A2000FB7B03F10103FB73FB7B092BD9D90EF090
:100A30002FFC07F11007BD4680BD00BF80B584B014
:100A400000AF0346FB710EF02FFC4FF00003FB7369
:100A500022E0F97B44F24862C2F200020B464FEA00
:100A600003135B1A4FEA0313D3185B78FA799A429F
:100A70000ED1FA7B13464FEA03139B1A4FEA031376
:100A800044F24862C2F200029B18184600F0A8F92E
:100A9000FB7B03F10103FB73FB7B092BD9D90EF020
:100AA000F7FB07F11007BD4680BD00BF80B582B0DF
:100AB00000AF0EF0F9FB4FF00003FB7130E0F97965
:100AC00044F24862C2F200020B464FEA03135B1A7B
:100AD0004FEA0313D3185B780B2B1DD1F97944F23D
:100AE0004862C2F200020B464FEA03135B1A4FEA58
:100AF0000313D3181B78092B0ED00EF0C9FBFA791B
:100B000013464FEA03139B1A4FEA031344F2486259
:100B1000C2F200029B180AE0FB7903F10103FB71AA
:100B2000FB79092BCBD90EF0B3FB4FF0000318462D
:100B300007F10807BD4680BD80B582B000AF0EF05A
:100B4000B3FB4FF00003FB7130E0F97944F24862E7
:100B5000C2F200020B464FEA03135B1A4FEA03137B
:100B6000D3185B780B2B1DD1F97944F24862C2F29D
:100B700000020B464FEA03135B1A4FEA0313D31824
:100B80001B78092B0ED10EF083FBFA7913464FEA3E
:100B900003139B1A4FEA031344F24862C2F20002A5
:100BA0009B180AE0FB7903F10103FB71FB79092B28
:100BB000CBD90EF06DFB4FF00003184607F1080784
:100BC000BD4680BD80B584B000AF78600EF06CFB90
:100BD0007B681B78022B3ED14FF00003FB7336E09D
:100BE000F97B44F24862C2F200020B464FEA03135B
:100BF0005B1A4FEA0313D3185B780A2B23D1FA7BD5
:100C000013464FEA03139B1A4FEA031303F138020A
:100C100044F24863C2F20003D3187868194600F022
:100C20001FFB0346002B0ED00EF032FBFA7B13465F
:100C30004FEA03139B1A4FEA031344F24862C2F2CD
:100C400000029B186DE0FB7B03F10103FB73FB7B50
:100C5000092BC5D961E07B681B78062B5DD14FF06D
:100C60000003FB7356E0F97B44F24862C2F20002D3
:100C70000B464FEA03135B1A4FEA0313D3185B7852
:100C80000A2B43D1F97B44F24862C2F200020B46C0
:100C90004FEA03135B1A4FEA0313D3181B780C2B8C
:100CA00025D1F97B44F24862C2F200020B464FEABA
:100CB00003135B1A4FEA0313D3181B780C2B25D1AF
:100CC000FA7B13464FEA03139B1A4FEA031303F10F
:100CD000380244F24863C2F20003D318184600F009
:100CE0001FFA034683F00103DBB2002B0ED00EF097
:100CF000CFFAFA7B13464FEA03139B1A4FEA03130A
:100D000044F24862C2F200029B180AE0FB7B03F146
:100D10000103FB73FB7B092BA5D90EF0B9FA4FF049
:100D20000003184607F11007BD4680BD80B582B0AC
:100D300000AF0EF0B9FA4FF00003FB7144E0F9790F
:100D400044F24862C2F200020B464FEA03135B1AF8
:100D50004FEA0313D3185B780A2B31D1F97944F2A7
:100D60004862C2F200020B464FEA03135B1A4FEAD5
:100D70000313D3181B780C2B22D1FA7913464FEAB0
:100D800003139B1A4FEA031303F1380244F248633A
:100D9000C2F20003D318184600F0C2F90346002B34
:100DA0000ED00EF075FAFA7913464FEA03139B1A28
:100DB0004FEA031344F24862C2F200029B180AE0B1
:100DC000FB7903F10103FB71FB79092BB7D90EF015
:100DD0005FFA4FF00003184607F10807BD4680BDD3
:100DE00080B483B000AF78607B684FF000021A7067
:100DF0007B684FF000025A707B6803F1EA027B685F
:100E00005A607B684FF000021A727B684FF0FA025A
:100E10005A727B684FF000025A757B684FF00002EF
:100E200083F826207B684FF0000283F838207B6827
:100E30004FF0050283F849207B684FF0000283F8E9
:100E40004B207B684FF0000283F8652007F10C0708
:100E5000BD4680BC704700BF98B500AF44F6A8738C
:100E6000C2F200034FF000021A8044F6A873C2F2E7
:100E700000031C884FF00100FFF782FA03465B78FD
:100E80004FEA03239BB2E3189AB244F6A873C2F266
:100E900000031A8044F6A873C2F200031C884FF0C6
:100EA0000100FFF76DFA03469B78E3189AB244F607
:100EB000A873C2F200031A8098BD00BF80B483B04B
:100EC00000AF4FF00003BB804FF00003FB7134E034
:100ED00044F6A873C2F200031B8803F00102FB79F9
:100EE00002FA03F39AB2BB8813439BB2BB8044F669
:100EF000A873C2F200031B884FEA53039BB29AB255
:100F000044F6A873C2F200031B8803F001039BB2EE
:100F1000C3F100039BB29BB223F4974323F07F03FA
:100F20009BB253409BB29AB244F6A873C2F200033C
:100F30001A80FB7903F10103FB71FB790F2BC7D9F1
:100F4000BB88184607F10C07BD4680BC704700BF40
:100F500080B584B000AFF860B9607A60FB681B7838
:100F6000032B0FD0FB681B784FF005004FF03101C9
:100F70001A464FF000030CF05DFD7B684FF0000255
:100F80001A701FE0BB684FF005021A70BB6803F1CE
:100F90000102FB6803F10103104619464FF00802F5
:100FA00011F07CF97B684FF002021A707B6803F144
:100FB0000102FB6803F10903104619464FF00802CD
:100FC00011F06CF907F11007BD4680BD80B584B003
:100FD00000AFF860B9607A60FB681B78052B03D11D
:100FE000BB681B78022B0FD0FB681B784FF0050005
:100FF0004FF031011A464FF001030CF01BFD7B68E6
:101000004FF000021A701BE07B684FF003021A7069
:101010007B6803F10102FB6803F1010310461946E6
:101020004FF0080211F03AF97B6803F10902BB683E
:1010300003F10103104619464FF0080211F02EF992
:1010400007F11007BD4680BD80B582B000AF786063
:1010500039607B681B78022B0FD07B681B784FF0C0
:1010600005004FF031011A464FF002030CF0E2FC8C
:101070003B684FF000021A700BE03B684FF0010232
:101080001A707B68DA793B685A707B681A7A3B6819
:101090009A7007F10807BD4680BD00BF80B582B0D9
:1010A00000AF786039607B681B78012B0FD07B68BC
:1010B0001B784FF005004FF031011A464FF0030343
:1010C0000CF0B8FC3B684FF000021A7023E03B685C
:1010D0004FF002021A703B684FF000025A703B68F2
:1010E0004FF000029A703B684FF00002DA703B68E4
:1010F0004FF000021A713B684FF000025A713B68D2
:101100004FF000029A717B685A783B68DA717B680D
:101110009A783B681A7207F10807BD4680BD00BF88
:1011200080B584B000AF78607B681B78032B09D151
:101130007B685B78FF2B02D14FF0010336E04FF064
:10114000000333E07B681B78012B02D0022B04D014
:1011500007E04FF00203BB7311E04FF00803BB73CD
:101160000DE07B681B784FF005004FF031011A4607
:101170004FF004030CF05EFC4FF0000316E04FF05C
:101180000003FB730CE0FB7B7A68D3185B78FF2BC2
:1011900002D04FF0000309E0FB7B03F10103FB7376
:1011A000FA7BBB7B9A42EED34FF00103184607F15E
:1011B0001007BD4680BD00BF80B483B000AF78602B
:1011C0007B681B78032B42D17B685B78FF2B3ED179
:1011D0007B689B78022B3AD17B68DB78002B36D179
:1011E0007B681B79002B32D17B685B79002B2ED179
:1011F0007B689B79002B2AD17B68DB79002B26D179
:101200007B681B7A002B22D17B685B7A002B1ED176
:101210007B689B7A002B1AD17B68DB7A002B16D176
:101220007B681B7B002B12D17B685B7B002B0ED174
:101230007B689B7B002B0AD17B68DB7B002B06D174
:101240007B681B7C022B02D14FF0010301E04FF0C1
:101250000003184607F10C07BD4680BC704700BF6D
:1012600080B584B000AF786039607B681A783B68DD
:101270001B789A4202D04FF0000341E07B681B7854
:10128000062B1BD84FF0010202FA03F303F04802C9
:10129000002A0FD103F02402002A07D103F0120321
:1012A000002B0BD04FF00203FB7315E04FF0080347
:1012B000FB7311E04FF01003FB730DE07B681B78AC
:1012C0004FF005004FF031011A464FF005030CF0C6
:1012D000B1FB4FF0000313E07B6803F101013B68B1
:1012E00003F10102FB7B084611461A4610F07AFF13
:1012F0000346002B02D14FF0010301E04FF0000341
:10130000184607F11007BD4680BD00BF80B586B006
:1013100000AFF8607A600A46FA72BB727B68FA7AAC
:101320001A70FB7A03F1FF33042B19D801A252F88B
:1013300023F000BF4913200051132000591320004F
:1013400049132000511320004FF00203BB7513E036
:101350004FF00803BB750FE04FF01003BB750BE0B7
:10136000FB7A9BB24FF005004FF031011A464FF067
:1013700006030CF05FFB23E04FF00003FB751BE05E
:10138000BB7A002B0CD0BB7D03F1FF32FB7DD31A5F
:10139000FA7DF9688A1812787968CB185A7007E0D4
:1013A000FB7DFA7DF9688A1812787968CB185A7033
:1013B000FB7D03F10103FB75FA7DBB7D9A42DFD310
:1013C00007F11807BD4680BD80B586B000AFF86054
:1013D000B9601346FB71BB681B7803F1FF33042B24
:1013E00018D801A252F823F0FD13200005142000A4
:1013F0000D142000FD132000051420004FF00203FF
:10140000BB7513E04FF00803BB750FE04FF01003FE
:10141000BB750BE0BB681B784FF005004FF0310146
:101420001A464FF007030CF005FB2EE04FF00003C7
:10143000FB7526E0FB685B6803F1FF32FB685A60CE
:10144000FB681B7A03F10103DAB2FB681A72FB79BD
:10145000002B07D0FB685B68FA7DB9688A18527860
:101460001A700AE0FB685B68BA7D02F1FF31FA7D11
:101470008A1AB9688A1852781A70FB7D03F1010341
:10148000FB75FA7DBB7D9A42D4D307F11807BD46A0
:1014900080BD00BF80B582B000AF78600B46FB70A6
:1014A0007B685A68FB78C3F10003D2187B685A60E6
:1014B0007B681A7AFB78D318DAB27B681A727B6879
:1014C0005A687B6803F16B039A4209D27B681B7AE6
:1014D0004FF005004FF033014FF000020CF0AAFA74
:1014E00007F10807BD4680BD80B582B000AF7860C7
:1014F0000B46FB707B685A68FB78D2187B685A6091
:101500007B681A7AFB78D31ADAB27B681A727B6826
:101510005A687B6803F1E9039A4209D97B681B7A10
:101520004FF005004FF033014FF001020CF06AFA62
:1015300007F10807BD4680BD80B582B000AF786076
:101540000B46FB707B681A7AFB78D318DAB27B689B
:101550001A727B681B7ADBB25BB2002B09DA7B68FC
:101560001B7A4FF005004FF033014FF002020CF0F0
:1015700049FA07F10807BD4680BD00BF80B582B0BB
:1015800000AF78600B46FB707B681A7AFB78D31A41
:10159000DAB27B681A727B681B7A802B09D97B6868
:1015A0001B7A4FF005004FF033014FF003020CF0AF
:1015B00029FA07F10807BD4680BD00BF80B584B099
:1015C00000AF786039604FF000033B734FF00003C9
:1015D0007B734FF00500FEF7D3FE034603F10103D2
:1015E00007F10C02104619464FF0080200F066F8A9
:1015F0004FF00200FEF7C4FE034603F1010307F1BA
:101600000C02104619464FF0080200F057F87B68AC
:1016100003F1160307F10C02104619464FF01002B1
:1016200000F04CF84FF000033B727B681B7A7B7232
:1016300007F10C0207F10803104619464FF00202A9
:1016400000F03CF84FF000033B727B685B7A7B72E2
:1016500007F10C0207F10803104619464FF0020289
:1016600000F02CF83B684FF000021A703B6803F161
:1016700001034FF000021A707B685A687B681B7A7E
:1016800007F10C01084611461A4600F017F83B7B9B
:101690006FEA0303DBB23B737B7B6FEA0303DBB2CE
:1016A0007B733A7B3B681A703B6803F101037A7BDA
:1016B0001A7007F11007BD4680BD00BF80B487B027
:1016C00000AFF860B9607A60FB681B784FEA0322CC
:1016D000FB6803F101031B7813434FEA03434FEA0E
:1016E00013437B6117E0BB681B784FEA0322BB689A
:1016F00003F101031B7813434FEA03434FEA1343FB
:101700007A69D3187B61BB6803F10203BB607B6815
:10171000A3F102037B607B68012BE4DC7B68002B78
:1017200012D0BB681B784FEA03237A69D3187B6118
:101730000AE07B694FEA03434FEA13437A694FEAB1
:1017400012429B187B6100E000BF7B694FEA1343A4
:10175000002BEED17B694FEA1323DAB2FB681A70D3
:10176000FB6803F101037A69D2B21A7007F11C0712
:10177000BD4680BC704700BF80B483B000AF034655
:101780003960FB80FB884FEA13239BB2DAB23B68D7
:101790001A703B6803F10103FA88D2B21A7007F19C
:1017A0000C07BD4680BC704780B483B000AF786042
:1017B0007B681B784FEA03239AB27B6803F101032D
:1017C0001B7813439BB29BB2184607F10C07BD462A
:1017D00080BC704780B483B000AF786039607B68AC
:1017E0004FEA1363DAB23B681A703B6803F10103F6
:1017F0007A6802F47F024FEA1242D2B21A703B6852
:1018000003F102037A6802F47F424FEA1222D2B255
:101810001A703B6803F103037A68D2B21A7007F1B9
:101820000C07BD4680BC704780B483B000AF7860C1
:101830007B681B784FEA03627B6803F101031B7826
:101840004FEA03431A437B6803F102031B784FEA14
:1018500003231A437B6803F103031B7813431846E1
:1018600007F10C07BD4680BC704700BF80B500AFD4
:1018700044F6AC73C2F200034FF000021A60FFF7A7
:101880001DFB03461A4644F6AC73C2F20003DA802D
:1018900080BD00BF80B59EB000AF78604FF0000300
:1018A00087F86E307B684FF019025A704FF00003D2
:1018B00087F876307B685A6897F87630D3181B78AB
:1018C0004FEA9313DBB287F85C307B685A6897F86D
:1018D0007630D3181B7803F030034FEA2313DBB2C2
:1018E00087F85D307B685A6897F87630D3181B7894
:1018F00003F00F03DBB287F85E3097F8763003F120
:10190000010387F876307B685A6897F87630D318E9
:101910001B7887F85F3097F8763003F1010387F87A
:1019200076307B685A6897F87630D3181B784FEA80
:1019300003239AB27B68596897F8763003F1010364
:10194000CB181B78D3189BB2A7F8603097F8763085
:1019500003F1020387F8763097F85C30012B03D14E
:1019600097F85E30082B0DD997F85C304FF01900CE
:101970004FF006014FF000020CF044F87868FEF7D3
:10198000C5FF1AE27B685A6897F87630D21897F844
:101990005E3007F15C0101F10601084611461A4666
:1019A00010F07CFC97F85E2097F87630D31887F813
:1019B00076304FF0000387F8773010E097F87730F3
:1019C0004FEAC30307F17801CB184FF0000203F888
:1019D0006C2C97F8773003F1010387F8773097F88C
:1019E0007730092BEAD94FF0000387F875304FF0B4
:1019F000000387F8773069E07B685A6897F876309B
:101A0000D3181B78FF2B06D197F8763003F101032A
:101A100087F876305EE097F877307A68516897F803
:101A200076208A1812784FEA1212D1B297F87520F0
:101A30008A18D2B24FEAC30307F17801CB1803F832
:101A40006C2C97F877304FEAC30307F17802D3186C
:101A500013F86C3C87F8753097F877307A685168DE
:101A600097F876208A18127802F00F02D2B24FEA65
:101A7000C30307F17801CB1803F86B2C97F8763085
:101A800003F1010387F8763097F877307A68516868
:101A900097F876208A184FEAC30307F17801CB182C
:101AA00043F8682C97F877304FEAC30307F17802C0
:101AB000D31813F86B2C97F87630D31887F8763054
:101AC00097F8773003F1010387F8773097F877308C
:101AD000092B91D997F8763078681946FFF704FDFD
:101AE0004FF0000387F86F3097F85F30002B00F05D
:101AF000868097F85F30042B00F2818044F6AC7347
:101B0000C2F200031B683B676FE03B7B0B2B3BD1B2
:101B10003B7D0B2B38D13B6F1B78002B34D03B6FB8
:101B20005B68002B30D03B6F1B7A002B2CD03B6FB7
:101B3000DB68002B28D07A7B3B6F1B789A4245D11B
:101B400039693B6F5A683B6F1B78084611461A4645
:101B500010F048FB0346002B38D17A7D3B6F1B7A8F
:101B60009A4233D1B9693B6FDA683B6F1B7A0846FA
:101B700011461A4610F036FB0346002B26D14FF0D3
:101B8000010387F86F3021E03B7B0B2B1FD13B6FAC
:101B90001B78002B1BD03B6F5B68002B17D07A7B28
:101BA0003B6F1B789A4212D139693B6F5A683B6F81
:101BB0001B78084611461A4610F014FB0346002B0A
:101BC00005D14FF0010387F86F3000E000BF97F8B0
:101BD0006F3083F00103DBB2002B06D03B6F1B6A32
:101BE000002B0AD03B6F1B6A3B6797F86F3083F07E
:101BF0000103DBB2002B88D139E000BF37E044F6A7
:101C0000AC73C2F200031B683B6723E0B7F86020A7
:101C10003B6F5B8A9A420FD14FF0010387F86F3018
:101C20003B6F9B69002B07D03B6F9B6907F15C0101
:101C300007F10C027868984797F86F3083F001033A
:101C4000DBB2002B06D03B6F1B6A002B0AD03B6F28
:101C50001B6A3B6797F86F3083F00103DBB2002B00
:101C6000D4D100E000BF7868FEF750FEA5E097F8F9
:101C70006F30002B0BD03B6F9B6907F15C0107F1C4
:101C80000C0278689847034687F86E3010E07B684E
:101C900003F1EA027B685A607B684FF000021A7217
:101CA0004FF0000387F85E304FF0840387F85F3011
:101CB00097F86E30012B10D17B6803F1EA027B6844
:101CC0005A607B684FF000021A724FF0000387F8E9
:101CD0005E304FF0850387F85F3097F86F30002B48
:101CE00004D03B6F1A7C7B681A7003E07B684FF06E
:101CF00019021A707B684FF011025A727B68DB89F7
:101D0000A7F86C307B689A897B68DA817B68B7F8C2
:101D10006C209A817B684FF003025A757B6803F14F
:101D200016027B6803F12703104619464FF0100294
:101D300010F0B4FA97F85E3003F10403DBB2786870
:101D40001946FFF7A7FB7B685B6897F85E2042F0B7
:101D50006002D2B21A707B685B6803F1010397F8E6
:101D60005F201A707B685B6803F10203B7F860209C
:101D70004FEA122292B2D2B21A707B685B6803F10A
:101D80000303B7F86020D2B21A707B685B6803F176
:101D9000040197F85E3007F15C0202F10602084682
:101DA00011461A4610F07AFA786801F00FFB0346E4
:101DB000012B02D17868FEF7A9FD07F17807BD462F
:101DC00080BD00BF80B584B000AF78600B46FB706B
:101DD0007B684FF019025A707B681B78192B03D16E
:101DE0007868FEF793FD2AE044F6AC73C2F2000374
:101DF0001B68FB6013E0FB681A7C7B681B789A42C7
:101E00000AD1FB68DB69002B06D0FB68DB69FA7836
:101E100078681146984712E0FB681B6AFB60FB6814
:101E2000002BE8D14FF019004FF02B014FF00002CA
:101E30004FF000030BF0E6FD7868FEF767FD07F151
:101E40001007BD4680BD00BF80B584B000AF78608C
:101E500044F6AC73C2F200031B68FB605BE0786879
:101E60004FF00101FFF716FB7B685B684FF03E0205
:101E70001A70FB681B7A002B1AD0FB681B7A7868F3
:101E80001946FFF707FB7B685968FB68DA68FB684F
:101E90001B7A084611461A4610F000FA78684FF08F
:101EA0000101FFF7F7FA7B685B684FF02F021A70A9
:101EB000FB681B7878681946FFF7ECFA7B6859686D
:101EC000FB685A68FB681B78084611461A4610F0F2
:101ED000E5F978684FF00201FFF7DCFA7B685B6890
:101EE00003F101034FF02F021A707B685B684FF01B
:101EF0003C021A70FB681B6A002B09D078684FF00F
:101F00000101FFF7C7FA7B685B684FF02C021A707B
:101F1000FB681B6AFB60FB68002BA0D107F1100770
:101F2000BD4680BD80B485B000AF78607B684FF05F
:101F300000021A6244F6AC73C2F200031B68002B65
:101F400006D144F6AC73C2F200037A681A6010E05E
:101F500044F6AC73C2F200031B68FB6002E0FB684E
:101F60001B6AFB60FB681B6A002BF8D1FB687A6870
:101F70001A6207F11407BD4680BC704780B500AFF8
:101F800044F6B470C2F200004FF000014FF030028E
:101F900010F032FA01F082F980BD00BFB0B584B014
:101FA00002AF78607B684FF017025A7044F6B47342
:101FB000C2F200031B78062B10D044F6B473C2F2B1
:101FC00000031B784FF017004FF007011A464FF03F
:101FD00002030BF017FD4FF0010378E044F6B473F1
:101FE000C2F200035B6A002B0CD04FF017004FF0D9
:101FF0002A014FF000024FF000030BF003FD4FF0F9
:10200000010364E07B684FF006025A7244F6B47331
:10201000C2F200031A897B689A8144F6B473C2F253
:1020200000031A8A7B68DA817B685A687B681A61C8
:102030007B681A7A7B681A757B6803F1150344F68E
:10204000B472C2F2000202F112021568546890687C
:10205000D1681D605C609860D960127C1A7444F687
:10206000B473C2F200037A685A6244F6B473C2F2DF
:1020700000035B6A4FF0000200924FF000020192F1
:1020800018464FF001014FF001024FF0000300F03D
:10209000C3FF44F6B473C2F200035A6844F6B47343
:1020A000C2F200035B6A1B7DD21844F6B473C2F21D
:1020B00000035A604FF0070001F026F944F6B473AC
:1020C000C2F200035B6A184601F0EAFA03461846BA
:1020D00007F10807BD46B0BDB0B586B002AF786065
:1020E0000B46FB707B684FF017025A7044F6B473CE
:1020F000C2F200031B7803F1FF33122B00F20481BC
:1021000001A252F823F000BF65212000092320001E
:1021100055212000092320007521200009232000DB
:10212000BB21200009232000C521200027222000F8
:102130000923200037222000092320000923200042
:1021400047222000092320005B22200009232000D1
:10215000F92220007868FEF7D9FB4FF0040001F067
:10216000D3F8E0E07868FEF7D1FB4FF0020001F011
:10217000CBF8D8E07868FEF7C9FB4FF0060001F015
:10218000C3F844F6B473C2F200031B89072B04D1D1
:102190004FF000000AF03AFE0EE044F6B473C2F2CB
:1021A00000031B894FF017004FF009011A464FF04A
:1021B00000030BF027FC00BFB5E04FF0080001F072
:1021C000A3F8B0E07868FEF7A1FB4FF0060001F03D
:1021D0009BF844F6B473C2F200031B89072B08D1A5
:1021E00044F6B473C2F200039B6A18460AF0C4FDB9
:1021F00018E044F6B473C2F200031B894FF01700D5
:102200004FF009011A464FF001030BF0FBFB786811
:10221000FEF77CFB44F6B473C2F200034FF00002F9
:102220009A6200BF7FE07868FEF770FB4FF00B000A
:1022300001F06AF877E07868FEF768FB4FF00D0070
:1022400001F062F86FE07868FEF760FB4FF0100075
:1022500001F05AF801F022F865E07868FEF756FBC5
:102260004FF0120001F050F84FF01700FEF7E8FAB7
:10227000F860FB68002B0DD14FF017004FF02C01D8
:102280004FF000024FF000030BF0BCFB7868FEF744
:102290003DFB48E0FB684FF017021A70FB684FF0F7
:1022A00017025A70FB6803F1150344F6B472C2F2C8
:1022B000000202F11202156854689068D1681D602E
:1022C0005C609860D960127C1A744FF00003009330
:1022D0004FF001030193F8684FF001014FF0000245
:1022E0004FF0000300F098FEF86801F0D9F94FF0C4
:1022F000130001F009F816E07868FEF707FB4FF0CD
:10230000140001F001F80EE044F6B473C2F20003C9
:102310001B784FF017004FF007011A464FF00303E8
:102320000BF070FB00BF07F11007BD46B0BD00BF4A
:10233000B0B586B002AF78607B684FF017025A7074
:102340007B684FF006025A727B685A687B681A6194
:102350007B681A7A7B681A757B685B681846FFF79A
:1023600023FA03461A467B689A817B685B6803F10F
:1023700002031846FFF718FA03461A467B68DA810B
:1023800044F6B473C2F200031B78002B23D07B68A1
:10239000DA8944F6B473C2F200031B899A4215D15C
:1023A0007B689A8944F6B473C2F200031B8A9A428E
:1023B0000CD17B6803F115031846C249FEF750FFA4
:1023C000034683F00103DBB2002B04D07868FEF7EC
:1023D0009DFA00F094BD4FF00203009378684FF02F
:1023E00002014FF001024FF0020300F0C5FE034668
:1023F000002B04D000F052FF7868FEF787FA44F60D
:10240000B473C2F200031B78142B00F2698501A299
:1024100052F823F069242000E12E2000D527200067
:10242000E12E2000F5252000E12E200025282000A7
:10243000E12E2000072A2000E12E2000E12E2000BE
:10244000CB2B2000E12E2000852E2000B32D200074
:10245000E12E2000E12E2000E12E2000E12E2000C0
:10246000E12E2000B72E20007B68DB89072B04D1EA
:102470000AF07AFC0346FB730EE07B689B894FF001
:1024800017004FF009011A464FF002030BF0BAFA99
:102490004FF00003FB7300BF4FF000030093786818
:1024A0004FF000014FF000024FF0010300F064FE16
:1024B0000346002B00F08980FB7B002B00F0858019
:1024C0007B68DA8944F6B473C2F200031A817B6830
:1024D0005B6803F104031846FFF7A6F9034603F10E
:1024E000010244F6B473C2F20003DA607B689A8991
:1024F00044F6B473C2F200031A8244F6B473C2F213
:1025000000037A6803F1120302F11502156854689A
:102510009068D1681D605C609860D960127C1A7404
:102520004FF01700FEF78CF9B860BB68002B0ED196
:102530004FF017004FF02C014FF000024FF0000356
:102540000BF060FA7868FEF7E1F900F0D8BCBB68E0
:102550004FF017021A70BB684FF017025A70BB6831
:1025600003F1150344F6B472C2F2000202F1120242
:10257000156854689068D1681D605C609860D96087
:10258000127C1A744FF0010300934FF00003019383
:10259000B8684FF001014FF000024FF0000300F067
:1025A0003BFD44F6B473C2F200035B6803F1010221
:1025B00044F6B473C2F200035A604FF0010000F019
:1025C000A3FEB86801F06CF80FE000F067FE44F677
:1025D000B473C2F200031B784FF017004FF00801EC
:1025E0001A464FF000030BF00DFA7868FEF78EF9EB
:1025F00000F085BC4FF00003009378684FF00101B4
:102600004FF000024FF0010300F0B6FD0346002B2F
:102610005AD07B685B6803F104031846FFF704F99E
:10262000034603F1010244F6B473C2F20003DA6018
:102630004FF01700FEF704F9B860BB68002B0ED10D
:102640004FF017004FF02C014FF000024FF0000345
:102650000BF0D8F97868FEF759F900F050BCBB6868
:102660004FF017021A70BB684FF017025A70BB6820
:1026700003F1150344F6B472C2F2000202F1120231
:10268000156854689068D1681D605C609860D96076
:10269000127C1A744FF0000300934FF00003019373
:1026A000B8684FF001014FF000024FF0000300F056
:1026B000B3FC4FF0050000F027FEB86800F0F0FF13
:1026C00084E000BFC64F00204FF0000300937868FD
:1026D0004FF000014FF000024FF0010300F04CFDFD
:1026E0000346002B62D07B685B6803F10403184645
:1026F000FFF79AF8034603F1010244F6B473C2F2FD
:102700000003DA604FF01700FEF79AF8B860BB6874
:10271000002B0DD14FF017004FF02C014FF00002AD
:102720004FF000030BF06EF97868FEF7EFF8E6E380
:10273000BB684FF017021A70BB684FF017025A704F
:10274000BB6803F1150344F6B472C2F2000202F151
:102750001202156854689068D1681D605C609860CA
:10276000D960127C1A744FF0010300934FF00003FC
:102770000193B8684FF001014FF000024FF00003E1
:1027800000F04AFC44F6B473C2F200035B6803F144
:10279000010244F6B473C2F200035A604FF0010024
:1027A00000F0B2FDB86800F07BFF0FE000F076FDAE
:1027B00044F6B473C2F200031B784FF017004FF0D9
:1027C00008011A464FF001030BF01CF97868FEF778
:1027D0009DF894E34FF00003009378684FF00101F7
:1027E0004FF000024FF0000300F0C6FC0346002B40
:1027F00004D04FF0060000F087FD0FE000F04EFD22
:1028000044F6B473C2F200031B784FF017004FF088
:1028100008011A464FF002030BF0F4F87868FEF74F
:1028200075F86CE34FF00103009378684FF00201F4
:102830004FF000024FF0000300F09EFC0346002B17
:1028400059D07B685B6803F104031846FEF7ECFF80
:1028500002467B681B7AD318A3F1130244F6B473C3
:10286000C2F20003DA604FF01700FDF7E9FFB8602D
:10287000BB68002B0DD14FF017004FF02C014FF02B
:1028800000024FF000030BF0BDF87868FEF73EF849
:1028900035E3BB684FF017021A70BB684FF01702A0
:1028A0005A70BB6803F1150344F6B472C2F2000219
:1028B00002F11202156854689068D1681D605C606E
:1028C0009860D960127C1A744FF0000300934FF0A7
:1028D00000030193B8684FF001014FF000024FF080
:1028E000000300F099FBB86800F0DAFE4FF0110029
:1028F00000F00AFD03E34FF00003009378684FF007
:1029000002014FF000024FF0000300F035FC0346D7
:10291000002B64D07B685B6803F104031846FEF764
:1029200083FF02467B681B7AD318A3F1140244F696
:10293000B473C2F20003DA604FF01700FDF780FFB6
:10294000B860BB68002B0DD14FF017004FF02C0181
:102950004FF000024FF000030BF054F87868FDF7D9
:10296000D5FFCCE2BB684FF017021A70BB684FF07E
:1029700017025A70BB6803F1150344F6B472C2F231
:10298000000202F11202156854689068D1681D6057
:102990005C609860D960127C1A744FF00003009359
:1029A0004FF000030193B8684FF001014FF00002AF
:1029B0004FF0000300F030FBB86800F071FE78685B
:1029C0004FF01401FEF790FD44F6B473C2F2000319
:1029D0007A689A624FF0090000F096FC8FE200F0EE
:1029E0005DFC44F6B473C2F200031B784FF017008D
:1029F0004FF008011A464FF003030BF003F8786814
:102A0000FDF784FF7BE24FF00003009378684FF0FE
:102A100001014FF000024FF0000300F0ADFB034650
:102A2000002B2CD044F6B473C2F200031B89072B91
:102A30000AD144F6B473C2F200035B6A18464FF041
:102A400000010AF0C1F90EE044F6B473C2F20003CB
:102A50001B894FF017004FF009011A464FF003038E
:102A60000AF0D0FF00BF44F6B473C2F200034FF087
:102A700000025A624FF0060000F046FCA1E04FF061
:102A80000103009378684FF002014FF000024FF00D
:102A9000000300F071FB0346002B00F0828044F637
:102AA000B473C2F200031B89072B0AD144F6B47336
:102AB000C2F200035B6A18464FF000010AF084F985
:102AC0000EE044F6B473C2F200031B894FF0170006
:102AD0004FF009011A464FF004030AF093FF00BFBC
:102AE00044F6B473C2F200034FF000025A627B68EE
:102AF0005B6803F104031846FEF796FE02467B6806
:102B00001B7AD318A3F1130244F6B473C2F2000384
:102B1000DA604FF01700FDF793FEB860BB68002B3A
:102B20000DD14FF017004FF02C014FF000024FF085
:102B300000030AF067FF7868FDF7E8FEDFE1BB6895
:102B40004FF017021A70BB684FF017025A70BB683B
:102B500003F1150344F6B472C2F2000202F112024C
:102B6000156854689068D1681D605C609860D96091
:102B7000127C1A744FF0000300934FF0000301938E
:102B8000B8684FF001014FF000024FF0000300F071
:102B900043FAB86800F084FD4FF0110000F0B4FB78
:102BA0000FE000F07BFB44F6B473C2F200031B7825
:102BB0004FF017004FF008011A464FF004030AF0D7
:102BC00021FF7868FDF7A2FE99E14FF00103009321
:102BD00078684FF000014FF000024FF0000300F062
:102BE000CBFA0346002B56D07B685B6803F10403E5
:102BF0001846FEF719FE034603F1010244F6B473CA
:102C0000C2F20003DA604FF01700FDF719FEB8605A
:102C1000BB68002B0DD14FF017004FF02C014FF087
:102C200000024FF000030AF0EDFE7868FDF76EFE3B
:102C300065E1BB684FF017021A70BB684FF01702CE
:102C40005A70BB6803F1150344F6B472C2F2000275
:102C500002F11202156854689068D1681D605C60CA
:102C60009860D960127C1A744FF0000300934FF003
:102C700000030193B8684FF001014FF000024FF0DC
:102C8000000300F0C9F9B86800F00AFD4FF00C002D
:102C900000F03AFB89E04FF00103009378684FF0B1
:102CA00001014FF000024FF0000300F065FA034607
:102CB000002B56D07B685B6803F104031846FEF7CF
:102CC000B3FD034603F1010244F6B473C2F20003FC
:102CD000DA604FF01700FDF7B3FDB860BB68002B5A
:102CE0000DD14FF017004FF02C014FF000024FF0C4
:102CF00000030AF087FE7868FDF708FEFFE0BB6876
:102D00004FF017021A70BB684FF017025A70BB6879
:102D100003F1150344F6B472C2F2000202F112028A
:102D2000156854689068D1681D605C609860D960CF
:102D3000127C1A744FF0000300934FF000030193CC
:102D4000B8684FF001014FF000024FF0000300F0AF
:102D500063F9B86800F0A4FC4FF00F0000F0D4FA5B
:102D600023E04FF00003009378684FF001014FF02B
:102D700000024FF0000300F0FFF90346002B04D0DF
:102D80004FF00E0000F0C0FA0FE000F087FA44F6B2
:102D9000B473C2F200031B784FF017004FF0080124
:102DA0001A464FF005030AF02DFE7868FDF7AEFDD8
:102DB000A5E04FF00103009378684FF002014FF057
:102DC00000024FF0000300F0D7F90346002B55D066
:102DD0007B685B6803F104031846FEF725FD034694
:102DE00003F1010244F6B473C2F20003DA604FF05B
:102DF0001700FDF725FDB860BB68002B0DD14FF023
:102E000017004FF02C014FF000024FF000030AF0C2
:102E1000F9FD7868FDF77AFD71E0BB684FF01702A5
:102E20001A70BB684FF017025A70BB6803F11503A4
:102E300044F6B472C2F2000202F11202156854683C
:102E40009068D1681D605C609860D960127C1A74CB
:102E50004FF0000300934FF000030193B8684FF068
:102E600001014FF000024FF0000300F0D5F8B86800
:102E700000F016FC4FF00F0000F046FA7868FDF7FE
:102E800045FD3CE04FF00003009378684FF00101EE
:102E90004FF000024FF0000300F06EF90346002BE4
:102EA00005D04FF0100000F02FFA00F0F7F9786825
:102EB000FDF72CFD23E04FF00003009378684FF0FE
:102EC00001014FF000024FF0000300F055F90346F6
:102ED000002B01D000F0E2F97868FDF717FD0EE055
:102EE00044F6B473C2F200031B784FF017004FF0A2
:102EF00007011A464FF004030AF084FD00BF07F1F2
:102F00001007BD46B0BD00BFB0B584B002AF44F6F7
:102F1000B473C2F200031B78112B1BD044F6B473B8
:102F2000C2F200031B78122B14D044F6B473C2F221
:102F300000031B78132B0DD044F6B473C2F20003C8
:102F40001B78142B06D044F6B473C2F200031B782E
:102F5000002B02D14FF0000352E04FF01700FDF7B5
:102F60006FFC78607B68002B0CD14FF017004FF09E
:102F70002C014FF000024FF000030AF043FD4FF028
:102F800001033DE07B684FF017021A707B684FF039
:102F900017025A707B6803F1150344F6B472C2F24B
:102FA000000202F11202156854689068D1681D6031
:102FB0005C609860D960127C1A744FF00003009333
:102FC0004FF00103019378684FF001014FF00002C8
:102FD0004FF0000300F020F844F6B473C2F200038F
:102FE0005B6803F1010244F6B473C2F200035A6055
:102FF0004FF00A0000F088F9786800F051FB0346B2
:10300000184607F10807BD46B0BD00BF80B500AF48
:1030100000F044F980BD00BF80B582B000AF786099
:10302000F970BA707B707B684FF006025A7278684C
:103030004FF01401FEF72EFA44F6B473C2F2000307
:103040001A897B685B6810461946FEF795FB44F6C3
:10305000B473C2F200031A8A7B685B6803F102034F
:1030600010461946FEF788FB44F6B473C2F200031B
:103070005A687B685B6803F1040310461946FEF743
:10308000A9FB44F6B473C2F20003DA687B685B689C
:1030900003F1080310461946FEF79CFB7B685B684A
:1030A0004FF050021A737B685B684FF000025A734E
:1030B000FB78002B09D07B685B687A685268527B8A
:1030C00042F01002D2B25A7308E07B685B6803F1E9
:1030D00008034FF000001946FEF77CFBBB78002B7D
:1030E00008D07B685B687A685268527B42F00802BD
:1030F000D2B25A737B78002B08D07B685B687A6801
:103100005268527B42F00402D2B25A733B7C002BCD
:1031100008D07B685B687A685268527B42F0020292
:10312000D2B25A733B7D002B08D07B685B687A680B
:103130005268527B42F00102D2B25A737B685B68DC
:1031400003F10E034FF030001946FEF715FB7B68C4
:103150005B6803F112034FF000001946FEF70CFB09
:103160007B685B6803F1100378681946FEF726FA5E
:1031700007F10807BD4680BD80B485B000AF786018
:10318000F970BA707B704FF00103FB73FB78022B70
:103190001DD0FB7B002B13D07B685B685B7B4FEA09
:1031A0001313DBB203F00103002B0CBF0023012338
:1031B000DBB21A46FB789A4202D14FF0010301E0DC
:1031C0004FF00003FB73FB7B03F00103FB73BB7841
:1031D000022B1DD0FB7B002B13D07B685B685B7BD5
:1031E0004FEA9303DBB203F00103002B0CBF002373
:1031F0000123DBB21A46BB789A4202D14FF0010399
:1032000001E04FF00003FB73FB7B03F00103FB7352
:103210007B78022B1DD0FB7B002B13D07B685B6877
:103220005B7B4FEA5303DBB203F00103002B0CBFBF
:1032300000230123DBB21A467B789A4202D14FF079
:10324000010301E04FF00003FB73FB7B03F001037C
:10325000FB733B7E022B1AD0FB7B002B10D07B68CC
:103260005B685B7B03F00103002B0CBF0023012391
:10327000DBB21A463B7E9A4202D14FF0010301E0D5
:103280004FF00003FB73FB7B03F00103FB73FB7B3D
:10329000184607F11407BD4680BC704780B500AFE3
:1032A0004FF0000000F030F844F6B473C2F20003AF
:1032B0004FF064025A6044F6B473C2F200034FF058
:1032C0000002DA6044F6B473C2F200034FF0000269
:1032D0001A8244F6B473C2F200034FF000029A74EB
:1032E00044F6B473C2F200034FF000025A6244F68F
:1032F000B473C2F200034FF000029A624FF017005D
:10330000FDF79CFB80BD00BF80B582B000AF0346D7
:10331000FB7144F6B473C2F20003FA791A7044F6F2
:10332000B473C2F200031B78002B11D144F6B473BE
:10333000C2F2000393F82C30002B30D044F6B47363
:10334000C2F2000393F82D3018460BF0E1FA26E0A4
:1033500044F6B473C2F2000393F82C3083F00103F7
:10336000DBB2002B1BD040F2DC504FF001014FF0DC
:10337000000243F2A933C0F220030BF091F8034698
:103380001A4644F6B473C2F2000383F82D2044F6C3
:10339000B473C2F200034FF0010283F82C2007F14E
:1033A0000807BD4680BD00BF80B500AF43F20D00E9
:1033B000C0F220004FF0050109F0EEFB80BD00BF18
:1033C00080B400AFBD4680BC704700BF80B582B0FE
:1033D00000AF78607B684FF018025A707B684FF03E
:1033E00011025A727B685A687B681A617B681A7A84
:1033F0007B681A7578684FF00801FEF74BF87B6818
:103400009A897B685B6810461946FEF7B5F97B68B8
:10341000DA897B685B6803F1020310461946FEF700
:10342000ABF97B681B7A1A467B685B6803F104037F
:1034300010461946FEF7A0F97B685B6803F10603A6
:1034400078681946FEF7BAF8786800F029F903465B
:10345000184607F10807BD4680BD00BF80B582B0A1
:1034600000AF78600B46FB707B684FF018025A7013
:103470007B689B89072B09D041F2336293420BD1C1
:10348000FB7878681946FEF79DFC13E0FB787868B6
:10349000194609F055FC0DE07B689B894FF0180038
:1034A0004FF009011A464FF005030AF0ABFA7868AD
:1034B000FDF72CFA07F10807BD4680BD80B584B042
:1034C00000AF78607B684FF018025A707B689B7A77
:1034D000002B00F098807B685B681B78FB73786832
:1034E0004FF00101FEF700F8FB7B03F00303032B11
:1034F00000F2AE8001A252F823F000BF0D3520008B
:103500005935200097352000C73520007B685B685F
:103510001B784FEA03239AB27B685B6803F10103CF
:103520001B78D3189AB27B689A817B685B6803F139
:1035300002031B784FEA03239AB27B685B6803F1AE
:1035400003031B78D3189AB27B68DA8178684FF04E
:103550000401FDF7C9FF7BE07B685B681B784FEADD
:1035600003239AB27B685B6803F101031B78D318CD
:103570009AB27B689A817B685B6803F102031B78CF
:10358000A3F580539AB27B68DA8178684FF0030123
:10359000FDF7AAFF5CE07B685B681B78A3F58053AE
:1035A0009AB27B689A817B685B6803F101031B78A0
:1035B000A3F580539AB27B68DA8178684FF00201F4
:1035C000FDF792FF44E07B685B681B784FEA1313BA
:1035D000DBB203F00F039BB2A3F575639AB27B686D
:1035E0009A817B685B681B7803F00F039BB2A3F59D
:1035F00075639AB27B68DA8178684FF00101FDF754
:1036000073FF00BF24E07B685B681B784FEA0323ED
:103610009AB27B685B6803F101031B78D3189AB2F6
:103620007B689A817B685B6803F102031B784FEA31
:1036300003239AB27B685B6803F103031B78D318FA
:103640009AB27B68DA8178684FF00801FDF74CFF89
:103650007B68DB89072B07D041F23362934207D1A5
:103660007868FEF717F911E0786809F00BFB0DE0B8
:103670007B68DB894FF018004FF009011A464FF0C4
:1036800006030AF0BFF97868FDF740F907F1100763
:10369000BD4680BD80B400AFBD4680BC704700BF52
:1036A00080B596B002AF78604FF00003FB607B6896
:1036B0004FF012025A704FF00500FCF761FEF864FB
:1036C0004FF00200FCF75CFEB8647B684FF0030229
:1036D00083F826207B6803F12702FB6C03F10103CA
:1036E000104619464FF008020EF0D8FD7B6803F132
:1036F0002F02BB6C03F10103104619464FF008027C
:103700000EF0CCFD07F1180318464FF000014FF002
:1037100030020EF071FE4FF0410387F8223007F1BE
:10372000100318464FF0000100F010FB07F10C03E6
:1037300018464FF0000100F02BFB07F1180107F1CC
:10374000100207F10C034FF002000090786800F0BF
:103750005DF90346184607F15007BD4680BD00BF1E
:1037600080B582B000AF78600B46FB707B684FF08D
:1037700012025A707B681B78072B03D07B681B787A
:10378000122B03D17868FDF7C1F827E07B685B7ADC
:10379000112B09D03A2B0DD0062B11D1FB7878686C
:1037A0001946FEF799FC19E0FB7878681946FFF78F
:1037B00055FE13E0FB787868194600F027FB0DE012
:1037C0007B685B7A4FF012004FF006011A464FF00B
:1037D00000030AF02FF97868FDF798F807F1080759
:1037E000BD4680BD80B588B002AFF860B9607A6030
:1037F0003B60FB684FF012025A70BB685B7A002B8B
:1038000008D17B68DA78FB685A727B685A78FB6863
:103810009A7207E0BB685A7AFB685A72BB681A7AD8
:10382000FB689A72FB6803F11502BB6803F11C0385
:10383000104619464FF011020EF030FDFB6803F1FF
:103840002602BB6803F10B03104619464FF0110224
:103850000EF024FDBB6803F11C031846FCF750FE74
:103860000346002B08D1BB6803F11C031846FDF783
:1038700057FC0346002B27D0BB685B7A2B2B23D049
:10388000FB685B7A112B07D03A2B09D0062B0BD1A2
:10389000F868FEF74DFD16E0F868FFF70FFE12E03E
:1038A000F86800F0E5FA0EE0FB685B7A4FF0120072
:1038B0004FF006011A464FF001030AF0A3F8F8682A
:1038C000FDF724F868E067E0FB684FF012021A7019
:1038D000BB685B7A2B2B4ED0BB685B684FEA134307
:1038E000FB75BB685B684FEA1323BB82BB8A4FEA58
:1038F0000323BB82FB7D5BB2002B08DAFB7D9AB20F
:10390000BB8A4FF012004FF013010AF07BF802F06F
:1039100077F80346BA8A9A4215D2FB7D43F04003FA
:10392000FB75BB685A68FB7D4FEA03431A43BB68CB
:103930005A6002F065F80346BA8A4FF012004FF061
:1039400012010AF05FF83B689B783868194600F06E
:10395000FDF9BB6803F104034FF001020092F8681F
:10396000B9683A6800F052F80346012B14D1F868A0
:10397000FCF7CCFF10E0F868B96800F079F803466E
:10398000012B09D14FF012004FF00F014FF0000250
:103990004FF000030AF036F807F11807BD4680BD66
:1039A00080B588B000AF786039607868FDF7B8FB03
:1039B0000346002B15D03B684FF002021A704FF0FF
:1039C0000003FB7709E0FB7F3A68D3184FF0FF0252
:1039D0005A70FB7F03F10103FB77FB7F072BF2D9C2
:1039E00010E0786802F06EF90346002B07D007F16B
:1039F0000C03786819463A68FDF7AAFA02E03868BD
:103A000002F00AF807F12007BD4680BD80B586B0F8
:103A100002AFF860B9607A603B60FB6803F11502A1
:103A2000FB6803F1380310461946FFF7B9FFFB683E
:103A300093F83830002B0CD14FF012004FF00D01ED
:103A40004FF000024FF0000309F0DCFF4FF00103DC
:103A500008E03B7E0093F868B9687A683B6801F03B
:103A600009F80346184607F11007BD4680BD00BFA0
:103A700080B58CB002AF7860396007F10C0318464E
:103A80004FF000014FF006020EF0B6FC4FF00500BB
:103A9000FCF776FC38627B685B68FB617B685B687F
:103AA00003F10803BB61FB691B7903F00F03FB758E
:103AB000FB691B7923F00F03BB75BB7D4FEA131322
:103AC000BB75FB695B784FEAC302FB695B79D21A6D
:103AD000FB7DA3F11003D218BB7DC3F1100392FB51
:103AE000F3F3DBB203F101037B75FB69DB78002B99
:103AF00042D1FB691A787B685A72FB695B783B7527
:103B000078684FF00801FDF7EFFCFB7DC3F110036F
:103B100087F8273097F827303A7D02FB03F3DBB2B2
:103B200078681946FDF7E0FC7B685B7A112B07D0BB
:103B30003A2B09D0062B0BD17868FEF7F9FB18E079
:103B40007868FFF7BBFC14E0786800F091F910E0AA
:103B50007B685B7A4FF012004FF006011A464FF077
:103B6000010309F04FFF7868FCF7D0FE4FF0010326
:103B7000E6E04FF00003E3E0FB69DB787A7D9A42F0
:103B80000FD24FF012004FF00D014FF000024FF036
:103B9000000309F037FF7868FCF7B8FE4FF0010327
:103BA000CEE0FB69DB7803F1FF33DAB2FB69DA7050
:103BB000FB69DB78FB74FB69DB78012B05D9BB7DE6
:103BC000C3F1100387F8273004E0FB7DC3F1100335
:103BD00087F8273097F82730082B30D0102B66D085
:103BE000022B40F090807B684FF0010283F8382070
:103BF0007B6803F13901FB7C97F8272002FB03F374
:103C0000BA69D21897F82730084611461A460EF0BE
:103C100045FB7B684FF001025A757B6803F1160182
:103C2000FB7C97F8272002FB03F3BA69D21897F8B8
:103C30002730084611461A460EF030FB73E07B68C9
:103C40004FF0020283F838207B6803F13901FB7CD6
:103C500097F8272002FB03F3BA69D21897F82730A8
:103C6000084611461A460EF019FB7B684FF0030216
:103C70005A757B6803F116023B6A03F10103104693
:103C800019464FF008020EF009FB7B6803F11E0194
:103C9000FB7C97F8272002FB03F3BA69D21897F848
:103CA0002730084611461A460EF0F8FA3BE07B68CA
:103CB0004FF0030283F838207B6803F13901FB7C65
:103CC00097F8272002FB03F3BA69D21897F8273038
:103CD000084611461A460EF0E1FA7B684FF00302DF
:103CE0005A757B6803F11601FB7C97F8272002FBCD
:103CF00003F3BA69D21897F82730084611461A46D6
:103D00000EF0CCFA0FE04FF012004FF00E014FF022
:103D100001024FF0000309F075FE7868FCF7F6FD2C
:103D20004FF001030CE03B6803F1040307F10C02C0
:103D30004FF0010100917868396800F09BFE03465E
:103D4000184607F12807BD4680BD00BF80B582B088
:103D500000AF78600B46FB707B684FF063021A700F
:103D60007B684FF004025A707B68FA789A7000F012
:103D700001FB03461A467B68DA7001F041FE0346F8
:103D80001A467B689A8007F10807BD4680BD00BFD0
:103D900080B584B000AF78600B46FB7000F0EAFAA3
:103DA0000346FB7301F02CFE0346BB81BB894FEA3F
:103DB00013239BB2FB72FA7BFB7A4FEA03231A436D
:103DC000FB784FEA03431A437B681A6007F1100738
:103DD000BD4680BD80B400AFBD4680BC704700BF0B
:103DE00080B582B000AF78607B684FF013025A70E4
:103DF0007B684FF03A025A727868FFF751FC03462D
:103E0000184607F10807BD4680BD00BF80B582B0E7
:103E100000AF78600B46FB707B684FF013025A705E
:103E20007B689B89802B10DB812B02DD9B2B06D0CE
:103E30000BE0FB787868194600F060F814E0FB7836
:103E40007868194600F0A2FA0EE07B689B894FF073
:103E500013004FF00B011A464FF0000309F0EAFD82
:103E60007868FCF753FD00BF07F10807BD4680BD29
:103E700080B582B000AF78607B684FF013025A7053
:103E80007B685B681B781A467B689A817B689B8994
:103E9000802B0CDB812B02DD9B2B04D007E07868A4
:103EA00000F052F812E0786800F096FA0EE07B68B5
:103EB0009B894FF013004FF00B011A464FF001039E
:103EC00009F0A0FD7868FCF721FD00BF07F10807A5
:103ED000BD4680BD80B400AF44F6E473C2F2000377
:103EE0004FF000021A7044F6E473C2F200034FF080
:103EF00000025A82BD4680BC704700BF80B582B0C8
:103F000000AF78600B46FB707B684FF014025A706C
:103F10007B681B78142B09D04FF014004FF02B0155
:103F20004FF000024FF0000309F06CFD7868FCF7D9
:103F3000EDFC44F6E473C2F200034FF000021A7085
:103F400007F10807BD4680BD80B584B000AF78603A
:103F50007B684FF014025A707B689B89802B02D0DB
:103F6000812B79D086E04FF014004FF001014FF023
:103F700000024FF0000309F02FFD4FF01400FCF792
:103F80005FFCF860FB68002B0DD14FF014004FF080
:103F90002C014FF001024FF0000309F033FD786867
:103FA000FCF7B4FC77E0FB684FF014021A70FB6872
:103FB0004FF014025A707B681B7AF8681946FDF7B7
:103FC00069FAFB6859687B685A687B681B7A0846FF
:103FD00011461A460EF062F9FB6803F115027B6880
:103FE00003F12603104619464FF011020EF056F960
:103FF0007868FCF78BFC4FF000037B60FB684FF0A8
:104000003A025A72FB684FF081029A81FB685B6842
:10401000FA689289D2B21A70FB685B6803F10203F6
:10402000F8681946FDF7CAFA44F6E473C2F20003D1
:104030004FF001021A70F868FFF7D2FE0346002B1A
:1040400028D044F6E473C2F200034FF000021A7065
:10405000F868FCF75BFC1DE04FF014004FF0020124
:104060004FF000024FF0000309F0B6FC7868FCF74F
:104070004DFC10E07B689B894FF014004FF00B0162
:104080001A464FF0020309F0BDFC7868FCF73EFCCD
:1040900000BF00E000BF07F11007BD4680BD00BFB4
:1040A000B0B584B000AF4FF00500FCF769F90346E6
:1040B00003F101033A46104619464FF008020EF08C
:1040C000EDF84FF00200FCF75BF9034603F1010342
:1040D0003A4602F10802104619464FF008020EF067
:1040E000DDF844F6F870C2F200004FF000014FF026
:1040F00054020EF081F944F6F873C2F200034FF057
:1041000000021A7044F6F873C2F200034FF0000286
:104110005A7044F6F873C2F200034FF000029A702E
:1041200044F6F873C2F200034FF00002DA7044F66E
:10413000F873C2F200034FF0B8029A7144F6F873B4
:10414000C2F200034FF03302DA7144F6F873C2F2A0
:1041500000034FF000021A7244F6F873C2F2000333
:104160004FF000025A7244F6F873C2F2000303F1F2
:104170000A043D460FCD20606160A260E36044F612
:10418000F873C2F200034FF003029A7644F6F87215
:10419000C2F2000242F22453C0F2210302F11B04D6
:1041A0001D460FCD20606160A260E360FCF786FED3
:1041B0000346DBB29BB203F2A4639AB244F6F873EF
:1041C000C2F200039A8544F6F873C2F200039B8D95
:1041D00018464FF000014FF0000244F28943C0F24C
:1041E00020030AF05DF903461A4644F6F873C2F25A
:1041F000000383F82E2044F6F873C2F200034FF058
:10420000000283F8302044F6F873C2F200034FF046
:10421000400283F8312044F6F873C2F200034FF0F5
:10422000000283F8322044F6F873C2F200034FF024
:10423000000283F8332044F6F873C2F2000303F15E
:1042400034043B460FCB84E80F0044F6F873C2F207
:1042500000034FF0060283F8442044F6F873C2F2DC
:1042600000034FF0000283F8462044F6F873C2F2D0
:1042700000034FF0400283F8472044F6F873C2F27F
:1042800000034FF0000283F8482044F6F873C2F2AE
:1042900000034FF0AA0283F8492044F6F873C2F2F3
:1042A00000034FF0050283F84A2044F6F873C2F287
:1042B00000034FF0000283F84B2044F6F873C2F27B
:1042C00000034FF0000283F84C2044F6F873C2F26A
:1042D00000034FF0000283F84D20FCF7EFFD03468A
:1042E000DBB29BB203F51C5303F110039AB244F600
:1042F000F873C2F20003A3F8502044F6F873C2F238
:104300000003B3F8503018464FF000014FF00002A0
:1043100044F2C163C0F220030AF0C2F803461A4611
:1043200044F6F873C2F2000383F84E2007F1100739
:10433000BD46B0BD80B582B000AF78600B487968EB
:104340004FF010020DF0AAFF094879684FF01002F3
:104350000DF0A4FF44F6F873C2F200034FF001021F
:104360005A7007F10807BD4680BD00BF025000200B
:104370002C50002080B400AF44F6F873C2F2000362
:1043800093F830301846BD4680BC704780B582B087
:1043900000AF78600B46FB707B684FF016025A70D6
:1043A0007B681B78162B09D04FF016004FF02B01BD
:1043B0004FF000024FF0000309F024FB7868FCF78F
:1043C000A5FA44F6F873C2F200034FF000021A7027
:1043D00007F10807BD4680BD80B588B000AF7860A2
:1043E0007B684FF016025A707B685B685B78FB77DE
:1043F00078684FF00401FDF777F8FB7F012B02D0BE
:10440000022B22D02CE0FBF791FF0346002B33D187
:10441000786801F0B5FF7B685B6803F10803184614
:10442000FFF788FF4FF005033B737B685A6807F17D
:104430000D0302F108021168526819605A6007F111
:104440000C031846FBF7E2FF17E04FF016004FF0A1
:104450000A014FF000024FF0000309F0EBFA0CE004
:10446000FB7F9BB24FF016004FF030011A464FF021
:10447000000309F0DFFA00E000BF7868FCF746FAB5
:1044800007F12007BD4680BD80B500AF44F2A140D2
:10449000C0F220004FF0040108F07EFB80BD00BF99
:1044A00080B500AF44F6F873C2F2000393F82F30E2
:1044B00003F1010146F26763C6F2666383FB0123E1
:1044C0004FEA63024FEAE173D21A13464FEA8303BD
:1044D0009B18CA1AD2B244F6F873C2F2000383F8EA
:1044E0002F2044F6F873C2F2000393F82F30002B0C
:1044F0001FD100F01FF8FCF7E1FC0346DBB29BB2D2
:1045000003F2A4639AB244F6F873C2F200039A85E8
:1045100044F6F873C2F2000393F82E2044F6F873C1
:10452000C2F200039B8D10464FF000011A460AF0BC
:1045300037F980BDB0B582B000AF07F06DFF03461C
:1045400083F00103DBB2002B0BD04FF01600FCF719
:104550003DFA44F6F873C2F200034FF000021A70FD
:10456000AAE001F04DFA03461A464FF6FF739A424D
:1045700000F09F8044F6F873C2F200031B78002B12
:1045800040F0998044F6F873C2F200034FF0010244
:104590001A704FF01600FCF753F978607B68002B17
:1045A00011D14FF016004FF02C014FF000024FF0E8
:1045B000000309F027FA44F6F873C2F200034FF043
:1045C00000021A7078E07B684FF016021A707B6860
:1045D0004FF016025A707B684FF03A025A727B68AD
:1045E0004FF09B029A817B6803F1150344F6F87241
:1045F000C2F2000202F11A02156854689068D1688C
:104600001D605C609860D960127C1A7401F0F8F942
:1046100003461A4644F6F873C2F200039A8078689B
:104620004FF01801FCF736FF7B685B6844F6F872C0
:10463000C2F2000202F10202106851689568D46863
:10464000186059609D60DC6010695169186159619A
:1046500078684FF00401FCF71DFF7B685B687A689F
:104660009289D2B21A707B685B684FF001025A706F
:104670007B685B6803F1020378681946FCF79EFFCC
:104680007868FFF7ADFB0346002B0AD044F6F873B9
:10469000C2F200034FF000021A707868FCF736F996
:1046A0000AE044F6F873C2F200034FF000021A70F9
:1046B00002E000BF00E000BF07F10807BD46B0BD43
:1046C00080B500AF44F2D960C0F220004FF0040181
:1046D00008F062FA80BD00BF80B500AF44F6F87301
:1046E000C2F2000393F8523003F1010146F267630E
:1046F000C6F2666383FB01234FEA63024FEAE1736C
:10470000D21A13464FEA83039B18CA1AD2B244F650
:10471000F873C2F2000383F8522044F6F873C2F231
:10472000000393F85230002B23D100F023F8FCF75C
:10473000C5FB0346DBB29BB203F51C5303F1100328
:104740009AB244F6F873C2F20003A3F8502044F67C
:10475000F873C2F2000393F84E2044F6F873C2F2E5
:104760000003B3F8503010464FF000011A460AF02B
:1047700017F880BDB0B58AB000AF07F04DFE034614
:1047800083F00103DBB2002B0BD04FF01600FCF7D7
:104790001DF944F6F873C2F200034FF000021A70DC
:1047A0005DE1FBF7C3FD0346002B40F0588101F0AB
:1047B00027F903461A464FF6FF739A4200F04F81DD
:1047C00044F6F873C2F200031B78002B40F04781D7
:1047D0004FF01600FCF734F838623B6A002B0AD120
:1047E0004FF016004FF02C014FF000024FF0000385
:1047F00009F008F933E13B6A4FF016021A703B6A80
:104800004FF016025A703B6A4FF03A025A723B6AF6
:104810004FF09B029A813B6A4FF003025A753B6A44
:1048200003F1160344F6F872C2F2000202F10A0222
:10483000146850689168D2681C6058609960DA60AA
:104840004FF00003FB7707F10403184601F0E4F88A
:1048500007F10403386A19464FF00002FCF7B4FD73
:104860004FF00500FBF78CFDB861386AB9694FF06D
:104870000002FCF7A9FD44F6F873C2F200034FF002
:10488000140283F8452044F6F873C2F200034FF097
:10489000000283F8472044F6F873C2F200034FF099
:1048A000060283F84420386A4FF00601FCF7F2FD57
:1048B0003B6A5A6844F6F873C2F2000303F14403FA
:1048C000186810609B889380FB7F03F10103FB77DE
:1048D0004FF0000387F826304FF0000387F82730A9
:1048E00063E097F82730184601F07EFA0346002B64
:1048F00051D007F1040297F8273010464FF002011B
:104900001A4601F00FFE07F10403386A19464FF00A
:104910000002FCF759FD4FF00500FBF731FDB861CF
:10492000386AB9694FF00002FCF74EFD44F6F8739F
:10493000C2F200034FF0120283F84B2044F6F873E2
:10494000C2F200034FF0050283F84A2044F6F873E0
:10495000C2F200034FF0000283F84C2044F6F873D3
:10496000C2F200034FF0800283F84D20386A4FF006
:104970000401FCF78FFD3B6A5A6844F6F873C2F2F3
:10498000000303F14A031B68136097F8263003F114
:10499000010387F8263097F82630002B0AD197F8C4
:1049A000273003F1010387F8273097F82730092BC8
:1049B00097D900E000BFFB7F002B03D1386AFBF7DB
:1049C000A5FF4CE044F6F873C2F2000393F84830B8
:1049D00003F10103DAB244F6F873C2F2000383F87C
:1049E0004820386A4FF01401FCF754FD3B6A5A68BE
:1049F00044F6F873C2F20003154603F130040FCCFD
:104A000028606960AA60EB6020682861386A4FF00E
:104A10000401FCF73FFD3B6A5B683A6A9289D2B2B7
:104A20001A703B6A5B684FF002025A703B6A5B681F
:104A300003F10203386A1946FCF7C0FD386AFFF734
:104A4000CFF90346002B07D144F6F873C2F20003F6
:104A50004FF001021A7002E0386AFBF757FF07F1C6
:104A60002807BD46B0BD00BF80B400AFBD4680BCC6
:104A7000704700BF90B5A9B00CAFF860B9607A601C
:104A80003B604FF0030387F86430FB684FF011027E
:104A90005A704FF0000387F86530FBF747FC034678
:104AA000002B18D0FB6803F115031846FCF784FBB4
:104AB000034683F00103DBB2002B0CD04FF0110052
:104AC0004FF032014FF000024FF0000308F0B2FF48
:104AD0004FF0010303E1BB689B7A002B0CD14FF030
:104AE00011004FF011014FF000024FF0000308F0E9
:104AF00089FF4FF00103F2E0FB6803F1150107F1B4
:104B0000500207F13C03084611461A46FCF720FA0A
:104B1000FB6803F1260107F1280207F11403084698
:104B200011461A46FCF714FA07F1500207F1280360
:104B300010461946FCF794FB0346002B41D0FB6856
:104B400003F11503184601F0BDF80346002B29D0E8
:104B500097F88030012B07D14FF0010387F86730B9
:104B600007F11403BB6615E097F88030022B07D1DC
:104B70004FF0030387F867304FF00003BB6609E08E
:104B80004FF011004FF00F014FF000024FF0000303
:104B900008F050FF4FF0030387F866304FF0000332
:104BA000FB6632E04FF0010387F867304FF00103F6
:104BB00087F8663007F13C03FB6607F11403BB6618
:104BC00023E0BB685B7A2B2B10D04FF0000387F8F3
:104BD00067304FF0000387F86630FB6803F1150378
:104BE000FB66FB6803F12603BB660EE04FF0000393
:104BF00087F867304FF0030387F866304FF0000303
:104C0000FB66FB6803F12603BB6697F88030012B37
:104C100007D1BB681B7A002B03D04FF0010387F844
:104C20006530BB689B7A03F1FF33DAB2BB689A72D6
:104C3000FB685B7A87F86330BB685B7A2B2B10D0FC
:104C4000FB6803F115031846FCF76AFA034683F084
:104C50000103DBB2002B04D04FF0010387F864306E
:104C600003E04FF0030387F864303B681A6897F855
:104C70006530002B0CBF00230123DBB2B968887AB2
:104C800097F8641097F8634000944FF00004019483
:104C900002904FF0000003904FF00000049097F84E
:104CA000670005904FF0000006904FF0000007905D
:104CB00097F866000890F86E0990B86E0A9097F819
:104CC00080000B90F86800F09FF80346012B02D19A
:104CD0004FF0010303E0F86803F0AAFC034618460E
:104CE00007F17407BD4690BD80B582B000AF786013
:104CF0007B684FF011025A70FBF718FB034683F0F4
:104D00000103DBB2002B0CD04FF011004FF0320149
:104D10004FF001024FF0000308F08CFE4FF001034A
:104D200003E0786803F084FC0346184607F108079F
:104D3000BD4680BD80B582B000AF78600B46FB7089
:104D40007B684FF011025A707B681B78102B05D1DD
:104D5000FB787868194600F0D7FD04E0FB787868A6
:104D60001946FEF7FDFC07F10807BD4680BD00BFF0
:104D700080B592B000AF78607B684FF011025A7036
:104D800007F118037868194600F04CFAFBF7CEFAE1
:104D9000034683F00103DBB2002B09D107F11803AE
:104DA00003F11C031846FCF7BBF90346002B24D083
:104DB00097F8453078681946FCF796FB97F821304C
:104DC000002B10D107F1100207F108037868114693
:104DD0001A4600F0F3FC3B7D03F10303DBB2786875
:104DE0001946FCF781FB07F1180107F1100207F1E2
:104DF00008037868FEF7F6FC02E0786800F0A4FD8E
:104E000007F14807BD4680BD80B586B000AFF860A9
:104E10007A600A46FA72BB7297F84030032B56D874
:104E200001A252F823F000BF9D4E20006B4E2000DF
:104E3000394E2000EB4E20007B6C1B78012B0DD0EF
:104E40007B6C1B784FF011004FF031011A464FF088
:104E5000000308F0EFFD4FF00103DEE1F868796C24
:104E60004FF00002FCF7B0FA40E07B6C1B78022B9D
:104E70000DD07B6C1B784FF011004FF031011A46BA
:104E80004FF0010308F0D6FD4FF00103C5E1F868CB
:104E9000796C4FF00002FCF797FA27E07B6C1B78E7
:104EA000032B0DD07B6C1B784FF011004FF03101BC
:104EB0001A464FF0020308F0BDFD4FF00103ACE1CC
:104EC000F868796C4FF00002FCF77EFA0EE097F874
:104ED00040309BB24FF011004FF00C014FF0000238
:104EE00008F0A8FD4FF0010397E100BF97F83430B8
:104EF000032B00F29B8001A252F823F0BF4F200049
:104F0000674F20000D4F20004950200097F84C308B
:104F1000022B0AD14FF00100FBF732FA0346F86882
:104F200019464FF00002FCF74FFA97F84C30012B6E
:104F300040F08C80BB6C1B78012B0DD0BB6C1B78B8
:104F40004FF011004FF031011A464FF0000308F006
:104F500071FD4FF0010360E1F868B96C4FF0000299
:104F6000FCF732FA72E097F84C30022B0AD14FF07E
:104F70000200FBF705FA0346F86819464FF00002F5
:104F8000FCF722FA97F84C30012B61D1BB6C1B78EF
:104F9000022B0DD0BB6C1B784FF011004FF031018C
:104FA0001A464FF0010308F045FD4FF0010334E1CC
:104FB000F868B96C4FF00002FCF706FA48E097F881
:104FC0004C30022B15D14FF00200FBF7D9F9034604
:104FD000F86819464FF00002FCF7F6F94FF00500AB
:104FE000FBF7CEF90346F86819464FF00002FCF7CC
:104FF000EBF997F84C30012B2CD1BB6C1B78032BB1
:105000000DD0BB6C1B784FF011004FF031011A46E8
:105010004FF0020308F00EFD4FF00103FDE0F868C9
:10502000B96C4FF00002FCF7CFF913E097F8343079
:105030009BB24FF011004FF00C014FF0010208F04D
:10504000F9FC4FF00103E8E000BF04E000BF02E01C
:1050500000BF00E000BF97F82430002B04D0002BE5
:105060000EDB032B0CDC0AE0F8684FF00101FCF7C3
:1050700011FAFB685B6897F828201A700EE00DE0C3
:1050800097F824309BB24FF011004FF00C014FF015
:10509000020208F0CFFC4FF00103BEE0BB7A002B08
:1050A00002D0012B18D00AE0F8684FF00101FCF79C
:1050B000F1F9FB685B6897F820201A700DE0BB7A65
:1050C0009BB24FF011004FF00C014FF0030208F0BB
:1050D000B1FC4FF00103A0E000BFFB7A012B02D02E
:1050E000032B34D026E0F8684FF00101FCF7D2F929
:1050F000FB685B687A68D2B21A70F8684FF00101F9
:10510000FCF7C8F9FB685B687A6802F47F424FEAF3
:105110001222D2B21A70F8684FF00101FCF7BAF906
:10512000FB685B687A6802F47F024FEA1242D2B2EF
:105130001A700DE0FB7A9BB24FF011004FF00C019A
:105140004FF0040208F076FC4FF0010365E000BF69
:105150004FF00003FB7597F82C304FEAC313DAB217
:10516000FB7D1343DBB2FB7597F830304FEA8313B6
:10517000DAB2FB7D1343DBB2FB7597F834304FEAAC
:105180000313DAB2FB7D1343DBB2FB7597F83830BB
:105190004FEAC303DAB2FB7D1343DBB2FB7597F82A
:1051A0003C304FEA8303DAB2FB7D1343DBB2FB757D
:1051B000FA7D97F840301343FB75F8684FF0010112
:1051C000FCF768F9FB685B68FA7D1A704FF0000322
:1051D000FB75FB7D43F06003FB75FB7A4FEAC3036D
:1051E000DAB2FB7D1343DBB2FB75BB7A4FEA830374
:1051F000DAB2FB7D1343DBB2FB75FA7D97F82430FE
:105200001343FB75F8684FF00101FCF743F9FB68A5
:105210005B68FA7D1A704FF00003184607F1180713
:10522000BD4680BD90B58FB000AF786039603B68F7
:105230004FF0000283F82D207B685A683B6893F892
:105240002D30D3181B7887F8373097F837304FEA6E
:10525000531387F8363097F837304FEAD303DBB271
:1052600003F0030387F8353097F837304FEA93039C
:10527000DBB203F00103002B0CBF0023012387F8EE
:10528000343097F8373003F0030387F833303B6846
:1052900093F82D3003F10103DAB23B6883F82D2037
:1052A0007B685A683B6893F82D30D3181B7887F8D1
:1052B000373097F837304FEA1313DBB203F00303AC
:1052C00087F8323097F8373003F0030387F831302E
:1052D0003B6893F82D3003F10103DAB23B6883F8A1
:1052E0002D2097F83630032B0BD097F836309BB231
:1052F0004FF011004FF00C014FF0050208F082FB57
:1053000000E000BF97F83530012B02D0032B48D0C6
:105310004CE03B684FF000025A603B685A687B687B
:1053200059683B6893F82D30CB181B781A433B68BB
:105330005A603B6893F82D3003F10103DAB23B6801
:1053400083F82D203B685A687B6859683B6893F85E
:105350002D30CB181B784FEA03231A433B685A6061
:105360003B6893F82D3003F10103DAB23B6883F810
:105370002D203B685A687B6859683B6893F82D304C
:10538000CB181B784FEA03431A433B685A603B68CB
:1053900093F82D3003F10103DAB23B6883F82D2036
:1053A00010E03B684FF000025A600BE097F8353090
:1053B0009BB24FF011004FF00C014FF0060208F0C5
:1053C00021FB00BF97F83430002B02D0012B17D0FF
:1053D0001BE03B684FF000021A727B685A683B681A
:1053E00093F82D30D3181A783B685A723B6893F8BB
:1053F0002D3003F10103DAB23B6883F82D2010E071
:105400003B684FF001021A720BE097F834309BB200
:105410004FF011004FF00C014FF0070208F0F2FAC4
:1054200000BF97F83330032B2CD801A252F823F099
:105430004154200067542000715420007B54200008
:105440007B685A683B6893F82D30D3181A783B680C
:105450009A723B6893F82D3003F10103DAB23B688E
:1054600083F82D201AE03B684FF001029A7215E094
:105470003B684FF040029A7210E03B684FF0FF0229
:105480009A720BE097F833309BB24FF011004FF057
:105490000C014FF0080208F0B5FA00BF97F832305F
:1054A000032B00F2918001A252F823F093552000C3
:1054B00041552000DF542000BD5420004FF005006E
:1054C000FAF75EFF01467B6803F138023B6803F19F
:1054D0000B03084611461A46FBF778FD80E07B680F
:1054E0005A683B6893F82D30D21807F12003104614
:1054F0004FF001011A464FF00003FBF707FF3B682E
:1055000093F82D3003F10203DAB23B6883F82D20C3
:1055100007F1200207F10C0310461946FBF7BEFD08
:105520004FF00500FAF72CFF01463B6803F10B032F
:1055300007F10C02084611461A46FBF747FD4FE0FB
:105540007B685A683B6893F82D30D21807F10C033A
:1055500010464FF002011A464FF00003FBF7D6FE4B
:105560003B6893F82D3003F10803DAB23B6883F807
:105570002D204FF00500FAF703FF01463B6803F1C9
:105580000B0307F10C02084611461A46FBF71EFDF5
:1055900026E07B685A683B6893F82D30D2183B6848
:1055A00003F10B0310464FF003011A464FF00003BE
:1055B000FBF7ACFE3B6893F82D3003F11003DAB231
:1055C0003B6883F82D200BE097F832309BB24FF008
:1055D00011004FF00C014FF0090208F013FA00BF60
:1055E00097F83130032B00F2938001A252F823F098
:1055F000DB56200089562000275620000156200047
:105600004FF00500FAF7BCFE04464FF00200FAF72F
:10561000B7FE02463B6803F11C03204611461A46BA
:10562000FBF7D4FC80E07B685A683B6893F82D3028
:10563000D21807F1200310464FF001011A464FF02F
:105640000003FBF763FE3B6893F82D3003F1020380
:10565000DAB23B6883F82D2007F1200207F10C0332
:1056600010461946FBF71AFD4FF00500FAF788FEC1
:1056700001463B6803F11C0307F10C020846114682
:105680001A46FBF7A3FC4FE07B685A683B6893F827
:105690002D30D21807F10C0310464FF002011A46C4
:1056A0004FF00003FBF732FE3B6893F82D3003F117
:1056B0000803DAB23B6883F82D204FF00500FAF7B3
:1056C0005FFE01463B6803F11C0307F10C0208462C
:1056D00011461A46FBF77AFC26E07B685A683B685D
:1056E00093F82D30D2183B6803F11C0310464FF09D
:1056F00003011A464FF00003FBF708FE3B6893F8DE
:105700002D3003F11003DAB23B6883F82D200BE053
:1057100097F831309BB24FF011004FF00C014FF071
:105720000A0208F06FF900BF3B681B7A002B41D0DA
:105730007B685A683B6893F82D30D3181B7887F83C
:10574000373097F8373003F0F803F02B04D13B687B
:105750004FF011025A722DE097F8373003F0F00342
:10576000E02B19D197F8373003F00E030E2B04D13C
:105770003B684FF000025A721CE03B684FF0FA029F
:105780005A723B685B7A4FF011004FF00C014FF0FA
:105790000B0208F037F90DE03B684FF0FA025A723D
:1057A0003B685B7A4FF011004FF00C014FF00C0298
:1057B00008F028F907F13C07BD4690BD80B485B0DC
:1057C00000AFF860B9607A6007F11407BD4680BC8D
:1057D000704700BF80B400AFBD4680BC704700BFBB
:1057E00080B5A4B000AF08F049F9034687F88F30C0
:1057F00097F88F30732B03D897F88F30072B0CD87E
:1058000097F88F309BB24FF010004FF034011A46DA
:105810004FF0000308F0F6F871E03A4697F88F3041
:105820001046194608F040F9FAF780FD0346002BB0
:1058300065D097F88F30002B61D04FF01000FAF749
:10584000FFFFC7F88800D7F88830002B0AD14FF047
:1058500010004FF02C014FF000024FF0000308F051
:10586000D1F84CE0D7F888304FF010021A70D7F812
:1058700088304FF010025A70D7F888304FF002028B
:1058800083F83820D7F8883003F139023B461046B8
:1058900019464FF008020CF001FD97F88F30A3F184
:1058A0000803DBB2D7F888001946FBF7F3FDD7F8F9
:1058B0008830596897F88F30A3F108033A4602F10F
:1058C0000802084611461A460CF0E8FC97F88F309B
:1058D0000F2B09D84FF010004FF036014FF00002A7
:1058E0004FF0000308F08EF8D7F88800FFF7FCF9B6
:1058F0000346012B03D1D7F88800FBF707F807F11F
:105900009007BD4680BD00BF80B582B000AF786013
:105910000B46FB707B684FF010025A707B681B7857
:10592000102B09D04FF010004FF02B014FF0000268
:105930004FF0000308F066F87868FAF7E7FF07F120
:105940000807BD4680BD00BF90B583B000AF78604A
:1059500078684FF00801FBF79DFD7B685A687B680B
:1059600003F13903104619464FF008020CF096FC7B
:1059700078684FF00801FBF78DFD7B685C684FF09D
:105980000200FAF7FDFC034603F101032046194625
:105990004FF008020CF082FC7B685A687B681B7A27
:1059A0001046194607F0B8FF7868FAF7AFFF07F11D
:1059B0000C07BD4690BD00BF80B500AF45F24C005E
:1059C000C2F200004FF000014FF4AE720CF014FD73
:1059D000FAF7ACFC0346002B08D045F24C03C2F2A8
:1059E00000034FF00002A3F8542107E045F24C03F6
:1059F000C2F200034FF6FF72A3F8542180BD00BF2E
:105A000080B400AF45F24C03C2F20003B3F8543146
:105A10001846BD4680BC7047B0B485B000AF786012
:105A20007B684FF000021A704FF00003BB734FF019
:105A300000037B734FF6FF737B814FF00B037B7288
:105A40004FF00003FB736FE0F97B45F24C02C2F2AA
:105A500000020B464FEA03135B184FEA4303D318C7
:105A60001B78002B5CD0F97B45F24C02C2F200029D
:105A70000B464FEA03135B184FEA4303D3185B78D6
:105A8000022B1FD1FA7B13464FEA03139B184FEAF0
:105A9000430345F24C02C2F200029B1803F10402D8
:105AA0007B68156854689068D1681D605C60986078
:105AB000D960127C1A747B684FF002021A704FF0A2
:105AC0000103BB73F97B45F24C02C2F200020B46A4
:105AD0004FEA03135B184FEA4303D31803F1100393
